{
  "_format": "hh-sol-artifact-1",
  "contractName": "DownwardAuction",
  "sourceName": "contracts/DownwardAuction.sol",
  "abi": [
    {
      "inputs": [
        {
          "internalType": "address",
          "name": "_pactContrac",
          "type": "address"
        },
        {
          "internalType": "address",
          "name": "_money",
          "type": "address"
        },
        {
          "internalType": "uint256",
          "name": "_fixedFee",
          "type": "uint256"
        },
        {
          "internalType": "uint256",
          "name": "_priceThreshold",
          "type": "uint256"
        },
        {
          "internalType": "uint256",
          "name": "_dinamicFee",
          "type": "uint256"
        },
        {
          "internalType": "address",
          "name": "_treasury",
          "type": "address"
        },
        {
          "internalType": "address",
          "name": "_accountant",
          "type": "address"
        },
        {
          "internalType": "address",
          "name": "_admin",
          "type": "address"
        }
      ],
      "stateMutability": "nonpayable",
      "type": "constructor"
    },
    {
      "inputs": [],
      "name": "AccessControlBadConfirmation",
      "type": "error"
    },
    {
      "inputs": [
        {
          "internalType": "address",
          "name": "account",
          "type": "address"
        },
        {
          "internalType": "bytes32",
          "name": "neededRole",
          "type": "bytes32"
        }
      ],
      "name": "AccessControlUnauthorizedAccount",
      "type": "error"
    },
    {
      "inputs": [
        {
          "internalType": "address",
          "name": "target",
          "type": "address"
        }
      ],
      "name": "AddressEmptyCode",
      "type": "error"
    },
    {
      "inputs": [
        {
          "internalType": "address",
          "name": "account",
          "type": "address"
        }
      ],
      "name": "AddressInsufficientBalance",
      "type": "error"
    },
    {
      "inputs": [],
      "name": "EnforcedPause",
      "type": "error"
    },
    {
      "inputs": [],
      "name": "ExpectedPause",
      "type": "error"
    },
    {
      "inputs": [],
      "name": "FailedInnerCall",
      "type": "error"
    },
    {
      "inputs": [],
      "name": "ReentrancyGuardReentrantCall",
      "type": "error"
    },
    {
      "inputs": [
        {
          "internalType": "address",
          "name": "token",
          "type": "address"
        }
      ],
      "name": "SafeERC20FailedOperation",
      "type": "error"
    },
    {
      "anonymous": false,
      "inputs": [
        {
          "indexed": true,
          "internalType": "uint256",
          "name": "_index",
          "type": "uint256"
        },
        {
          "indexed": false,
          "internalType": "uint256",
          "name": "_newDiscount",
          "type": "uint256"
        }
      ],
      "name": "ChangeTolleratedDiscount",
      "type": "event"
    },
    {
      "anonymous": false,
      "inputs": [
        {
          "indexed": false,
          "internalType": "uint256",
          "name": "_index",
          "type": "uint256"
        },
        {
          "indexed": false,
          "internalType": "uint256",
          "name": "_time",
          "type": "uint256"
        }
      ],
      "name": "CloseAuction",
      "type": "event"
    },
    {
      "anonymous": false,
      "inputs": [
        {
          "indexed": true,
          "internalType": "address",
          "name": "_owner",
          "type": "address"
        },
        {
          "indexed": false,
          "internalType": "uint256",
          "name": "_index",
          "type": "uint256"
        }
      ],
      "name": "EmergencyCloseAuction",
      "type": "event"
    },
    {
      "anonymous": false,
      "inputs": [
        {
          "indexed": true,
          "internalType": "address",
          "name": "_owner",
          "type": "address"
        },
        {
          "indexed": true,
          "internalType": "uint256",
          "name": "_id",
          "type": "uint256"
        },
        {
          "indexed": false,
          "internalType": "uint256",
          "name": "_amount",
          "type": "uint256"
        }
      ],
      "name": "NewAuction",
      "type": "event"
    },
    {
      "anonymous": false,
      "inputs": [
        {
          "indexed": true,
          "internalType": "uint256",
          "name": "_index",
          "type": "uint256"
        },
        {
          "indexed": false,
          "internalType": "uint256",
          "name": "feeAmount",
          "type": "uint256"
        },
        {
          "indexed": false,
          "internalType": "uint256",
          "name": "timestamp",
          "type": "uint256"
        }
      ],
      "name": "OverPenaltyFeeApplied",
      "type": "event"
    },
    {
      "anonymous": false,
      "inputs": [
        {
          "indexed": true,
          "internalType": "address",
          "name": "previousAddress",
          "type": "address"
        },
        {
          "indexed": true,
          "internalType": "address",
          "name": "newAddress",
          "type": "address"
        }
      ],
      "name": "PactAddressUpdated",
      "type": "event"
    },
    {
      "anonymous": false,
      "inputs": [
        {
          "indexed": false,
          "internalType": "uint256",
          "name": "_amount",
          "type": "uint256"
        }
      ],
      "name": "PaidFee",
      "type": "event"
    },
    {
      "anonymous": false,
      "inputs": [
        {
          "indexed": false,
          "internalType": "address",
          "name": "account",
          "type": "address"
        }
      ],
      "name": "Paused",
      "type": "event"
    },
    {
      "anonymous": false,
      "inputs": [
        {
          "indexed": true,
          "internalType": "bytes32",
          "name": "role",
          "type": "bytes32"
        },
        {
          "indexed": true,
          "internalType": "bytes32",
          "name": "previousAdminRole",
          "type": "bytes32"
        },
        {
          "indexed": true,
          "internalType": "bytes32",
          "name": "newAdminRole",
          "type": "bytes32"
        }
      ],
      "name": "RoleAdminChanged",
      "type": "event"
    },
    {
      "anonymous": false,
      "inputs": [
        {
          "indexed": true,
          "internalType": "bytes32",
          "name": "role",
          "type": "bytes32"
        },
        {
          "indexed": true,
          "internalType": "address",
          "name": "account",
          "type": "address"
        },
        {
          "indexed": true,
          "internalType": "address",
          "name": "sender",
          "type": "address"
        }
      ],
      "name": "RoleGranted",
      "type": "event"
    },
    {
      "anonymous": false,
      "inputs": [
        {
          "indexed": true,
          "internalType": "bytes32",
          "name": "role",
          "type": "bytes32"
        },
        {
          "indexed": true,
          "internalType": "address",
          "name": "account",
          "type": "address"
        },
        {
          "indexed": true,
          "internalType": "address",
          "name": "sender",
          "type": "address"
        }
      ],
      "name": "RoleRevoked",
      "type": "event"
    },
    {
      "anonymous": false,
      "inputs": [
        {
          "indexed": false,
          "internalType": "address",
          "name": "account",
          "type": "address"
        }
      ],
      "name": "Unpaused",
      "type": "event"
    },
    {
      "anonymous": false,
      "inputs": [
        {
          "indexed": true,
          "internalType": "address",
          "name": "_user",
          "type": "address"
        },
        {
          "indexed": true,
          "internalType": "uint256",
          "name": "amount",
          "type": "uint256"
        }
      ],
      "name": "WithDrawMoney",
      "type": "event"
    },
    {
      "anonymous": false,
      "inputs": [
        {
          "indexed": true,
          "internalType": "address",
          "name": "_user",
          "type": "address"
        },
        {
          "indexed": true,
          "internalType": "uint256",
          "name": "_index",
          "type": "uint256"
        },
        {
          "indexed": true,
          "internalType": "uint256",
          "name": "amount",
          "type": "uint256"
        }
      ],
      "name": "WithDrawPact",
      "type": "event"
    },
    {
      "anonymous": false,
      "inputs": [
        {
          "indexed": true,
          "internalType": "address",
          "name": "_player",
          "type": "address"
        },
        {
          "indexed": true,
          "internalType": "uint256",
          "name": "_index",
          "type": "uint256"
        },
        {
          "indexed": false,
          "internalType": "uint256",
          "name": "_amountPot",
          "type": "uint256"
        }
      ],
      "name": "newInstalmentPot",
      "type": "event"
    },
    {
      "inputs": [],
      "name": "ACCOUNTANT_ROLE",
      "outputs": [
        {
          "internalType": "bytes32",
          "name": "",
          "type": "bytes32"
        }
      ],
      "stateMutability": "view",
      "type": "function"
    },
    {
      "inputs": [],
      "name": "DEFAULT_ADMIN_ROLE",
      "outputs": [
        {
          "internalType": "bytes32",
          "name": "",
          "type": "bytes32"
        }
      ],
      "stateMutability": "view",
      "type": "function"
    },
    {
      "inputs": [],
      "name": "OWNER_ROLE",
      "outputs": [
        {
          "internalType": "bytes32",
          "name": "",
          "type": "bytes32"
        }
      ],
      "stateMutability": "view",
      "type": "function"
    },
    {
      "inputs": [
        {
          "internalType": "uint256",
          "name": "_index",
          "type": "uint256"
        },
        {
          "internalType": "uint256",
          "name": "_newDiscount",
          "type": "uint256"
        }
      ],
      "name": "changeTolleratedDiscount",
      "outputs": [],
      "stateMutability": "nonpayable",
      "type": "function"
    },
    {
      "inputs": [
        {
          "internalType": "uint256",
          "name": "_index",
          "type": "uint256"
        }
      ],
      "name": "closeAuction",
      "outputs": [],
      "stateMutability": "nonpayable",
      "type": "function"
    },
    {
      "inputs": [
        {
          "internalType": "uint256",
          "name": "_index",
          "type": "uint256"
        }
      ],
      "name": "emergencyCloseAuction",
      "outputs": [],
      "stateMutability": "nonpayable",
      "type": "function"
    },
    {
      "inputs": [
        {
          "internalType": "bytes32",
          "name": "role",
          "type": "bytes32"
        }
      ],
      "name": "getRoleAdmin",
      "outputs": [
        {
          "internalType": "bytes32",
          "name": "",
          "type": "bytes32"
        }
      ],
      "stateMutability": "view",
      "type": "function"
    },
    {
      "inputs": [
        {
          "internalType": "bytes32",
          "name": "role",
          "type": "bytes32"
        },
        {
          "internalType": "address",
          "name": "account",
          "type": "address"
        }
      ],
      "name": "grantRole",
      "outputs": [],
      "stateMutability": "nonpayable",
      "type": "function"
    },
    {
      "inputs": [
        {
          "internalType": "bytes32",
          "name": "role",
          "type": "bytes32"
        },
        {
          "internalType": "address",
          "name": "account",
          "type": "address"
        }
      ],
      "name": "hasRole",
      "outputs": [
        {
          "internalType": "bool",
          "name": "",
          "type": "bool"
        }
      ],
      "stateMutability": "view",
      "type": "function"
    },
    {
      "inputs": [
        {
          "internalType": "uint256",
          "name": "_index",
          "type": "uint256"
        },
        {
          "internalType": "uint256",
          "name": "_amount",
          "type": "uint256"
        }
      ],
      "name": "instalmentPot",
      "outputs": [],
      "stateMutability": "nonpayable",
      "type": "function"
    },
    {
      "inputs": [
        {
          "internalType": "uint256",
          "name": "_id",
          "type": "uint256"
        },
        {
          "internalType": "uint256",
          "name": "_amount",
          "type": "uint256"
        },
        {
          "internalType": "uint256",
          "name": "_startPrice",
          "type": "uint256"
        },
        {
          "internalType": "uint256",
          "name": "_expired",
          "type": "uint256"
        },
        {
          "internalType": "uint256",
          "name": "_tolleratedDiscount",
          "type": "uint256"
        }
      ],
      "name": "newAcutionPact",
      "outputs": [],
      "stateMutability": "nonpayable",
      "type": "function"
    },
    {
      "inputs": [
        {
          "internalType": "address",
          "name": "operator",
          "type": "address"
        },
        {
          "internalType": "address",
          "name": "from",
          "type": "address"
        },
        {
          "internalType": "uint256[]",
          "name": "ids",
          "type": "uint256[]"
        },
        {
          "internalType": "uint256[]",
          "name": "values",
          "type": "uint256[]"
        },
        {
          "internalType": "bytes",
          "name": "data",
          "type": "bytes"
        }
      ],
      "name": "onERC1155BatchReceived",
      "outputs": [
        {
          "internalType": "bytes4",
          "name": "",
          "type": "bytes4"
        }
      ],
      "stateMutability": "pure",
      "type": "function"
    },
    {
      "inputs": [
        {
          "internalType": "address",
          "name": "operator",
          "type": "address"
        },
        {
          "internalType": "address",
          "name": "from",
          "type": "address"
        },
        {
          "internalType": "uint256",
          "name": "id",
          "type": "uint256"
        },
        {
          "internalType": "uint256",
          "name": "value",
          "type": "uint256"
        },
        {
          "internalType": "bytes",
          "name": "data",
          "type": "bytes"
        }
      ],
      "name": "onERC1155Received",
      "outputs": [
        {
          "internalType": "bytes4",
          "name": "",
          "type": "bytes4"
        }
      ],
      "stateMutability": "pure",
      "type": "function"
    },
    {
      "inputs": [],
      "name": "paused",
      "outputs": [
        {
          "internalType": "bool",
          "name": "",
          "type": "bool"
        }
      ],
      "stateMutability": "view",
      "type": "function"
    },
    {
      "inputs": [
        {
          "internalType": "bytes32",
          "name": "role",
          "type": "bytes32"
        },
        {
          "internalType": "address",
          "name": "callerConfirmation",
          "type": "address"
        }
      ],
      "name": "renounceRole",
      "outputs": [],
      "stateMutability": "nonpayable",
      "type": "function"
    },
    {
      "inputs": [
        {
          "internalType": "bytes32",
          "name": "role",
          "type": "bytes32"
        },
        {
          "internalType": "address",
          "name": "account",
          "type": "address"
        }
      ],
      "name": "revokeRole",
      "outputs": [],
      "stateMutability": "nonpayable",
      "type": "function"
    },
    {
      "inputs": [
        {
          "internalType": "uint256",
          "name": "_coolDown",
          "type": "uint256"
        }
      ],
      "name": "setCoolDown",
      "outputs": [],
      "stateMutability": "nonpayable",
      "type": "function"
    },
    {
      "inputs": [
        {
          "internalType": "uint256[]",
          "name": "_echelons",
          "type": "uint256[]"
        },
        {
          "internalType": "uint256[]",
          "name": "_fees",
          "type": "uint256[]"
        }
      ],
      "name": "setFeeSeller",
      "outputs": [],
      "stateMutability": "nonpayable",
      "type": "function"
    },
    {
      "inputs": [
        {
          "internalType": "uint256",
          "name": "_fixedFee",
          "type": "uint256"
        },
        {
          "internalType": "uint256",
          "name": "_priceThreshold",
          "type": "uint256"
        },
        {
          "internalType": "uint256",
          "name": "_dinamicFee",
          "type": "uint256"
        }
      ],
      "name": "setFeeSystem",
      "outputs": [],
      "stateMutability": "nonpayable",
      "type": "function"
    },
    {
      "inputs": [
        {
          "internalType": "address",
          "name": "_money",
          "type": "address"
        }
      ],
      "name": "setNewMoneyToken",
      "outputs": [],
      "stateMutability": "nonpayable",
      "type": "function"
    },
    {
      "inputs": [
        {
          "internalType": "address",
          "name": "_pactContrac",
          "type": "address"
        }
      ],
      "name": "setNewPactAddress",
      "outputs": [],
      "stateMutability": "nonpayable",
      "type": "function"
    },
    {
      "inputs": [
        {
          "internalType": "address",
          "name": "_treasury",
          "type": "address"
        }
      ],
      "name": "setTreasury",
      "outputs": [],
      "stateMutability": "nonpayable",
      "type": "function"
    },
    {
      "inputs": [
        {
          "internalType": "uint256",
          "name": "_index",
          "type": "uint256"
        }
      ],
      "name": "showAuction",
      "outputs": [
        {
          "components": [
            {
              "internalType": "address",
              "name": "owner",
              "type": "address"
            },
            {
              "internalType": "uint256",
              "name": "id",
              "type": "uint256"
            },
            {
              "internalType": "uint256",
              "name": "amount",
              "type": "uint256"
            },
            {
              "internalType": "uint256",
              "name": "startPrice",
              "type": "uint256"
            },
            {
              "internalType": "uint256",
              "name": "expired",
              "type": "uint256"
            },
            {
              "internalType": "uint256",
              "name": "pot",
              "type": "uint256"
            },
            {
              "internalType": "address",
              "name": "player",
              "type": "address"
            },
            {
              "internalType": "bool",
              "name": "open",
              "type": "bool"
            },
            {
              "internalType": "uint256",
              "name": "tolleratedDiscount",
              "type": "uint256"
            },
            {
              "internalType": "uint256[]",
              "name": "penality",
              "type": "uint256[]"
            }
          ],
          "internalType": "struct DownwardAuctionStorage.Auction",
          "name": "",
          "type": "tuple"
        }
      ],
      "stateMutability": "view",
      "type": "function"
    },
    {
      "inputs": [
        {
          "internalType": "uint256",
          "name": "_index",
          "type": "uint256"
        }
      ],
      "name": "showAuctionPenalityes",
      "outputs": [
        {
          "internalType": "uint256[]",
          "name": "",
          "type": "uint256[]"
        }
      ],
      "stateMutability": "view",
      "type": "function"
    },
    {
      "inputs": [],
      "name": "showAuctionsList",
      "outputs": [
        {
          "components": [
            {
              "internalType": "address",
              "name": "owner",
              "type": "address"
            },
            {
              "internalType": "uint256",
              "name": "id",
              "type": "uint256"
            },
            {
              "internalType": "uint256",
              "name": "amount",
              "type": "uint256"
            },
            {
              "internalType": "uint256",
              "name": "startPrice",
              "type": "uint256"
            },
            {
              "internalType": "uint256",
              "name": "expired",
              "type": "uint256"
            },
            {
              "internalType": "uint256",
              "name": "pot",
              "type": "uint256"
            },
            {
              "internalType": "address",
              "name": "player",
              "type": "address"
            },
            {
              "internalType": "bool",
              "name": "open",
              "type": "bool"
            },
            {
              "internalType": "uint256",
              "name": "tolleratedDiscount",
              "type": "uint256"
            },
            {
              "internalType": "uint256[]",
              "name": "penality",
              "type": "uint256[]"
            }
          ],
          "internalType": "struct DownwardAuctionStorage.Auction[]",
          "name": "",
          "type": "tuple[]"
        }
      ],
      "stateMutability": "view",
      "type": "function"
    },
    {
      "inputs": [],
      "name": "showBalanceFee",
      "outputs": [
        {
          "internalType": "uint256",
          "name": "",
          "type": "uint256"
        }
      ],
      "stateMutability": "view",
      "type": "function"
    },
    {
      "inputs": [],
      "name": "showFeesSeller",
      "outputs": [
        {
          "components": [
            {
              "internalType": "uint256[]",
              "name": "echelons",
              "type": "uint256[]"
            },
            {
              "internalType": "uint256[]",
              "name": "fees",
              "type": "uint256[]"
            }
          ],
          "internalType": "struct DownwardAuctionStorage.FeeSeller",
          "name": "",
          "type": "tuple"
        }
      ],
      "stateMutability": "view",
      "type": "function"
    },
    {
      "inputs": [],
      "name": "showFeesSystem",
      "outputs": [
        {
          "components": [
            {
              "internalType": "uint256",
              "name": "fixedFee",
              "type": "uint256"
            },
            {
              "internalType": "uint256",
              "name": "priceThreshold",
              "type": "uint256"
            },
            {
              "internalType": "uint256",
              "name": "dinamicFee",
              "type": "uint256"
            }
          ],
          "internalType": "struct DownwardAuctionStorage.FeeSystem",
          "name": "",
          "type": "tuple"
        }
      ],
      "stateMutability": "view",
      "type": "function"
    },
    {
      "inputs": [],
      "name": "showPactContractAddress",
      "outputs": [
        {
          "internalType": "address",
          "name": "",
          "type": "address"
        }
      ],
      "stateMutability": "view",
      "type": "function"
    },
    {
      "inputs": [
        {
          "internalType": "address",
          "name": "_user",
          "type": "address"
        }
      ],
      "name": "showUserBalanceFree",
      "outputs": [
        {
          "internalType": "uint256",
          "name": "",
          "type": "uint256"
        }
      ],
      "stateMutability": "view",
      "type": "function"
    },
    {
      "inputs": [
        {
          "internalType": "address",
          "name": "_user",
          "type": "address"
        }
      ],
      "name": "showUserBalanceLock",
      "outputs": [
        {
          "internalType": "uint256",
          "name": "",
          "type": "uint256"
        }
      ],
      "stateMutability": "view",
      "type": "function"
    },
    {
      "inputs": [
        {
          "internalType": "bytes4",
          "name": "interfaceId",
          "type": "bytes4"
        }
      ],
      "name": "supportsInterface",
      "outputs": [
        {
          "internalType": "bool",
          "name": "",
          "type": "bool"
        }
      ],
      "stateMutability": "view",
      "type": "function"
    },
    {
      "inputs": [
        {
          "internalType": "uint256",
          "name": "_index",
          "type": "uint256"
        }
      ],
      "name": "withDrawPact",
      "outputs": [],
      "stateMutability": "nonpayable",
      "type": "function"
    },
    {
      "inputs": [],
      "name": "withdrawFees",
      "outputs": [],
      "stateMutability": "nonpayable",
      "type": "function"
    },
    {
      "inputs": [
        {
          "internalType": "uint256",
          "name": "_amount",
          "type": "uint256"
        }
      ],
      "name": "withdrawMoney",
      "outputs": [],
      "stateMutability": "nonpayable",
      "type": "function"
    }
  ],
  "bytecode": "0x60806040523480156200001157600080fd5b5060405162003de138038062003de18339810160408190526200003491620001d5565b600e805460ff191690556001600f819055600080546001600160a01b03808c166001600160a01b031992831617835583548b8216908316179093556007899055600888905560098790556004805493871693909116929092179091556200009c908262000105565b50620000c97f369da55721ba2b3acddd63aac7d6512c3e5762a78fa01c44f423f97868330c348362000105565b50620000f67fb19546dff01e856fb3f010c267a7b1c60363cf8a4664e21cc89c26224620214e3362000105565b50505050505050505062000262565b60008281526010602090815260408083206001600160a01b038516845290915281205460ff16620001ae5760008381526010602090815260408083206001600160a01b03861684529091529020805460ff19166001179055620001653390565b6001600160a01b0316826001600160a01b0316847f2f8788117e7eff1d82e926ec794901d17c78024a50270940304540a733656f0d60405160405180910390a4506001620001b2565b5060005b92915050565b80516001600160a01b0381168114620001d057600080fd5b919050565b600080600080600080600080610100898b031215620001f357600080fd5b620001fe89620001b8565b97506200020e60208a01620001b8565b96506040890151955060608901519450608089015193506200023360a08a01620001b8565b92506200024360c08a01620001b8565b91506200025360e08a01620001b8565b90509295985092959890939650565b613b6f80620002726000396000f3fe608060405234801561001057600080fd5b50600436106102115760003560e01c80638aee7ee311610125578063cde7451c116100ad578063eaf194eb1161007c578063eaf194eb146104ef578063f0aa872b14610502578063f0f4426014610517578063f23a6e611461052a578063f86670ad1461054a57600080fd5b8063cde7451c1461049f578063d547741f146104b2578063e58378bb146104c5578063e6af6839146104da57600080fd5b80639424cd12116100f45780639424cd1214610421578063a217fddf14610434578063ab1efbab1461043c578063abbf5de114610451578063bc197c811461046457600080fd5b80638aee7ee3146103e057806391d14854146103f3578063933e266814610406578063938f12ac1461040e57600080fd5b80632f2ff15d116101a85780634ec156cd116101775780634ec156cd14610389578063548769211461039c5780635c975abb146103af57806375861916146103ba5780637c56687a146103cd57600080fd5b80632f2ff15d1461033257806336568abe1461034557806339c1670c14610358578063476343ee1461038157600080fd5b8063236ed8f3116101e4578063236ed8f3146102b0578063248a9ca3146102c5578063270088cd146102e8578063280094cd1461031257600080fd5b806301ffc9a714610216578063106011411461023e5780631e4ef18c1461027557806320cb6a8014610295575b600080fd5b61022961022436600461336d565b61055d565b60405190151581526020015b60405180910390f35b61026761024c3660046133ae565b6001600160a01b03166000908152600c602052604090205490565b604051908152602001610235565b6102886102833660046133c9565b61056e565b60405161023591906134b5565b6000546040516001600160a01b039091168152602001610235565b6102c36102be3660046133c9565b6106d1565b005b6102676102d33660046133c9565b60009081526010602052604090206001015490565b6102f061075d565b6040805182518152602080840151908201529181015190820152606001610235565b6103256103203660046133c9565b6107a6565b60405161023591906134c8565b6102c361034036600461350c565b610822565b6102c361035336600461350c565b61084d565b6102676103663660046133ae565b6001600160a01b03166000908152600b602052604090205490565b6102c3610885565b6102c36103973660046133ae565b6108c7565b6102c36103aa3660046133c9565b6109fc565b600e5460ff16610229565b6102c36103c8366004613538565b610a4d565b6102c36103db3660046133c9565b610ad8565b6102c36103ee3660046133ae565b610af6565b61022961040136600461350c565b610b86565b600254610267565b6102c361041c3660046133c9565b610bb1565b6102c361042f366004613564565b610bf9565b610267600081565b610267600080516020613ada83398151915281565b6102c361045f3660046133c9565b610d75565b61048661047236600461362d565b63bc197c8160e01b98975050505050505050565b6040516001600160e01b03199091168152602001610235565b6102c36104ad3660046136e8565b610db2565b6102c36104c036600461350c565b610e32565b610267600080516020613afa83398151915281565b6104e2610e57565b604051610235919061370a565b6102c36104fd3660046136e8565b610f24565b61050a610f6d565b604051610235919061374c565b6102c36105253660046133ae565b61108e565b6104866105383660046137b0565b63f23a6e6160e01b9695505050505050565b6102c36105583660046138dc565b61111f565b60006105688261115e565b92915050565b6105d860405180610140016040528060006001600160a01b03168152602001600081526020016000815260200160008152602001600081526020016000815260200160006001600160a01b0316815260200160001515815260200160008152602001606081525090565b600a82815481106105eb576105eb613940565b60009182526020918290206040805161014081018252600990930290910180546001600160a01b0390811684526001820154848601526002820154848401526003820154606085015260048201546080850152600582015460a0850152600682015490811660c085015260ff600160a01b90910416151560e0840152600781015461010084015260088101805483518187028101870190945280845293949193610120860193928301828280156106c157602002820191906000526020600020905b8154815260200190600101908083116106ad575b5050505050815250509050919050565b6106d9611193565b6106e16111bd565b600a548190811061070d5760405162461bcd60e51b815260040161070490613956565b60405180910390fd5b61071733836111e3565b604080518381524260208201527fd4c37cf7a2dd87bf216584303aca56ea151859875ce77d12a2d35f240b39d748910160405180910390a15061075a6001600f55565b50565b61078160405180606001604052806000815260200160008152602001600081525090565b5060408051606081018252600754815260085460208201526009549181019190915290565b6060600a82815481106107bb576107bb613940565b906000526020600020906009020160080180548060200260200160405190810160405280929190818152602001828054801561081657602002820191906000526020600020905b815481526020019060010190808311610802575b50505050509050919050565b60008281526010602052604090206001015461083d816113c9565b61084783836113d3565b50505050565b6001600160a01b03811633146108765760405163334bd91960e11b815260040160405180910390fd5b6108808282611467565b505050565b600080516020613ada83398151915261089d816113c9565b6002805460009091556001546004546108c3916001600160a01b039081169116836114d4565b5050565b600080516020613afa8339815191526108df816113c9565b6108e7611193565b6001600160a01b03821661093d5760405162461bcd60e51b815260206004820152601860248201527f496e76616c696420636f6e7472616374206164647265737300000000000000006044820152606401610704565b6000546001600160a01b03908116908316036109a55760405162461bcd60e51b815260206004820152602160248201527f4164647265737320616c72656164792073657420746f20746869732076616c756044820152606560f81b6064820152608401610704565b600080546001600160a01b038481166001600160a01b0319831681178455604051919092169283917f36e10a7a28f608315f66ee60df67d1e504b589a45f3024d439d253b6744193c69190a3506108c36001600f55565b610a04611193565b610a0c6111bd565b610a163382611533565b604051819033907ff9b0350773858ea9ce560771e315626666a06cfe814575dcb767430e3a21e62390600090a361075a6001600f55565b600080516020613afa833981519152610a65816113c9565b610a6d611193565b612710821115610abf5760405162461bcd60e51b815260206004820152601e60248201527f44796e616d6963206665652063616e6e6f7420657863656564203130302500006044820152606401610704565b6007849055600883905560098290556108476001600f55565b600080516020613afa833981519152610af0816113c9565b50600355565b600080516020613ada833981519152610b0e816113c9565b610b16611193565b6001600160a01b038216610b645760405162461bcd60e51b8152602060048201526015602482015274496e76616c696420746f6b656e206164647265737360581b6044820152606401610704565b600180546001600160a01b0319166001600160a01b038416178155600f555050565b60009182526010602090815260408084206001600160a01b0393909316845291905290205460ff1690565b610bb9611193565b600a5481908110610bdc5760405162461bcd60e51b815260040161070490613956565b610be46111bd565b610bee3383611716565b5061075a6001600f55565b610c01611193565b610c096111bd565b60008411610c595760405162461bcd60e51b815260206004820152601960248201527f53657420636f72726563742070616374277320616d6f756e74000000000000006044820152606401610704565b60008311610ca95760405162461bcd60e51b815260206004820152601760248201527f53657420636f72726563742073746172742070726963650000000000000000006044820152606401610704565b610cb662093a80426139a3565b8211610d045760405162461bcd60e51b815260206004820152601a60248201527f53657420636f7272656374206578706972656420706572696f640000000000006044820152606401610704565b612710811115610d565760405162461bcd60e51b815260206004820152601f60248201527f73657420636f727265637420746f6c6c6572616e7a6520646973636f756e74006044820152606401610704565b610d64338686868686611a8e565b610d6e6001600f55565b5050505050565b610d7d611193565b610d856111bd565b600a5481908110610da85760405162461bcd60e51b815260040161070490613956565b610bee3383611ab0565b610dba611193565b610dc26111bd565b600a5482908110610de55760405162461bcd60e51b815260040161070490613956565b610df0338484611ca6565b604051828152839033907fe91d7154f5d05e7742771a51aa79a5bcf7adf81e1260cebe96b1f95ac9dea8459060200160405180910390a3506108c36001600f55565b600082815260106020526040902060010154610e4d816113c9565b6108478383611467565b6040805180820190915260608082526020820152604080516005805460606020820284018101855293830181815292939192849290918491840182828015610ebe57602002820191906000526020600020905b815481526020019060010190808311610eaa575b5050505050815260200160018201805480602002602001604051908101604052809291908181526020018280548015610f1657602002820191906000526020600020905b815481526020019060010190808311610f02575b505050505081525050905090565b610f2c611193565b600a5482908110610f4f5760405162461bcd60e51b815260040161070490613956565b610f576111bd565b610f62338484611f76565b506108c36001600f55565b6060600a805480602002602001604051908101604052809291908181526020016000905b8282101561108557600084815260209081902060408051610140810182526009860290920180546001600160a01b0390811684526001820154848601526002820154848401526003820154606085015260048201546080850152600582015460a0850152600682015490811660c0850152600160a01b900460ff16151560e08401526007810154610100840152600881018054835181870281018701909452808452939491936101208601939283018282801561106d57602002820191906000526020600020905b815481526020019060010190808311611059575b50505050508152505081526020019060010190610f91565b50505050905090565b600080516020613ada8339815191526110a6816113c9565b6001600160a01b0382166110fc5760405162461bcd60e51b815260206004820152601f60248201527f547265617375727920616464726573732063616e6e6f74206265207a65726f006044820152606401610704565b50600480546001600160a01b0319166001600160a01b0392909216919091179055565b600080516020613afa833981519152611137816113c9565b825161114a90600590602086019061330d565b50815161084790600690602085019061330d565b60006001600160e01b03198216637965db0b60e01b148061056857506301ffc9a760e01b6001600160e01b0319831614610568565b6002600f54036111b657604051633ee5aeb560e01b815260040160405180910390fd5b6002600f55565b600e5460ff16156111e15760405163d93c066560e01b815260040160405180910390fd5b565b42600a82815481106111f7576111f7613940565b906000526020600020906009020160040154106112565760405162461bcd60e51b815260206004820152601b60248201527f546869732061756374696f6e206973206e6f74206578706972656400000000006044820152606401610704565b600a818154811061126957611269613940565b60009182526020909120600990910201546001600160a01b03838116911614806112c45750600a81815481106112a1576112a1613940565b60009182526020909120600660099092020101546001600160a01b038381169116145b806112e257506112e2600080516020613afa83398151915283610b86565b6112fe5760405162461bcd60e51b8152600401610704906139b6565b600a818154811061131157611311613940565b906000526020600020906009020160060160149054906101000a900460ff16151560011515146113835760405162461bcd60e51b815260206004820152601b60248201527f546869732061756374696f6e20616c726561647920636c6f73656400000000006044820152606401610704565b6000600a828154811061139857611398613940565b906000526020600020906009020160060160146101000a81548160ff0219169083151502179055506108c381612487565b61075a81336126ad565b60006113df8383610b86565b61145f5760008381526010602090815260408083206001600160a01b03861684529091529020805460ff191660011790556114173390565b6001600160a01b0316826001600160a01b0316847f2f8788117e7eff1d82e926ec794901d17c78024a50270940304540a733656f0d60405160405180910390a4506001610568565b506000610568565b60006114738383610b86565b1561145f5760008381526010602090815260408083206001600160a01b0386168085529252808320805460ff1916905551339286917ff6391f5c32d9c69d2a47ea670b442974b53935d1edc7fd64eb21e047a839171b9190a4506001610568565b6040516001600160a01b0383811660248301526044820183905261088091859182169063a9059cbb906064015b604051602081830303815290604052915060e01b6020820180516001600160e01b0383818316178352505050506126e6565b6001600160a01b0382166000908152600c6020908152604080832054600b9092529091205461156291906139d9565b8111156115c05760405162461bcd60e51b815260206004820152602660248201527f467265652062616c616e6365206973206c6f7720666f722074686973206f70656044820152653930ba34b7b760d11b6064820152608401610704565b6001600160a01b0382166000908152600b60205260409020546115e49082906139d9565b6001600160a01b0383166000908152600c602052604090205411156116415760405162461bcd60e51b815260206004820152601360248201527224b731b7b93932b1ba1027b832b930ba34b7b760691b6044820152606401610704565b6001600160a01b0382166000908152600b6020526040812080548392906116699084906139d9565b90915550506001600160a01b0382166000908152600b6020908152604080832054600c9092529091205411156116ff5760405162461bcd60e51b815260206004820152603560248201527f4c6f636b65642062616c616e6365206578636565647320746f74616c2062616c604482015274185b98d94818599d195c881dda5d1a191c985dd85b605a1b6064820152608401610704565b6001546108c3906001600160a01b031683836114d4565b42600a828154811061172a5761172a613940565b906000526020600020906009020160040154116117595760405162461bcd60e51b8152600401610704906139ec565b600a818154811061176c5761176c613940565b60009182526020909120600990910201546001600160a01b038381169116146117a75760405162461bcd60e51b8152600401610704906139b6565b600a81815481106117ba576117ba613940565b906000526020600020906009020160060160149054906101000a900460ff161515600115151461182c5760405162461bcd60e51b815260206004820152601a60248201527f546869732061756374696f6e20616c726561647920636c6f73650000000000006044820152606401610704565b6006600a828154811061184157611841613940565b906000526020600020906009020160080180549050036118e257600a818154811061186e5761186e613940565b6000918252602080832060086009909302019190910180546001810182559083529120610bb8910181905560405182917fa24fdf91128e3a3d153efa8d243ed7a59e168d7ea2fed275b6e68fae5f650dd0916118d591904290918252602082015260400190565b60405180910390a2611991565b6006600a82815481106118f7576118f7613940565b9060005260206000209060090201600801805490501115611991576000600a828154811061192757611927613940565b906000526020600020906009020160060160146101000a81548160ff02191690831515021790555061195881612487565b60405181815233907f2f344eb0911fc771b0909f16a8b54a9ff9efb72afe04dfd4ca5f539a0f50236c9060200160405180910390a25050565b6000600a82815481106119a6576119a6613940565b906000526020600020906009020160060160146101000a81548160ff0219169083151502179055506201518042600a83815481106119e6576119e6613940565b906000526020600020906009020160040154611a0291906139d9565b10611a4857600a8181548110611a1a57611a1a613940565b60009182526020808320600860099093020191909101805460018101825590835291206105dc910155611a85565b600a8181548110611a5b57611a5b613940565b60009182526020808320600860099093020191909101805460018101825590835291206107d09101555b61195881612487565b611a9a86308787612749565b611aa88686868686866127d3565b505050505050565b600a8181548110611ac357611ac3613940565b60009182526020909120600990910201546001600160a01b03838116911614611afe5760405162461bcd60e51b8152600401610704906139b6565b600a8181548110611b1157611b11613940565b6000918252602090912060099091020160060154600160a01b900460ff1615611b735760405162461bcd60e51b81526020600482015260146024820152732a3434b99030bab1ba34b7b71034b99027b832b760611b6044820152606401610704565b6000600a8281548110611b8857611b88613940565b90600052602060002090600902016002015490506000600a8381548110611bb157611bb1613940565b906000526020600020906009020160020181905550611c2630600a8481548110611bdd57611bdd613940565b6000918252602090912060099091020154600a80546001600160a01b039092169186908110611c0e57611c0e613940565b90600052602060002090600902016001015484612749565b80600a8381548110611c3a57611c3a613940565b906000526020600020906009020160010154600a8481548110611c5f57611c5f613940565b600091825260208220600990910201546040516001600160a01b03909116917ffd3e8f554fb2b45439fb3a096a5e1d395c4d0917185719b66c0d2124b181fd5491a4505050565b42600a8381548110611cba57611cba613940565b90600052602060002090600902016004015411611ce95760405162461bcd60e51b8152600401610704906139ec565b600a8281548110611cfc57611cfc613940565b906000526020600020906009020160060160149054906101000a900460ff1615156001151514611d665760405162461bcd60e51b8152602060048201526015602482015274546869732061756374696f6e20697320636c6f736560581b6044820152606401610704565b611dc282600a8481548110611d7d57611d7d613940565b906000526020600020906009020160050154611d9884612a37565b600a8681548110611dab57611dab613940565b906000526020600020906009020160070154612a6f565b826001600160a01b0316600a8381548110611ddf57611ddf613940565b60009182526020909120600990910201546001600160a01b031603611e385760405162461bcd60e51b815260206004820152600f60248201526e13dddb995c8818d85b89dd081c1bdd608a1b6044820152606401610704565b611e428383612c10565b611e4d833083612cac565b6000611e5882612cc4565b6001600160a01b0385166000908152600b6020526040812080549293508392909190611e859084906139a3565b90915550611e97905084826001612d76565b611efe600a8481548110611ead57611ead613940565b906000526020600020906009020160060160009054906101000a90046001600160a01b0316600a8581548110611ee557611ee5613940565b9060005260206000209060090201600501546000612d76565b83600a8481548110611f1257611f12613940565b906000526020600020906009020160060160006101000a8154816001600160a01b0302191690836001600160a01b0316021790555080600a8481548110611f5b57611f5b613940565b90600052602060002090600902016005018190555050505050565b600a8281548110611f8957611f89613940565b60009182526020909120600990910201546001600160a01b03848116911614611fc45760405162461bcd60e51b8152600401610704906139b6565b42600a8381548110611fd857611fd8613940565b906000526020600020906009020160040154116120075760405162461bcd60e51b8152600401610704906139ec565b600a828154811061201a5761201a613940565b906000526020600020906009020160060160149054906101000a900460ff161515600115151461208c5760405162461bcd60e51b815260206004820152601a60248201527f546869732061756374696f6e20616c726561647920636c6f73650000000000006044820152606401610704565b6127108111156120d55760405162461bcd60e51b815260206004820152601460248201527314d95d0818dbdc9c9958dd08191a5cd8dbdd5b9d60621b6044820152606401610704565b80600a83815481106120e9576120e9613940565b906000526020600020906009020160070154106121675760405162461bcd60e51b815260206004820152603660248201527f4e657720646973636f756e74206d7573742062652067726561746572207468616044820152751b881d1a194818dd5c9c995b9d08191a5cd8dbdd5b9d60521b6064820152608401610704565b6006600a838154811061217c5761217c613940565b9060005260206000209060090201600801805490500361228057600a82815481106121a9576121a9613940565b6000918252602080832060086009909302019190910180546001810182559083529120610bb8910181905560405183917fa24fdf91128e3a3d153efa8d243ed7a59e168d7ea2fed275b6e68fae5f650dd09161221091904290918252602082015260400190565b60405180910390a280600a838154811061222c5761222c613940565b906000526020600020906009020160070181905550817f6a97ced1033baaab4526ecab6cee5f6b514719d5227be2858570d72839ceeabb8260405161227391815260200190565b60405180910390a2505050565b6006600a838154811061229557612295613940565b90600052602060002090600902016008018054905011156123045760405162461bcd60e51b815260206004820152602360248201527f52656163686564206c696d6974206f66206368616e676520616e642070656e616044820152626c747960e81b6064820152608401610704565b6201518042600a848154811061231c5761231c613940565b90600052602060002090600902016004015461233891906139d9565b1061237e57600a828154811061235057612350613940565b60009182526020808320600860099093020191909101805460018101825590835291206101f4910155612473565b6201518042600a848154811061239657612396613940565b9060005260206000209060090201600401546123b291906139d9565b1080156123f05750610e1042600a84815481106123d1576123d1613940565b9060005260206000209060090201600401546123ed91906139d9565b10155b1561243657600a828154811061240857612408613940565b6000918252602080832060086009909302019190910180546001810182559083529120610320910155612473565b600a828154811061244957612449613940565b60009182526020808320600860099093020191909101805460018101825590835291206103e89101555b80600a838154811061222c5761222c613940565b6000600a828154811061249c5761249c613940565b60009182526020822060066009909202010154600a80546001600160a01b03909216935090849081106124d1576124d1613940565b60009182526020822060099091020154600a80546001600160a01b039092169350908590811061250357612503613940565b90600052602060002090600902016005015490506000600a858154811061252c5761252c613940565b906000526020600020906009020160050154905060005b600a868154811061255657612556613940565b9060005260206000209060090201600801805490508110156125cb5781156125cb576125c182600a888154811061258f5761258f613940565b906000526020600020906009020160080183815481106125b1576125b1613940565b9060005260206000200154612ed5565b9150600101612543565b5080156125de576125db81612f0e565b90505b6000600a86815481106125f3576125f3613940565b90600052602060002090600902016005018190555083600a868154811061261c5761261c613940565b6000918252602080832060099290920290910180546001600160a01b0319166001600160a01b039485161790559186168152600b9091526040812080548492906126679084906139d9565b90915550612679905084836000612d76565b6001600160a01b0383166000908152600b6020526040812080548392906126a19084906139a3565b90915550505050505050565b6126b78282610b86565b6108c35760405163e2517d3f60e01b81526001600160a01b038216600482015260248101839052604401610704565b60006126fb6001600160a01b0384168361301c565b9050805160001415801561272057508080602001905181019061271e9190613a23565b155b1561088057604051635274afe760e01b81526001600160a01b0384166004820152602401610704565b60008054604051637921219560e11b81526001600160a01b0387811660048301528681166024830152604482018690526064820185905260a0608483015260a482019390935291169063f242432a9060c401600060405180830381600087803b1580156127b557600080fd5b505af11580156127c9573d6000803e3d6000fd5b5050505050505050565b60408051610140810182526001600160a01b0380891680835260208084018a815294840189815260608581018a8152608087018a8152600060a0890181815260c08a01978852600160e08b018181526101008c018e81526101208d01888152600a805494850181559095528c5160099093027fc65a7bb8d6351c1cf70c95a316cc6a92839c986682d98bc35f958f4883f9d2a881018054948e166001600160a01b03199095169490941784559d517fc65a7bb8d6351c1cf70c95a316cc6a92839c986682d98bc35f958f4883f9d2a98f015597517fc65a7bb8d6351c1cf70c95a316cc6a92839c986682d98bc35f958f4883f9d2aa8e015594517fc65a7bb8d6351c1cf70c95a316cc6a92839c986682d98bc35f958f4883f9d2ab8d015592517fc65a7bb8d6351c1cf70c95a316cc6a92839c986682d98bc35f958f4883f9d2ac8c0155517fc65a7bb8d6351c1cf70c95a316cc6a92839c986682d98bc35f958f4883f9d2ad8b015595517fc65a7bb8d6351c1cf70c95a316cc6a92839c986682d98bc35f958f4883f9d2ae8a01805493511515600160a01b026001600160a81b031990941691909816179190911790955590517fc65a7bb8d6351c1cf70c95a316cc6a92839c986682d98bc35f958f4883f9d2af8701559151805192958594936129e6937fc65a7bb8d6351c1cf70c95a316cc6a92839c986682d98bc35f958f4883f9d2b0909201929091019061330d565b50505086886001600160a01b03167fc078426956212265671526c1abdaea1311badbf1505fe0711db77bca2fa9afae88604051612a2591815260200190565b60405180910390a35050505050505050565b600854600090821015612a515760075461056890836139d9565b612a608260076002015461302a565b61056890836139d9565b919050565b8215612b0d57818311612ad55760405162461bcd60e51b815260206004820152602860248201527f5468697320706f7420697320686967686572207468616e20746865206375727260448201526732b73a103837ba1760c11b6064820152608401610704565b612adf838261302a565b612ae990846139d9565b821015612b085760405162461bcd60e51b815260040161070490613a45565b610847565b81600a8581548110612b2157612b21613940565b90600052602060002090600902016003015411612b945760405162461bcd60e51b815260206004820152602b60248201527f5468697320706f7420697320686967686572207468616e20746865207374617260448201526a3a34b73390383934b1b29760a91b6064820152608401610704565b612bc2600a8581548110612baa57612baa613940565b9060005260206000209060090201600301548261302a565b600a8581548110612bd557612bd5613940565b906000526020600020906009020160030154612bf191906139d9565b8210156108475760405162461bcd60e51b815260040161070490613a45565b6003546001600160a01b0383166000908152600d602090815260408083208584529091529020544291612c42916139a3565b10612c845760405162461bcd60e51b81526020600482015260126024820152712bb0b4ba103337b9103837ba1030b3b0b4b760711b6044820152606401610704565b6001600160a01b039091166000908152600d6020908152604080832093835292905220429055565b600154610880906001600160a01b0316848484613039565b600854600090821015612d195760075460028054600090612ce69084906139a3565b9091555050604051828152600080516020613b1a8339815191529060200160405180910390a160075461056890836139d9565b6000612d2a8360076002015461302a565b90508060026000828254612d3e91906139a3565b9091555050604051838152600080516020613b1a833981519152906020015b60405180910390a1612d6f81846139d9565b9392505050565b8015612e3b576001600160a01b0383166000908152600b6020908152604080832054600c90925290912054612dac9084906139a3565b1115612e085760405162461bcd60e51b815260206004820152602560248201527f496e73756666696369656e7420667265652062616c616e636520666f72206c6f604482015264636b696e6760d81b6064820152608401610704565b6001600160a01b0383166000908152600c602052604081208054849290612e309084906139a3565b909155506108809050565b6001600160a01b0383166000908152600c6020526040902054821115612ea35760405162461bcd60e51b815260206004820152601b60248201527f496e73756666696369656e74206c6f636b65642062616c616e636500000000006044820152606401610704565b6001600160a01b0383166000908152600c602052604081208054849290612ecb9084906139d9565b9091555050505050565b600080612ee2848461302a565b90508060026000828254612ef691906139a3565b90915550612f06905081856139d9565b949350505050565b6000805b600554811015612fba576005805482908110612f3057612f30613940565b9060005260206000200154831015612fb2576000612f6e8460056001018481548110612f5e57612f5e613940565b906000526020600020015461302a565b90508060026000828254612f8291906139a3565b9091555050604051818152600080516020613b1a8339815191529060200160405180910390a1612f0681856139d9565b600101612f12565b5060068054600091612fe591859190612fd5906001906139d9565b81548110612f5e57612f5e613940565b90508060026000828254612ff991906139a3565b9091555050604051818152600080516020613b1a83398151915290602001612d5d565b6060612d6f83836000613072565b6000612d6f838361271061310f565b6040516001600160a01b0384811660248301528381166044830152606482018390526108479186918216906323b872dd90608401611501565b6060814710156130975760405163cd78605960e01b8152306004820152602401610704565b600080856001600160a01b031684866040516130b39190613a93565b60006040518083038185875af1925050503d80600081146130f0576040519150601f19603f3d011682016040523d82523d6000602084013e6130f5565b606091505b5091509150613105868383613288565b9695505050505050565b6000808060001985870985870292508281108382030391505080600003613148576000841161313d57600080fd5b508290049050612d6f565b80841161315457600080fd5b600084868809808403938111909203919050600085613175811960016139a3565b169586900495938490049360008190030460010190506131958184613ac2565b9093179260006131a6876003613ac2565b60021890506131b58188613ac2565b6131c09060026139d9565b6131ca9082613ac2565b90506131d68188613ac2565b6131e19060026139d9565b6131eb9082613ac2565b90506131f78188613ac2565b6132029060026139d9565b61320c9082613ac2565b90506132188188613ac2565b6132239060026139d9565b61322d9082613ac2565b90506132398188613ac2565b6132449060026139d9565b61324e9082613ac2565b905061325a8188613ac2565b6132659060026139d9565b61326f9082613ac2565b905061327b8186613ac2565b9998505050505050505050565b60608261329d57613298826132e4565b612d6f565b81511580156132b457506001600160a01b0384163b155b156132dd57604051639996b31560e01b81526001600160a01b0385166004820152602401610704565b5080612d6f565b8051156132f45780518082602001fd5b604051630a12f52160e11b815260040160405180910390fd5b828054828255906000526020600020908101928215613348579160200282015b8281111561334857825182559160200191906001019061332d565b50613354929150613358565b5090565b5b808211156133545760008155600101613359565b60006020828403121561337f57600080fd5b81356001600160e01b031981168114612d6f57600080fd5b80356001600160a01b0381168114612a6a57600080fd5b6000602082840312156133c057600080fd5b612d6f82613397565b6000602082840312156133db57600080fd5b5035919050565b60008151808452602080850194506020840160005b83811015613413578151875295820195908201906001016133f7565b509495945050505050565b80516001600160a01b0316825260006101406020830151602085015260408301516040850152606083015160608501526080830151608085015260a083015160a085015260c083015161347c60c08601826001600160a01b03169052565b5060e083015161349060e086018215159052565b50610100808401518186015250610120808401518282870152613105838701826133e2565b602081526000612d6f602083018461341e565b6020808252825182820181905260009190848201906040850190845b81811015613500578351835292840192918401916001016134e4565b50909695505050505050565b6000806040838503121561351f57600080fd5b8235915061352f60208401613397565b90509250929050565b60008060006060848603121561354d57600080fd5b505081359360208301359350604090920135919050565b600080600080600060a0868803121561357c57600080fd5b505083359560208501359550604085013594606081013594506080013592509050565b60008083601f8401126135b157600080fd5b50813567ffffffffffffffff8111156135c957600080fd5b6020830191508360208260051b85010111156135e457600080fd5b9250929050565b60008083601f8401126135fd57600080fd5b50813567ffffffffffffffff81111561361557600080fd5b6020830191508360208285010111156135e457600080fd5b60008060008060008060008060a0898b03121561364957600080fd5b61365289613397565b975061366060208a01613397565b9650604089013567ffffffffffffffff8082111561367d57600080fd5b6136898c838d0161359f565b909850965060608b01359150808211156136a257600080fd5b6136ae8c838d0161359f565b909650945060808b01359150808211156136c757600080fd5b506136d48b828c016135eb565b999c989b5096995094979396929594505050565b600080604083850312156136fb57600080fd5b50508035926020909101359150565b60208152600082516040602084015261372660608401826133e2565b90506020840151601f1984830301604085015261374382826133e2565b95945050505050565b600060208083016020845280855180835260408601915060408160051b87010192506020870160005b828110156137a357603f1988860301845261379185835161341e565b94509285019290850190600101613775565b5092979650505050505050565b60008060008060008060a087890312156137c957600080fd5b6137d287613397565b95506137e060208801613397565b94506040870135935060608701359250608087013567ffffffffffffffff81111561380a57600080fd5b61381689828a016135eb565b979a9699509497509295939492505050565b634e487b7160e01b600052604160045260246000fd5b600082601f83011261384f57600080fd5b8135602067ffffffffffffffff8083111561386c5761386c613828565b8260051b604051601f19603f8301168101818110848211171561389157613891613828565b60405293845260208187018101949081019250878511156138b157600080fd5b6020870191505b848210156138d1578135835291830191908301906138b8565b979650505050505050565b600080604083850312156138ef57600080fd5b823567ffffffffffffffff8082111561390757600080fd5b6139138683870161383e565b9350602085013591508082111561392957600080fd5b506139368582860161383e565b9150509250929050565b634e487b7160e01b600052603260045260246000fd5b6020808252601d908201527f646967697420636f727265637420696e64657820666f72206172726179000000604082015260600190565b634e487b7160e01b600052601160045260246000fd5b808201808211156105685761056861398d565b6020808252600990820152682737ba1027bbb732b960b91b604082015260600190565b818103818111156105685761056861398d565b60208082526017908201527f546869732061756374696f6e2069732065787069726564000000000000000000604082015260600190565b600060208284031215613a3557600080fd5b81518015158114612d6f57600080fd5b6020808252602e908201527f5468697320706f74206973206c6f776572207468616e2074686520746f6c657260408201526d30ba32b2103234b9b1b7bab73a1760911b606082015260800190565b6000825160005b81811015613ab45760208186018101518583015201613a9a565b506000920191825250919050565b80820281158282048414176105685761056861398d56fe369da55721ba2b3acddd63aac7d6512c3e5762a78fa01c44f423f97868330c34b19546dff01e856fb3f010c267a7b1c60363cf8a4664e21cc89c26224620214e4c70c6c677a8dbcdfad24e3c679dfb228865fe729eb77efa5856d788c39a8c99a26469706673582212208073474e76946148474fb40748beff13452743c1fcddb38ab6e1be45fc33a31e64736f6c63430008180033",
  "linkReferences": {},
  "deployedLinkReferences": {}
}