{
  "_format": "hh-sol-artifact-1",
  "contractName": "FaucetTesnet",
  "sourceName": "contracts/faucetTesnet.sol",
  "abi": [
    {
      "inputs": [
        {
          "internalType": "address",
          "name": "initialOwner",
          "type": "address"
        }
      ],
      "stateMutability": "nonpayable",
      "type": "constructor"
    },
    {
      "inputs": [
        {
          "internalType": "address",
          "name": "owner",
          "type": "address"
        }
      ],
      "name": "OwnableInvalidOwner",
      "type": "error"
    },
    {
      "inputs": [
        {
          "internalType": "address",
          "name": "account",
          "type": "address"
        }
      ],
      "name": "OwnableUnauthorizedAccount",
      "type": "error"
    },
    {
      "anonymous": false,
      "inputs": [
        {
          "indexed": true,
          "internalType": "address",
          "name": "previousOwner",
          "type": "address"
        },
        {
          "indexed": true,
          "internalType": "address",
          "name": "newOwner",
          "type": "address"
        }
      ],
      "name": "OwnershipTransferred",
      "type": "event"
    },
    {
      "anonymous": false,
      "inputs": [
        {
          "indexed": true,
          "internalType": "address",
          "name": "user",
          "type": "address"
        },
        {
          "indexed": false,
          "internalType": "uint256",
          "name": "_blockTimeStamp",
          "type": "uint256"
        }
      ],
      "name": "RequireAirdop",
      "type": "event"
    },
    {
      "inputs": [],
      "name": "amountAirdrop",
      "outputs": [
        {
          "internalType": "uint256",
          "name": "",
          "type": "uint256"
        }
      ],
      "stateMutability": "view",
      "type": "function"
    },
    {
      "inputs": [
        {
          "internalType": "address",
          "name": "",
          "type": "address"
        }
      ],
      "name": "balanceToken",
      "outputs": [
        {
          "internalType": "uint256",
          "name": "",
          "type": "uint256"
        }
      ],
      "stateMutability": "view",
      "type": "function"
    },
    {
      "inputs": [
        {
          "internalType": "address",
          "name": "_token",
          "type": "address"
        },
        {
          "internalType": "uint256",
          "name": "_amount",
          "type": "uint256"
        }
      ],
      "name": "depositToken",
      "outputs": [],
      "stateMutability": "nonpayable",
      "type": "function"
    },
    {
      "inputs": [],
      "name": "owner",
      "outputs": [
        {
          "internalType": "address",
          "name": "",
          "type": "address"
        }
      ],
      "stateMutability": "view",
      "type": "function"
    },
    {
      "inputs": [
        {
          "internalType": "uint256",
          "name": "_index",
          "type": "uint256"
        }
      ],
      "name": "removeTokenInList",
      "outputs": [],
      "stateMutability": "nonpayable",
      "type": "function"
    },
    {
      "inputs": [],
      "name": "renounceOwnership",
      "outputs": [],
      "stateMutability": "nonpayable",
      "type": "function"
    },
    {
      "inputs": [],
      "name": "requireAirdrop",
      "outputs": [],
      "stateMutability": "nonpayable",
      "type": "function"
    },
    {
      "inputs": [
        {
          "internalType": "uint256",
          "name": "_amount",
          "type": "uint256"
        }
      ],
      "name": "setAmountFaucet",
      "outputs": [],
      "stateMutability": "nonpayable",
      "type": "function"
    },
    {
      "inputs": [
        {
          "internalType": "address",
          "name": "_newToken",
          "type": "address"
        }
      ],
      "name": "setNewTokenInList",
      "outputs": [],
      "stateMutability": "nonpayable",
      "type": "function"
    },
    {
      "inputs": [
        {
          "internalType": "uint256",
          "name": "",
          "type": "uint256"
        }
      ],
      "name": "tokenList",
      "outputs": [
        {
          "internalType": "address",
          "name": "",
          "type": "address"
        }
      ],
      "stateMutability": "view",
      "type": "function"
    },
    {
      "inputs": [
        {
          "internalType": "address",
          "name": "newOwner",
          "type": "address"
        }
      ],
      "name": "transferOwnership",
      "outputs": [],
      "stateMutability": "nonpayable",
      "type": "function"
    },
    {
      "inputs": [
        {
          "internalType": "address",
          "name": "",
          "type": "address"
        }
      ],
      "name": "userRequestAirdrop",
      "outputs": [
        {
          "internalType": "bool",
          "name": "",
          "type": "bool"
        }
      ],
      "stateMutability": "view",
      "type": "function"
    }
  ],
  "bytecode": "0x608060405234801561001057600080fd5b50604051611299380380611299833981810160405281019061003291906101e2565b80600073ffffffffffffffffffffffffffffffffffffffff168173ffffffffffffffffffffffffffffffffffffffff16036100a55760006040517f1e4fbdf700000000000000000000000000000000000000000000000000000000815260040161009c919061021e565b60405180910390fd5b6100b4816100bb60201b60201c565b5050610239565b60008060009054906101000a900473ffffffffffffffffffffffffffffffffffffffff169050816000806101000a81548173ffffffffffffffffffffffffffffffffffffffff021916908373ffffffffffffffffffffffffffffffffffffffff1602179055508173ffffffffffffffffffffffffffffffffffffffff168173ffffffffffffffffffffffffffffffffffffffff167f8be0079c531659141344cd1fd0a4f28419497f9722a3daafe3b4186f6b6457e060405160405180910390a35050565b600080fd5b600073ffffffffffffffffffffffffffffffffffffffff82169050919050565b60006101af82610184565b9050919050565b6101bf816101a4565b81146101ca57600080fd5b50565b6000815190506101dc816101b6565b92915050565b6000602082840312156101f8576101f761017f565b5b6000610206848285016101cd565b91505092915050565b610218816101a4565b82525050565b6000602082019050610233600083018461020f565b92915050565b611051806102486000396000f3fe608060405234801561001057600080fd5b50600436106100b45760003560e01c806393a604671161007157806393a60467146101535780639ead722214610171578063adfe5cbb146101a1578063dbf1bc26146101bd578063f2fde38b146101ed578063f7d1fe3f14610209576100b4565b806304599012146100b95780630b76d864146100e9578063338b5dea14610105578063715018a6146101215780637a5a08cc1461012b5780638da5cb5b14610135575b600080fd5b6100d360048036038101906100ce9190610be8565b610225565b6040516100e09190610c2e565b60405180910390f35b61010360048036038101906100fe9190610c75565b61023d565b005b61011f600480360381019061011a9190610ca2565b610339565b005b6101296104ac565b005b6101336104c0565b005b61013d61082f565b60405161014a9190610cf1565b60405180910390f35b61015b610858565b6040516101689190610c2e565b60405180910390f35b61018b60048036038101906101869190610c75565b61085e565b6040516101989190610cf1565b60405180910390f35b6101bb60048036038101906101b69190610be8565b61089d565b005b6101d760048036038101906101d29190610be8565b61097a565b6040516101e49190610d27565b60405180910390f35b61020760048036038101906102029190610be8565b61099a565b005b610223600480360381019061021e9190610c75565b610a20565b005b60036020528060005260406000206000915090505481565b610245610a32565b60018080805490506102579190610d71565b8154811061026857610267610da5565b5b9060005260206000200160009054906101000a900473ffffffffffffffffffffffffffffffffffffffff16600182815481106102a7576102a6610da5565b5b9060005260206000200160006101000a81548173ffffffffffffffffffffffffffffffffffffffff021916908373ffffffffffffffffffffffffffffffffffffffff160217905550600180548061030157610300610dd4565b5b6001900381819060005260206000200160006101000a81549073ffffffffffffffffffffffffffffffffffffffff0219169055905550565b610341610a32565b60005b6001805490508110156104a7578273ffffffffffffffffffffffffffffffffffffffff166001828154811061037c5761037b610da5565b5b9060005260206000200160009054906101000a900473ffffffffffffffffffffffffffffffffffffffff1673ffffffffffffffffffffffffffffffffffffffff160361049a578273ffffffffffffffffffffffffffffffffffffffff166323b872dd3330856040518463ffffffff1660e01b81526004016103ff93929190610e03565b6020604051808303816000875af115801561041e573d6000803e3d6000fd5b505050506040513d601f19601f820116820180604052508101906104429190610e66565b5081600360008573ffffffffffffffffffffffffffffffffffffffff1673ffffffffffffffffffffffffffffffffffffffff16815260200190815260200160002060008282546104929190610e93565b925050819055505b8080600101915050610344565b505050565b6104b4610a32565b6104be6000610ab9565b565b60001515600460003373ffffffffffffffffffffffffffffffffffffffff1673ffffffffffffffffffffffffffffffffffffffff16815260200190815260200160002060009054906101000a900460ff16151514610553576040517f08c379a000000000000000000000000000000000000000000000000000000000815260040161054a90610f24565b60405180910390fd5b6001600460003373ffffffffffffffffffffffffffffffffffffffff1673ffffffffffffffffffffffffffffffffffffffff16815260200190815260200160002060006101000a81548160ff02191690831515021790555060005b6001805490508110156107de57600254600182815481106105d2576105d1610da5565b5b9060005260206000200160009054906101000a900473ffffffffffffffffffffffffffffffffffffffff1673ffffffffffffffffffffffffffffffffffffffff166370a08231306040518263ffffffff1660e01b81526004016106359190610cf1565b602060405180830381865afa158015610652573d6000803e3d6000fd5b505050506040513d601f19601f820116820180604052508101906106769190610f59565b106107d157600254600360006001848154811061069657610695610da5565b5b9060005260206000200160009054906101000a900473ffffffffffffffffffffffffffffffffffffffff1673ffffffffffffffffffffffffffffffffffffffff1673ffffffffffffffffffffffffffffffffffffffff168152602001908152602001600020600082825461070a9190610d71565b925050819055506001818154811061072557610724610da5565b5b9060005260206000200160009054906101000a900473ffffffffffffffffffffffffffffffffffffffff1673ffffffffffffffffffffffffffffffffffffffff1663a9059cbb336002546040518363ffffffff1660e01b815260040161078c929190610f86565b6020604051808303816000875af11580156107ab573d6000803e3d6000fd5b505050506040513d601f19601f820116820180604052508101906107cf9190610e66565b505b80806001019150506105ae565b503373ffffffffffffffffffffffffffffffffffffffff167fe1b91048c54f1bd74f4b7479b7db9b198b1ff547f760bbdb1aef5a83a2053370426040516108259190610c2e565b60405180910390a2565b60008060009054906101000a900473ffffffffffffffffffffffffffffffffffffffff16905090565b60025481565b6001818154811061086e57600080fd5b906000526020600020016000915054906101000a900473ffffffffffffffffffffffffffffffffffffffff1681565b6108a5610a32565b600073ffffffffffffffffffffffffffffffffffffffff168173ffffffffffffffffffffffffffffffffffffffff1603610914576040517f08c379a000000000000000000000000000000000000000000000000000000000815260040161090b90610ffb565b60405180910390fd5b6001819080600181540180825580915050600190039060005260206000200160009091909190916101000a81548173ffffffffffffffffffffffffffffffffffffffff021916908373ffffffffffffffffffffffffffffffffffffffff16021790555050565b60046020528060005260406000206000915054906101000a900460ff1681565b6109a2610a32565b600073ffffffffffffffffffffffffffffffffffffffff168173ffffffffffffffffffffffffffffffffffffffff1603610a145760006040517f1e4fbdf7000000000000000000000000000000000000000000000000000000008152600401610a0b9190610cf1565b60405180910390fd5b610a1d81610ab9565b50565b610a28610a32565b8060028190555050565b610a3a610b7d565b73ffffffffffffffffffffffffffffffffffffffff16610a5861082f565b73ffffffffffffffffffffffffffffffffffffffff1614610ab757610a7b610b7d565b6040517f118cdaa7000000000000000000000000000000000000000000000000000000008152600401610aae9190610cf1565b60405180910390fd5b565b60008060009054906101000a900473ffffffffffffffffffffffffffffffffffffffff169050816000806101000a81548173ffffffffffffffffffffffffffffffffffffffff021916908373ffffffffffffffffffffffffffffffffffffffff1602179055508173ffffffffffffffffffffffffffffffffffffffff168173ffffffffffffffffffffffffffffffffffffffff167f8be0079c531659141344cd1fd0a4f28419497f9722a3daafe3b4186f6b6457e060405160405180910390a35050565b600033905090565b600080fd5b600073ffffffffffffffffffffffffffffffffffffffff82169050919050565b6000610bb582610b8a565b9050919050565b610bc581610baa565b8114610bd057600080fd5b50565b600081359050610be281610bbc565b92915050565b600060208284031215610bfe57610bfd610b85565b5b6000610c0c84828501610bd3565b91505092915050565b6000819050919050565b610c2881610c15565b82525050565b6000602082019050610c436000830184610c1f565b92915050565b610c5281610c15565b8114610c5d57600080fd5b50565b600081359050610c6f81610c49565b92915050565b600060208284031215610c8b57610c8a610b85565b5b6000610c9984828501610c60565b91505092915050565b60008060408385031215610cb957610cb8610b85565b5b6000610cc785828601610bd3565b9250506020610cd885828601610c60565b9150509250929050565b610ceb81610baa565b82525050565b6000602082019050610d066000830184610ce2565b92915050565b60008115159050919050565b610d2181610d0c565b82525050565b6000602082019050610d3c6000830184610d18565b92915050565b7f4e487b7100000000000000000000000000000000000000000000000000000000600052601160045260246000fd5b6000610d7c82610c15565b9150610d8783610c15565b9250828203905081811115610d9f57610d9e610d42565b5b92915050565b7f4e487b7100000000000000000000000000000000000000000000000000000000600052603260045260246000fd5b7f4e487b7100000000000000000000000000000000000000000000000000000000600052603160045260246000fd5b6000606082019050610e186000830186610ce2565b610e256020830185610ce2565b610e326040830184610c1f565b949350505050565b610e4381610d0c565b8114610e4e57600080fd5b50565b600081519050610e6081610e3a565b92915050565b600060208284031215610e7c57610e7b610b85565b5b6000610e8a84828501610e51565b91505092915050565b6000610e9e82610c15565b9150610ea983610c15565b9250828201905080821115610ec157610ec0610d42565b5b92915050565b600082825260208201905092915050565b7f546f6b656e20616c726561647920726571756972650000000000000000000000600082015250565b6000610f0e601583610ec7565b9150610f1982610ed8565b602082019050919050565b60006020820190508181036000830152610f3d81610f01565b9050919050565b600081519050610f5381610c49565b92915050565b600060208284031215610f6f57610f6e610b85565b5b6000610f7d84828501610f44565b91505092915050565b6000604082019050610f9b6000830185610ce2565b610fa86020830184610c1f565b9392505050565b7f73657420636f727265637420746f6b656e204164647265737300000000000000600082015250565b6000610fe5601983610ec7565b9150610ff082610faf565b602082019050919050565b6000602082019050818103600083015261101481610fd8565b905091905056fea26469706673582212209203fe0f446cd5b2051cc0f8a94a4104d2a4c4c893e28d80919f8f1b3ffb214564736f6c634300081c0033",
  "linkReferences": {},
  "deployedLinkReferences": {}
}