{
  "_format": "hh-sol-artifact-1",
  "contractName": "PactLaunch",
  "sourceName": "contracts/PactLaunch.sol",
  "abi": [
    {
      "inputs": [
        {
          "internalType": "address",
          "name": "_pactContract",
          "type": "address"
        }
      ],
      "stateMutability": "nonpayable",
      "type": "constructor"
    },
    {
      "inputs": [
        {
          "internalType": "address",
          "name": "target",
          "type": "address"
        }
      ],
      "name": "AddressEmptyCode",
      "type": "error"
    },
    {
      "inputs": [
        {
          "internalType": "address",
          "name": "account",
          "type": "address"
        }
      ],
      "name": "AddressInsufficientBalance",
      "type": "error"
    },
    {
      "inputs": [],
      "name": "EnforcedPause",
      "type": "error"
    },
    {
      "inputs": [],
      "name": "ExpectedPause",
      "type": "error"
    },
    {
      "inputs": [],
      "name": "FailedInnerCall",
      "type": "error"
    },
    {
      "inputs": [
        {
          "internalType": "address",
          "name": "owner",
          "type": "address"
        }
      ],
      "name": "OwnableInvalidOwner",
      "type": "error"
    },
    {
      "inputs": [
        {
          "internalType": "address",
          "name": "account",
          "type": "address"
        }
      ],
      "name": "OwnableUnauthorizedAccount",
      "type": "error"
    },
    {
      "inputs": [],
      "name": "ReentrancyGuardReentrantCall",
      "type": "error"
    },
    {
      "inputs": [
        {
          "internalType": "address",
          "name": "token",
          "type": "address"
        }
      ],
      "name": "SafeERC20FailedOperation",
      "type": "error"
    },
    {
      "anonymous": false,
      "inputs": [
        {
          "indexed": true,
          "internalType": "address",
          "name": "buyer",
          "type": "address"
        },
        {
          "indexed": true,
          "internalType": "uint256",
          "name": "amount",
          "type": "uint256"
        },
        {
          "indexed": true,
          "internalType": "uint256",
          "name": "id",
          "type": "uint256"
        }
      ],
      "name": "BuyPact",
      "type": "event"
    },
    {
      "anonymous": false,
      "inputs": [
        {
          "indexed": true,
          "internalType": "address",
          "name": "_user",
          "type": "address"
        },
        {
          "indexed": true,
          "internalType": "uint256",
          "name": "_id",
          "type": "uint256"
        }
      ],
      "name": "DeleteLaunch",
      "type": "event"
    },
    {
      "anonymous": false,
      "inputs": [
        {
          "indexed": true,
          "internalType": "address",
          "name": "_user",
          "type": "address"
        },
        {
          "indexed": true,
          "internalType": "uint256",
          "name": "_id",
          "type": "uint256"
        },
        {
          "indexed": false,
          "internalType": "uint256",
          "name": "_amount",
          "type": "uint256"
        }
      ],
      "name": "IncrementPactInLaunch",
      "type": "event"
    },
    {
      "anonymous": false,
      "inputs": [
        {
          "indexed": true,
          "internalType": "address",
          "name": "_user",
          "type": "address"
        },
        {
          "indexed": true,
          "internalType": "uint256",
          "name": "_id",
          "type": "uint256"
        },
        {
          "indexed": false,
          "internalType": "uint256",
          "name": "_amount",
          "type": "uint256"
        }
      ],
      "name": "NewPactInLaunch",
      "type": "event"
    },
    {
      "anonymous": false,
      "inputs": [
        {
          "indexed": true,
          "internalType": "address",
          "name": "previousOwner",
          "type": "address"
        },
        {
          "indexed": true,
          "internalType": "address",
          "name": "newOwner",
          "type": "address"
        }
      ],
      "name": "OwnershipTransferred",
      "type": "event"
    },
    {
      "anonymous": false,
      "inputs": [
        {
          "indexed": false,
          "internalType": "address",
          "name": "account",
          "type": "address"
        }
      ],
      "name": "Paused",
      "type": "event"
    },
    {
      "anonymous": false,
      "inputs": [
        {
          "indexed": false,
          "internalType": "address",
          "name": "account",
          "type": "address"
        }
      ],
      "name": "Unpaused",
      "type": "event"
    },
    {
      "anonymous": false,
      "inputs": [
        {
          "indexed": true,
          "internalType": "address",
          "name": "user",
          "type": "address"
        },
        {
          "indexed": true,
          "internalType": "address",
          "name": "token",
          "type": "address"
        },
        {
          "indexed": false,
          "internalType": "uint256",
          "name": "amount",
          "type": "uint256"
        }
      ],
      "name": "WithdrawToken",
      "type": "event"
    },
    {
      "inputs": [
        {
          "internalType": "address",
          "name": "_user",
          "type": "address"
        },
        {
          "internalType": "address",
          "name": "_token",
          "type": "address"
        }
      ],
      "name": "balanceDebtor",
      "outputs": [
        {
          "internalType": "uint256",
          "name": "amount",
          "type": "uint256"
        }
      ],
      "stateMutability": "view",
      "type": "function"
    },
    {
      "inputs": [
        {
          "internalType": "uint256",
          "name": "_id",
          "type": "uint256"
        },
        {
          "internalType": "uint256",
          "name": "_index",
          "type": "uint256"
        },
        {
          "internalType": "uint256",
          "name": "_amount",
          "type": "uint256"
        }
      ],
      "name": "buyPact",
      "outputs": [],
      "stateMutability": "nonpayable",
      "type": "function"
    },
    {
      "inputs": [
        {
          "internalType": "uint256",
          "name": "_id",
          "type": "uint256"
        },
        {
          "internalType": "uint256",
          "name": "index",
          "type": "uint256"
        }
      ],
      "name": "deleteLaunch",
      "outputs": [],
      "stateMutability": "nonpayable",
      "type": "function"
    },
    {
      "inputs": [
        {
          "internalType": "uint256",
          "name": "_id",
          "type": "uint256"
        }
      ],
      "name": "findIndexPact",
      "outputs": [
        {
          "internalType": "uint256",
          "name": "",
          "type": "uint256"
        }
      ],
      "stateMutability": "view",
      "type": "function"
    },
    {
      "inputs": [
        {
          "internalType": "uint256",
          "name": "_id",
          "type": "uint256"
        },
        {
          "internalType": "uint256",
          "name": "_amount",
          "type": "uint256"
        }
      ],
      "name": "launchNewPact",
      "outputs": [],
      "stateMutability": "nonpayable",
      "type": "function"
    },
    {
      "inputs": [
        {
          "internalType": "address",
          "name": "operator",
          "type": "address"
        },
        {
          "internalType": "address",
          "name": "from",
          "type": "address"
        },
        {
          "internalType": "uint256[]",
          "name": "ids",
          "type": "uint256[]"
        },
        {
          "internalType": "uint256[]",
          "name": "values",
          "type": "uint256[]"
        },
        {
          "internalType": "bytes",
          "name": "data",
          "type": "bytes"
        }
      ],
      "name": "onERC1155BatchReceived",
      "outputs": [
        {
          "internalType": "bytes4",
          "name": "",
          "type": "bytes4"
        }
      ],
      "stateMutability": "pure",
      "type": "function"
    },
    {
      "inputs": [
        {
          "internalType": "address",
          "name": "operator",
          "type": "address"
        },
        {
          "internalType": "address",
          "name": "from",
          "type": "address"
        },
        {
          "internalType": "uint256",
          "name": "id",
          "type": "uint256"
        },
        {
          "internalType": "uint256",
          "name": "value",
          "type": "uint256"
        },
        {
          "internalType": "bytes",
          "name": "data",
          "type": "bytes"
        }
      ],
      "name": "onERC1155Received",
      "outputs": [
        {
          "internalType": "bytes4",
          "name": "",
          "type": "bytes4"
        }
      ],
      "stateMutability": "pure",
      "type": "function"
    },
    {
      "inputs": [],
      "name": "owner",
      "outputs": [
        {
          "internalType": "address",
          "name": "",
          "type": "address"
        }
      ],
      "stateMutability": "view",
      "type": "function"
    },
    {
      "inputs": [],
      "name": "paused",
      "outputs": [
        {
          "internalType": "bool",
          "name": "",
          "type": "bool"
        }
      ],
      "stateMutability": "view",
      "type": "function"
    },
    {
      "inputs": [],
      "name": "renounceOwnership",
      "outputs": [],
      "stateMutability": "nonpayable",
      "type": "function"
    },
    {
      "inputs": [],
      "name": "setInPause",
      "outputs": [],
      "stateMutability": "nonpayable",
      "type": "function"
    },
    {
      "inputs": [
        {
          "internalType": "address",
          "name": "_pactContract",
          "type": "address"
        }
      ],
      "name": "setPactContractAddress",
      "outputs": [],
      "stateMutability": "nonpayable",
      "type": "function"
    },
    {
      "inputs": [],
      "name": "setUnPause",
      "outputs": [],
      "stateMutability": "nonpayable",
      "type": "function"
    },
    {
      "inputs": [
        {
          "internalType": "uint256",
          "name": "_id",
          "type": "uint256"
        }
      ],
      "name": "showAmountInSellForPact",
      "outputs": [
        {
          "internalType": "uint256",
          "name": "amount",
          "type": "uint256"
        }
      ],
      "stateMutability": "view",
      "type": "function"
    },
    {
      "inputs": [],
      "name": "showPactContractAddress",
      "outputs": [
        {
          "internalType": "address",
          "name": "",
          "type": "address"
        }
      ],
      "stateMutability": "view",
      "type": "function"
    },
    {
      "inputs": [
        {
          "internalType": "uint256",
          "name": "_id",
          "type": "uint256"
        }
      ],
      "name": "showPactDetail",
      "outputs": [
        {
          "components": [
            {
              "internalType": "uint256",
              "name": "id",
              "type": "uint256"
            },
            {
              "internalType": "address",
              "name": "debtor",
              "type": "address"
            },
            {
              "internalType": "address",
              "name": "tokenLoan",
              "type": "address"
            },
            {
              "internalType": "uint256",
              "name": "sizeLoan",
              "type": "uint256"
            },
            {
              "internalType": "uint256",
              "name": "interest",
              "type": "uint256"
            },
            {
              "internalType": "uint256[]",
              "name": "rewardMaturity",
              "type": "uint256[]"
            },
            {
              "internalType": "uint256",
              "name": "expiredPact",
              "type": "uint256"
            },
            {
              "internalType": "address",
              "name": "tokenCollateral",
              "type": "address"
            },
            {
              "internalType": "uint256",
              "name": "collateral",
              "type": "uint256"
            },
            {
              "internalType": "uint256",
              "name": "balancLoanRepay",
              "type": "uint256"
            },
            {
              "internalType": "string",
              "name": "describes",
              "type": "string"
            },
            {
              "internalType": "uint256",
              "name": "amount",
              "type": "uint256"
            }
          ],
          "internalType": "struct PactLaunchStorage.PactDetails",
          "name": "pact",
          "type": "tuple"
        }
      ],
      "stateMutability": "nonpayable",
      "type": "function"
    },
    {
      "inputs": [
        {
          "internalType": "address",
          "name": "_user",
          "type": "address"
        },
        {
          "internalType": "uint256",
          "name": "_id",
          "type": "uint256"
        }
      ],
      "name": "showPactForWithdraw",
      "outputs": [
        {
          "internalType": "uint256",
          "name": "amount",
          "type": "uint256"
        }
      ],
      "stateMutability": "view",
      "type": "function"
    },
    {
      "inputs": [],
      "name": "showPactLaunchList",
      "outputs": [
        {
          "internalType": "uint256[]",
          "name": "_listPacts",
          "type": "uint256[]"
        }
      ],
      "stateMutability": "view",
      "type": "function"
    },
    {
      "inputs": [
        {
          "internalType": "address",
          "name": "newOwner",
          "type": "address"
        }
      ],
      "name": "transferOwnership",
      "outputs": [],
      "stateMutability": "nonpayable",
      "type": "function"
    },
    {
      "inputs": [
        {
          "internalType": "uint256",
          "name": "_id",
          "type": "uint256"
        }
      ],
      "name": "withdrawPactBuy",
      "outputs": [],
      "stateMutability": "nonpayable",
      "type": "function"
    },
    {
      "inputs": [
        {
          "internalType": "address",
          "name": "_token",
          "type": "address"
        }
      ],
      "name": "withdrawToken",
      "outputs": [],
      "stateMutability": "nonpayable",
      "type": "function"
    }
  ],
  "bytecode": "0x60806040523480156200001157600080fd5b5060405162001cae38038062001cae8339810160408190526200003491620000ee565b6006805460ff19169055600160075533806200006a57604051631e4fbdf760e01b81526000600482015260240160405180910390fd5b62000075816200009c565b50600080546001600160a01b0319166001600160a01b039290921691909117905562000120565b600880546001600160a01b038381166001600160a01b0319831681179093556040519116919082907f8be0079c531659141344cd1fd0a4f28419497f9722a3daafe3b4186f6b6457e090600090a35050565b6000602082840312156200010157600080fd5b81516001600160a01b03811681146200011957600080fd5b9392505050565b611b7e80620001306000396000f3fe608060405234801561001057600080fd5b50600436106101365760003560e01c806388318dc0116100b8578063c15c6c4f1161007c578063c15c6c4f146102f6578063c537a1b114610309578063e131cca914610311578063eba36cfc14610324578063f23a6e6114610337578063f2fde38b1461035757600080fd5b806388318dc01461026f578063894760691461028f5780638da5cb5b146102a2578063b3c56066146102b3578063bc197c81146102bb57600080fd5b8063285f7793116100ff578063285f7793146101f4578063490f8ea4146102095780634c49c37e1461021c5780635c975abb14610251578063715018a61461026757600080fd5b806266ace71461013b57806307575c931461016157806307d7fe0d1461019a5780631c277491146101ba57806320cb6a80146101cf575b600080fd5b61014e610149366004611339565b61036a565b6040519081526020015b60405180910390f35b61014e61016f366004611367565b6001600160a01b03918216600090815260026020908152604080832093909416825291909152205490565b61014e6101a8366004611339565b60009081526003602052604090205490565b6101cd6101c83660046113a0565b61037e565b005b6000546001600160a01b03165b6040516001600160a01b039091168152602001610158565b6101fc6103a9565b60405161015891906113cc565b6101cd610217366004611339565b610401565b61014e61022a366004611410565b6001600160a01b039091166000908152600560209081526040808320938352929052205490565b60065460ff166040519015158152602001610158565b6101cd6104b0565b61028261027d366004611339565b6104c4565b60405161015891906114c8565b6101cd61029d3660046115a8565b61063c565b6008546001600160a01b03166101dc565b6101cd610660565b6102dd6102c9366004611653565b63bc197c8160e01b98975050505050505050565b6040516001600160e01b03199091168152602001610158565b6101cd610304366004611712565b610670565b6101cd610699565b6101cd61031f3660046115a8565b6106a9565b6101cd610332366004611712565b61071f565b6102dd610345366004611734565b63f23a6e6160e01b9695505050505050565b6101cd6103653660046115a8565b61073a565b60008061037683610775565b509392505050565b6103866107ed565b61038e610817565b61039a3384848461083b565b6103a46001600755565b505050565b606060048054806020026020016040519081016040528092919081815260200182805480156103f757602002820191906000526020600020905b8154815260200190600101908083116103e3575b5050505050905090565b6104096107ed565b610411610817565b3360009081526005602090815260408083208484529091529020546104755760405162461bcd60e51b81526020600482015260156024820152744e6f74207061637420666f7220776974686472617760581b60448201526064015b60405180910390fd5b33600081815260056020908152604080832085845290915281208054919055906104a29030908484610a62565b506104ad6001600755565b50565b6104b8610aec565b6104c26000610b19565b565b6105436040518061018001604052806000815260200160006001600160a01b0316815260200160006001600160a01b031681526020016000815260200160008152602001606081526020016000815260200160006001600160a01b03168152602001600081526020016000815260200160608152602001600081525090565b600080546040516024810185905282916001600160a01b03169060440160408051601f198184030181529181526020820180516001600160e01b031663e23aec7360e01b1790525161059591906117b0565b6000604051808303816000865af19150503d80600081146105d2576040519150601f19603f3d011682016040523d82523d6000602084013e6105d7565b606091505b5091509150816106205760405162461bcd60e51b8152602060048201526014602482015273115e1d195c9b985b0818d85b1b0819985a5b195960621b604482015260640161046c565b808060200190518101906106349190611931565b949350505050565b6106446107ed565b61064c610817565b6106568133610b6b565b6104ad6001600755565b610668610aec565b6104c2610bf0565b6106786107ed565b610680610817565b61068b338383610c4a565b6106956001600755565b5050565b6106a1610aec565b6104c2610e87565b6106b1610aec565b6001600160a01b0381166106fd5760405162461bcd60e51b815260206004820152601360248201527273657420636f7272656374204164647265737360681b604482015260640161046c565b600080546001600160a01b0319166001600160a01b0392909216919091179055565b6107276107ed565b61072f610817565b61068b338383610ec0565b610742610aec565b6001600160a01b03811661076c57604051631e4fbdf760e01b81526000600482015260240161046c565b6104ad81610b19565b600454600082815260016020526040812054909182911080156107c457506000838152600160205260409020546004805485929081106107b7576107b7611a45565b9060005260206000200154145b156107e057505060009081526001602081905260409091205491565b5060001992600092509050565b60026007540361081057604051633ee5aeb560e01b815260040160405180910390fd5b6002600755565b60065460ff16156104c25760405163d93c066560e01b815260040160405180910390fd5b826004838154811061084f5761084f611a45565b90600052602060002001541461089a5760405162461bcd60e51b815260206004820152601060248201526f50616374206e6f7420696e2073616c6560801b604482015260640161046c565b60006108a5846104c4565b6000858152600360205260409020549091506108f95760405162461bcd60e51b815260206004820152601360248201527250616374206973206f7574206f662073616c6560681b604482015260640161046c565b6000848152600360205260409020548211156109575760405162461bcd60e51b815260206004820152601c60248201527f446967697420636f727265637420616d6f756e7420666f722062757900000000604482015260640161046c565b610976816040015186308460600151866109719190611a71565b6110ce565b60008481526003602052604081208054849290610994908490611a88565b909155505060608101516109a89083611a71565b6020808301516001600160a01b03908116600090815260028352604080822081870151909316825291909252812080549091906109e6908490611a9b565b90915550506001600160a01b038516600090815260056020908152604080832087845290915281208054849290610a1e908490611a9b565b9091555050604051849083906001600160a01b038816907fcaf9b43e63e6fdc13dc0dc9defe7f27246012dacc752bafc5933b23f1ee91c5d90600090a45050505050565b60008054604051637921219560e11b81526001600160a01b0387811660048301528681166024830152604482018690526064820185905260a0608483015260a482019390935291169063f242432a9060c401600060405180830381600087803b158015610ace57600080fd5b505af1158015610ae2573d6000803e3d6000fd5b5050505050505050565b6008546001600160a01b031633146104c25760405163118cdaa760e01b815233600482015260240161046c565b600880546001600160a01b038381166001600160a01b0319831681179093556040519116919082907f8be0079c531659141344cd1fd0a4f28419497f9722a3daafe3b4186f6b6457e090600090a35050565b3360009081526002602090815260408083206001600160a01b038616845290915281208054919055610b9e8383836110e0565b826001600160a01b0316826001600160a01b03167f037238854fe57fbf51f09946f854fc3916fe83938d6521f09bd05463839f130483604051610be391815260200190565b60405180910390a3505050565b610bf8610817565b6006805460ff191660011790557f62e78cea01bee320cd4e420270b5ea74000d11b0c9f74754ebdbfc544b05a258610c2d3390565b6040516001600160a01b03909116815260200160405180910390a1565b8160048281548110610c5e57610c5e611a45565b906000526020600020015414610cb65760405162461bcd60e51b815260206004820152601960248201527f496e76616c696420696e64657820666f72207061637420494400000000000000604482015260640161046c565b6000610cc1836104c4565b9050836001600160a01b031681602001516001600160a01b031614610cf85760405162461bcd60e51b815260040161046c90611aae565b600083815260036020526040902054610d535760405162461bcd60e51b815260206004820152601d60248201527f50616374206973206e6f742063757272656e746c7920696e2073616c65000000604482015260640161046c565b600083815260036020526040812080549082905590610d7185610775565b9150508015610e435760048054610d8a90600190611a88565b81548110610d9a57610d9a611a45565b906000526020600020015460048581548110610db857610db8611a45565b6000918252602090912001556004805480610dd557610dd5611af7565b600082815260208082208301600019908101839055909201909255868252600190526040812055610e0830878785610a62565b60405185906001600160a01b038816907f0b16a9219a3f0d07c4175ca6a50fe11b64b6ff1c1faa1ce19ac00a7c4351dfe690600090a3610e7f565b60405162461bcd60e51b815260206004820152601160248201527050616374206e6f7420696e2073656c6c2160781b604482015260640161046c565b505050505050565b610e8f61113f565b6006805460ff191690557f5db9ee0a495bf2e6ff9c91a7834c1ba4fdd244a5e8aa4e537bd38aeae4b073aa33610c2d565b6000610ecb836104c4565b9050836001600160a01b031681602001516001600160a01b031614610f025760405162461bcd60e51b815260040161046c90611aae565b60008211610f475760405162461bcd60e51b815260206004820152601260248201527114d95d0818dbdc9c9958dd08185b5bdd5b9d60721b604482015260640161046c565b806101600151821115610f915760405162461bcd60e51b815260206004820152601260248201527114d95d0818dbdc9c9958dd08185b5bdd5b9d60721b604482015260640161046c565b610f9d84308585610a62565b600054604051627eeac760e11b8152306004820152602481018590526001600160a01b039091169062fdd58e90604401602060405180830381865afa158015610fea573d6000803e3d6000fd5b505050506040513d601f19601f8201168201806040525081019061100e9190611b0d565b60008481526003602052604081209190915561102984610775565b915050806110c757600480546001818101835560008390527f8a35acfbc15ff81a39ae7d344fd709f28e8600b4aa8c65c6b64bfe7fe36bd19b90910186905590546110749190611a88565b600085815260016020908152604091829020929092555184815285916001600160a01b038816917f3d590247e3cbddaf45c6d19f92cc35111b9b7ae98afb4583ac961bdccec48667910160405180910390a35b5050505050565b6110da84848484611162565b50505050565b6040516001600160a01b038381166024830152604482018390526103a491859182169063a9059cbb906064015b604051602081830303815290604052915060e01b6020820180516001600160e01b03838183161783525050505061119b565b60065460ff166104c257604051638dfc202b60e01b815260040160405180910390fd5b6040516001600160a01b0384811660248301528381166044830152606482018390526110da9186918216906323b872dd9060840161110d565b60006111b06001600160a01b038416836111fe565b905080516000141580156111d55750808060200190518101906111d39190611b26565b155b156103a457604051635274afe760e01b81526001600160a01b038416600482015260240161046c565b606061120c83836000611215565b90505b92915050565b60608147101561123a5760405163cd78605960e01b815230600482015260240161046c565b600080856001600160a01b0316848660405161125691906117b0565b60006040518083038185875af1925050503d8060008114611293576040519150601f19603f3d011682016040523d82523d6000602084013e611298565b606091505b50915091506112a88683836112b4565b925050505b9392505050565b6060826112c9576112c482611310565b6112ad565b81511580156112e057506001600160a01b0384163b155b1561130957604051639996b31560e01b81526001600160a01b038516600482015260240161046c565b50806112ad565b8051156113205780518082602001fd5b604051630a12f52160e11b815260040160405180910390fd5b60006020828403121561134b57600080fd5b5035919050565b6001600160a01b03811681146104ad57600080fd5b6000806040838503121561137a57600080fd5b823561138581611352565b9150602083013561139581611352565b809150509250929050565b6000806000606084860312156113b557600080fd5b505081359360208301359350604090920135919050565b6020808252825182820181905260009190848201906040850190845b81811015611404578351835292840192918401916001016113e8565b50909695505050505050565b6000806040838503121561142357600080fd5b823561142e81611352565b946020939093013593505050565b60008151808452602080850194506020840160005b8381101561146d57815187529582019590820190600101611451565b509495945050505050565b60005b8381101561149357818101518382015260200161147b565b50506000910152565b600081518084526114b4816020860160208601611478565b601f01601f19169290920160200192915050565b6020815281516020820152600060208301516114ef60408401826001600160a01b03169052565b5060408301516001600160a01b03811660608401525060608301516080830152608083015160a083015260a08301516101808060c08501526115356101a085018361143c565b915060c085015160e085015260e085015161010061155d818701836001600160a01b03169052565b8601516101208681019190915286015161014080870191909152860151858403601f190161016080880191909152909150611598848361149c565b9601519190940152509192915050565b6000602082840312156115ba57600080fd5b81356112ad81611352565b60008083601f8401126115d757600080fd5b50813567ffffffffffffffff8111156115ef57600080fd5b6020830191508360208260051b850101111561160a57600080fd5b9250929050565b60008083601f84011261162357600080fd5b50813567ffffffffffffffff81111561163b57600080fd5b60208301915083602082850101111561160a57600080fd5b60008060008060008060008060a0898b03121561166f57600080fd5b883561167a81611352565b9750602089013561168a81611352565b9650604089013567ffffffffffffffff808211156116a757600080fd5b6116b38c838d016115c5565b909850965060608b01359150808211156116cc57600080fd5b6116d88c838d016115c5565b909650945060808b01359150808211156116f157600080fd5b506116fe8b828c01611611565b999c989b5096995094979396929594505050565b6000806040838503121561172557600080fd5b50508035926020909101359150565b60008060008060008060a0878903121561174d57600080fd5b863561175881611352565b9550602087013561176881611352565b94506040870135935060608701359250608087013567ffffffffffffffff81111561179257600080fd5b61179e89828a01611611565b979a9699509497509295939492505050565b600082516117c2818460208701611478565b9190910192915050565b634e487b7160e01b600052604160045260246000fd5b604051610180810167ffffffffffffffff81118282101715611806576118066117cc565b60405290565b604051601f8201601f1916810167ffffffffffffffff81118282101715611835576118356117cc565b604052919050565b805161184881611352565b919050565b600082601f83011261185e57600080fd5b8151602067ffffffffffffffff82111561187a5761187a6117cc565b8160051b61188982820161180c565b92835284810182019282810190878511156118a357600080fd5b83870192505b848310156118c2578251825291830191908301906118a9565b979650505050505050565b600082601f8301126118de57600080fd5b815167ffffffffffffffff8111156118f8576118f86117cc565b61190b601f8201601f191660200161180c565b81815284602083860101111561192057600080fd5b610634826020830160208701611478565b60006020828403121561194357600080fd5b815167ffffffffffffffff8082111561195b57600080fd5b90830190610180828603121561197057600080fd5b6119786117e2565b825181526119886020840161183d565b60208201526119996040840161183d565b6040820152606083015160608201526080830151608082015260a0830151828111156119c457600080fd5b6119d08782860161184d565b60a08301525060c083015160c08201526119ec60e0840161183d565b60e0820152610100838101519082015261012080840151908201526101408084015183811115611a1b57600080fd5b611a27888287016118cd565b91830191909152506101609283015192810192909252509392505050565b634e487b7160e01b600052603260045260246000fd5b634e487b7160e01b600052601160045260246000fd5b808202811582820484141761120f5761120f611a5b565b8181038181111561120f5761120f611a5b565b8082018082111561120f5761120f611a5b565b60208082526029908201527f4f6e6c7920646562746f7220506163742063616e206c61756e6368207468697360408201526810333ab731ba34b7b760b91b606082015260800190565b634e487b7160e01b600052603160045260246000fd5b600060208284031215611b1f57600080fd5b5051919050565b600060208284031215611b3857600080fd5b815180151581146112ad57600080fdfea2646970667358221220501fa280c145def0134bf06a3272227558f23727c59cd66f858c93cfc257f72a64736f6c63430008180033",
  "linkReferences": {},
  "deployedLinkReferences": {}
}