{
  "_format": "hh-sol-artifact-1",
  "contractName": "PactContract",
  "sourceName": "contracts/Pact.sol",
  "abi": [
    {
      "inputs": [
        {
          "internalType": "address",
          "name": "_owner",
          "type": "address"
        },
        {
          "internalType": "address",
          "name": "_accountant",
          "type": "address"
        },
        {
          "internalType": "address",
          "name": "_Ihelperpact",
          "type": "address"
        }
      ],
      "stateMutability": "nonpayable",
      "type": "constructor"
    },
    {
      "inputs": [],
      "name": "AccessControlBadConfirmation",
      "type": "error"
    },
    {
      "inputs": [
        {
          "internalType": "address",
          "name": "account",
          "type": "address"
        },
        {
          "internalType": "bytes32",
          "name": "neededRole",
          "type": "bytes32"
        }
      ],
      "name": "AccessControlUnauthorizedAccount",
      "type": "error"
    },
    {
      "inputs": [
        {
          "internalType": "address",
          "name": "target",
          "type": "address"
        }
      ],
      "name": "AddressEmptyCode",
      "type": "error"
    },
    {
      "inputs": [
        {
          "internalType": "address",
          "name": "account",
          "type": "address"
        }
      ],
      "name": "AddressInsufficientBalance",
      "type": "error"
    },
    {
      "inputs": [
        {
          "internalType": "address",
          "name": "sender",
          "type": "address"
        },
        {
          "internalType": "uint256",
          "name": "balance",
          "type": "uint256"
        },
        {
          "internalType": "uint256",
          "name": "needed",
          "type": "uint256"
        },
        {
          "internalType": "uint256",
          "name": "tokenId",
          "type": "uint256"
        }
      ],
      "name": "ERC1155InsufficientBalance",
      "type": "error"
    },
    {
      "inputs": [
        {
          "internalType": "address",
          "name": "approver",
          "type": "address"
        }
      ],
      "name": "ERC1155InvalidApprover",
      "type": "error"
    },
    {
      "inputs": [
        {
          "internalType": "uint256",
          "name": "idsLength",
          "type": "uint256"
        },
        {
          "internalType": "uint256",
          "name": "valuesLength",
          "type": "uint256"
        }
      ],
      "name": "ERC1155InvalidArrayLength",
      "type": "error"
    },
    {
      "inputs": [
        {
          "internalType": "address",
          "name": "operator",
          "type": "address"
        }
      ],
      "name": "ERC1155InvalidOperator",
      "type": "error"
    },
    {
      "inputs": [
        {
          "internalType": "address",
          "name": "receiver",
          "type": "address"
        }
      ],
      "name": "ERC1155InvalidReceiver",
      "type": "error"
    },
    {
      "inputs": [
        {
          "internalType": "address",
          "name": "sender",
          "type": "address"
        }
      ],
      "name": "ERC1155InvalidSender",
      "type": "error"
    },
    {
      "inputs": [
        {
          "internalType": "address",
          "name": "operator",
          "type": "address"
        },
        {
          "internalType": "address",
          "name": "owner",
          "type": "address"
        }
      ],
      "name": "ERC1155MissingApprovalForAll",
      "type": "error"
    },
    {
      "inputs": [],
      "name": "EnforcedPause",
      "type": "error"
    },
    {
      "inputs": [],
      "name": "ExpectedPause",
      "type": "error"
    },
    {
      "inputs": [],
      "name": "FailedInnerCall",
      "type": "error"
    },
    {
      "inputs": [],
      "name": "ReentrancyGuardReentrantCall",
      "type": "error"
    },
    {
      "inputs": [
        {
          "internalType": "address",
          "name": "token",
          "type": "address"
        }
      ],
      "name": "SafeERC20FailedOperation",
      "type": "error"
    },
    {
      "anonymous": false,
      "inputs": [
        {
          "indexed": true,
          "internalType": "address",
          "name": "account",
          "type": "address"
        },
        {
          "indexed": true,
          "internalType": "address",
          "name": "operator",
          "type": "address"
        },
        {
          "indexed": false,
          "internalType": "bool",
          "name": "approved",
          "type": "bool"
        }
      ],
      "name": "ApprovalForAll",
      "type": "event"
    },
    {
      "anonymous": false,
      "inputs": [
        {
          "indexed": true,
          "internalType": "address",
          "name": "debtor",
          "type": "address"
        },
        {
          "indexed": true,
          "internalType": "uint256",
          "name": "id",
          "type": "uint256"
        },
        {
          "indexed": false,
          "internalType": "uint256",
          "name": "amount",
          "type": "uint256"
        }
      ],
      "name": "CollateralDeposited",
      "type": "event"
    },
    {
      "anonymous": false,
      "inputs": [
        {
          "indexed": true,
          "internalType": "address",
          "name": "debtor",
          "type": "address"
        },
        {
          "indexed": true,
          "internalType": "uint256",
          "name": "id",
          "type": "uint256"
        },
        {
          "indexed": false,
          "internalType": "uint256",
          "name": "amount",
          "type": "uint256"
        }
      ],
      "name": "CollateralWithdrawn",
      "type": "event"
    },
    {
      "anonymous": false,
      "inputs": [
        {
          "indexed": true,
          "internalType": "address",
          "name": "debtor",
          "type": "address"
        },
        {
          "indexed": true,
          "internalType": "uint256",
          "name": "id",
          "type": "uint256"
        },
        {
          "indexed": false,
          "internalType": "uint256",
          "name": "amount",
          "type": "uint256"
        }
      ],
      "name": "InterestDeposited",
      "type": "event"
    },
    {
      "anonymous": false,
      "inputs": [
        {
          "indexed": true,
          "internalType": "uint256",
          "name": "id",
          "type": "uint256"
        },
        {
          "indexed": false,
          "internalType": "uint256",
          "name": "amount",
          "type": "uint256"
        }
      ],
      "name": "LiquidationPact",
      "type": "event"
    },
    {
      "anonymous": false,
      "inputs": [
        {
          "indexed": true,
          "internalType": "address",
          "name": "user",
          "type": "address"
        },
        {
          "indexed": true,
          "internalType": "uint256",
          "name": "id",
          "type": "uint256"
        },
        {
          "indexed": true,
          "internalType": "uint256",
          "name": "amount",
          "type": "uint256"
        }
      ],
      "name": "LiquidationReward",
      "type": "event"
    },
    {
      "anonymous": false,
      "inputs": [
        {
          "indexed": true,
          "internalType": "address",
          "name": "user",
          "type": "address"
        },
        {
          "indexed": true,
          "internalType": "uint256",
          "name": "id",
          "type": "uint256"
        },
        {
          "indexed": false,
          "internalType": "uint256",
          "name": "amount",
          "type": "uint256"
        }
      ],
      "name": "LiquitationCollateralPactExpired",
      "type": "event"
    },
    {
      "anonymous": false,
      "inputs": [
        {
          "indexed": true,
          "internalType": "address",
          "name": "user",
          "type": "address"
        },
        {
          "indexed": true,
          "internalType": "uint256",
          "name": "id",
          "type": "uint256"
        },
        {
          "indexed": false,
          "internalType": "uint256",
          "name": "amount",
          "type": "uint256"
        }
      ],
      "name": "LoanClaimed",
      "type": "event"
    },
    {
      "anonymous": false,
      "inputs": [
        {
          "indexed": true,
          "internalType": "uint256",
          "name": "id",
          "type": "uint256"
        },
        {
          "indexed": true,
          "internalType": "address",
          "name": "debtor",
          "type": "address"
        },
        {
          "indexed": false,
          "internalType": "uint256",
          "name": "amount",
          "type": "uint256"
        }
      ],
      "name": "PactCreated",
      "type": "event"
    },
    {
      "anonymous": false,
      "inputs": [
        {
          "indexed": true,
          "internalType": "address",
          "name": "token",
          "type": "address"
        },
        {
          "indexed": true,
          "internalType": "uint256",
          "name": "amount",
          "type": "uint256"
        }
      ],
      "name": "PaidFeeAtContract",
      "type": "event"
    },
    {
      "anonymous": false,
      "inputs": [
        {
          "indexed": false,
          "internalType": "address",
          "name": "account",
          "type": "address"
        }
      ],
      "name": "Paused",
      "type": "event"
    },
    {
      "anonymous": false,
      "inputs": [
        {
          "indexed": true,
          "internalType": "address",
          "name": "user",
          "type": "address"
        },
        {
          "indexed": true,
          "internalType": "uint256",
          "name": "id",
          "type": "uint256"
        },
        {
          "indexed": false,
          "internalType": "uint256",
          "name": "amount",
          "type": "uint256"
        }
      ],
      "name": "RewardClaimed",
      "type": "event"
    },
    {
      "anonymous": false,
      "inputs": [
        {
          "indexed": true,
          "internalType": "bytes32",
          "name": "role",
          "type": "bytes32"
        },
        {
          "indexed": true,
          "internalType": "bytes32",
          "name": "previousAdminRole",
          "type": "bytes32"
        },
        {
          "indexed": true,
          "internalType": "bytes32",
          "name": "newAdminRole",
          "type": "bytes32"
        }
      ],
      "name": "RoleAdminChanged",
      "type": "event"
    },
    {
      "anonymous": false,
      "inputs": [
        {
          "indexed": true,
          "internalType": "bytes32",
          "name": "role",
          "type": "bytes32"
        },
        {
          "indexed": true,
          "internalType": "address",
          "name": "account",
          "type": "address"
        },
        {
          "indexed": true,
          "internalType": "address",
          "name": "sender",
          "type": "address"
        }
      ],
      "name": "RoleGranted",
      "type": "event"
    },
    {
      "anonymous": false,
      "inputs": [
        {
          "indexed": true,
          "internalType": "bytes32",
          "name": "role",
          "type": "bytes32"
        },
        {
          "indexed": true,
          "internalType": "address",
          "name": "account",
          "type": "address"
        },
        {
          "indexed": true,
          "internalType": "address",
          "name": "sender",
          "type": "address"
        }
      ],
      "name": "RoleRevoked",
      "type": "event"
    },
    {
      "anonymous": false,
      "inputs": [
        {
          "indexed": true,
          "internalType": "address",
          "name": "from",
          "type": "address"
        },
        {
          "indexed": true,
          "internalType": "address",
          "name": "to",
          "type": "address"
        },
        {
          "indexed": false,
          "internalType": "uint256[]",
          "name": "ids",
          "type": "uint256[]"
        },
        {
          "indexed": false,
          "internalType": "uint256[]",
          "name": "values",
          "type": "uint256[]"
        }
      ],
      "name": "SafeBatchTransferFrom",
      "type": "event"
    },
    {
      "anonymous": false,
      "inputs": [
        {
          "indexed": true,
          "internalType": "address",
          "name": "from",
          "type": "address"
        },
        {
          "indexed": true,
          "internalType": "address",
          "name": "to",
          "type": "address"
        },
        {
          "indexed": true,
          "internalType": "uint256",
          "name": "id",
          "type": "uint256"
        },
        {
          "indexed": false,
          "internalType": "uint256",
          "name": "value",
          "type": "uint256"
        }
      ],
      "name": "SafeTransferFrom",
      "type": "event"
    },
    {
      "anonymous": false,
      "inputs": [
        {
          "indexed": true,
          "internalType": "address",
          "name": "debtor",
          "type": "address"
        },
        {
          "indexed": false,
          "internalType": "uint256",
          "name": "newScore",
          "type": "uint256"
        }
      ],
      "name": "ScoreUpdated",
      "type": "event"
    },
    {
      "anonymous": false,
      "inputs": [
        {
          "indexed": true,
          "internalType": "address",
          "name": "operator",
          "type": "address"
        },
        {
          "indexed": true,
          "internalType": "address",
          "name": "from",
          "type": "address"
        },
        {
          "indexed": true,
          "internalType": "address",
          "name": "to",
          "type": "address"
        },
        {
          "indexed": false,
          "internalType": "uint256[]",
          "name": "ids",
          "type": "uint256[]"
        },
        {
          "indexed": false,
          "internalType": "uint256[]",
          "name": "values",
          "type": "uint256[]"
        }
      ],
      "name": "TransferBatch",
      "type": "event"
    },
    {
      "anonymous": false,
      "inputs": [
        {
          "indexed": true,
          "internalType": "address",
          "name": "operator",
          "type": "address"
        },
        {
          "indexed": true,
          "internalType": "address",
          "name": "from",
          "type": "address"
        },
        {
          "indexed": true,
          "internalType": "address",
          "name": "to",
          "type": "address"
        },
        {
          "indexed": false,
          "internalType": "uint256",
          "name": "id",
          "type": "uint256"
        },
        {
          "indexed": false,
          "internalType": "uint256",
          "name": "value",
          "type": "uint256"
        }
      ],
      "name": "TransferSingle",
      "type": "event"
    },
    {
      "anonymous": false,
      "inputs": [
        {
          "indexed": false,
          "internalType": "string",
          "name": "value",
          "type": "string"
        },
        {
          "indexed": true,
          "internalType": "uint256",
          "name": "id",
          "type": "uint256"
        }
      ],
      "name": "URI",
      "type": "event"
    },
    {
      "anonymous": false,
      "inputs": [
        {
          "indexed": false,
          "internalType": "address",
          "name": "account",
          "type": "address"
        }
      ],
      "name": "Unpaused",
      "type": "event"
    },
    {
      "anonymous": false,
      "inputs": [
        {
          "indexed": true,
          "internalType": "address",
          "name": "token",
          "type": "address"
        },
        {
          "indexed": true,
          "internalType": "uint256",
          "name": "amount",
          "type": "uint256"
        }
      ],
      "name": "WitrawBalanceContracr",
      "type": "event"
    },
    {
      "inputs": [],
      "name": "ACCOUNTANT_ROLE",
      "outputs": [
        {
          "internalType": "bytes32",
          "name": "",
          "type": "bytes32"
        }
      ],
      "stateMutability": "view",
      "type": "function"
    },
    {
      "inputs": [],
      "name": "DEFAULT_ADMIN_ROLE",
      "outputs": [
        {
          "internalType": "bytes32",
          "name": "",
          "type": "bytes32"
        }
      ],
      "stateMutability": "view",
      "type": "function"
    },
    {
      "inputs": [],
      "name": "OWNER_ROLE",
      "outputs": [
        {
          "internalType": "bytes32",
          "name": "",
          "type": "bytes32"
        }
      ],
      "stateMutability": "view",
      "type": "function"
    },
    {
      "inputs": [
        {
          "internalType": "address",
          "name": "account",
          "type": "address"
        },
        {
          "internalType": "uint256",
          "name": "id",
          "type": "uint256"
        }
      ],
      "name": "balanceOf",
      "outputs": [
        {
          "internalType": "uint256",
          "name": "",
          "type": "uint256"
        }
      ],
      "stateMutability": "view",
      "type": "function"
    },
    {
      "inputs": [
        {
          "internalType": "address[]",
          "name": "accounts",
          "type": "address[]"
        },
        {
          "internalType": "uint256[]",
          "name": "ids",
          "type": "uint256[]"
        }
      ],
      "name": "balanceOfBatch",
      "outputs": [
        {
          "internalType": "uint256[]",
          "name": "",
          "type": "uint256[]"
        }
      ],
      "stateMutability": "view",
      "type": "function"
    },
    {
      "inputs": [
        {
          "internalType": "address",
          "name": "_iusser",
          "type": "address"
        }
      ],
      "name": "checkStatusPoints",
      "outputs": [
        {
          "components": [
            {
              "internalType": "uint16[3]",
              "name": "penalityForLiquidation",
              "type": "uint16[3]"
            },
            {
              "internalType": "uint256",
              "name": "score",
              "type": "uint256"
            }
          ],
          "internalType": "struct PactStorage.ConditionOfFee",
          "name": "",
          "type": "tuple"
        }
      ],
      "stateMutability": "view",
      "type": "function"
    },
    {
      "inputs": [
        {
          "internalType": "uint256",
          "name": "_id",
          "type": "uint256"
        },
        {
          "internalType": "uint256",
          "name": "_amount",
          "type": "uint256"
        }
      ],
      "name": "claimLoan",
      "outputs": [],
      "stateMutability": "nonpayable",
      "type": "function"
    },
    {
      "inputs": [
        {
          "internalType": "uint256",
          "name": "_id",
          "type": "uint256"
        },
        {
          "internalType": "uint8",
          "name": "_indexReward",
          "type": "uint8"
        }
      ],
      "name": "claimRewardForUSer",
      "outputs": [],
      "stateMutability": "nonpayable",
      "type": "function"
    },
    {
      "inputs": [
        {
          "internalType": "uint256",
          "name": "_id",
          "type": "uint256"
        }
      ],
      "name": "claimScorePoint",
      "outputs": [],
      "stateMutability": "nonpayable",
      "type": "function"
    },
    {
      "inputs": [
        {
          "internalType": "address",
          "name": "_tokenLoan",
          "type": "address"
        },
        {
          "internalType": "uint256",
          "name": "_sizeLoan",
          "type": "uint256"
        },
        {
          "internalType": "uint256",
          "name": "_interest",
          "type": "uint256"
        },
        {
          "internalType": "uint64[]",
          "name": "_rewardMaturity",
          "type": "uint64[]"
        },
        {
          "internalType": "uint64",
          "name": "_expiredPact",
          "type": "uint64"
        },
        {
          "internalType": "address",
          "name": "_tokenCollateral",
          "type": "address"
        },
        {
          "internalType": "uint256",
          "name": "_collateral",
          "type": "uint256"
        },
        {
          "internalType": "uint256",
          "name": "_amount",
          "type": "uint256"
        },
        {
          "internalType": "string",
          "name": "_describes",
          "type": "string"
        }
      ],
      "name": "createNewPact",
      "outputs": [],
      "stateMutability": "nonpayable",
      "type": "function"
    },
    {
      "inputs": [
        {
          "internalType": "uint256",
          "name": "_id",
          "type": "uint256"
        },
        {
          "internalType": "uint256",
          "name": "_amount",
          "type": "uint256"
        }
      ],
      "name": "depositTokenForInterest",
      "outputs": [],
      "stateMutability": "nonpayable",
      "type": "function"
    },
    {
      "inputs": [
        {
          "internalType": "address",
          "name": "_tokenAddress",
          "type": "address"
        }
      ],
      "name": "getContractFeeBalance",
      "outputs": [
        {
          "internalType": "uint256",
          "name": "",
          "type": "uint256"
        }
      ],
      "stateMutability": "view",
      "type": "function"
    },
    {
      "inputs": [
        {
          "internalType": "uint256",
          "name": "_id",
          "type": "uint256"
        }
      ],
      "name": "getMaxQtaInterest",
      "outputs": [
        {
          "internalType": "uint256",
          "name": "",
          "type": "uint256"
        }
      ],
      "stateMutability": "view",
      "type": "function"
    },
    {
      "inputs": [
        {
          "internalType": "uint256",
          "name": "_id",
          "type": "uint256"
        }
      ],
      "name": "getMissQtaInterest",
      "outputs": [
        {
          "internalType": "uint256",
          "name": "",
          "type": "uint256"
        }
      ],
      "stateMutability": "view",
      "type": "function"
    },
    {
      "inputs": [
        {
          "internalType": "bytes32",
          "name": "role",
          "type": "bytes32"
        }
      ],
      "name": "getRoleAdmin",
      "outputs": [
        {
          "internalType": "bytes32",
          "name": "",
          "type": "bytes32"
        }
      ],
      "stateMutability": "view",
      "type": "function"
    },
    {
      "inputs": [
        {
          "internalType": "bytes32",
          "name": "role",
          "type": "bytes32"
        },
        {
          "internalType": "address",
          "name": "account",
          "type": "address"
        }
      ],
      "name": "grantRole",
      "outputs": [],
      "stateMutability": "nonpayable",
      "type": "function"
    },
    {
      "inputs": [
        {
          "internalType": "bytes32",
          "name": "role",
          "type": "bytes32"
        },
        {
          "internalType": "address",
          "name": "account",
          "type": "address"
        }
      ],
      "name": "hasRole",
      "outputs": [
        {
          "internalType": "bool",
          "name": "",
          "type": "bool"
        }
      ],
      "stateMutability": "view",
      "type": "function"
    },
    {
      "inputs": [
        {
          "internalType": "address",
          "name": "account",
          "type": "address"
        },
        {
          "internalType": "address",
          "name": "operator",
          "type": "address"
        }
      ],
      "name": "isApprovedForAll",
      "outputs": [
        {
          "internalType": "bool",
          "name": "",
          "type": "bool"
        }
      ],
      "stateMutability": "view",
      "type": "function"
    },
    {
      "inputs": [],
      "name": "paused",
      "outputs": [
        {
          "internalType": "bool",
          "name": "",
          "type": "bool"
        }
      ],
      "stateMutability": "view",
      "type": "function"
    },
    {
      "inputs": [
        {
          "internalType": "bytes32",
          "name": "role",
          "type": "bytes32"
        },
        {
          "internalType": "address",
          "name": "callerConfirmation",
          "type": "address"
        }
      ],
      "name": "renounceRole",
      "outputs": [],
      "stateMutability": "nonpayable",
      "type": "function"
    },
    {
      "inputs": [
        {
          "internalType": "bytes32",
          "name": "role",
          "type": "bytes32"
        },
        {
          "internalType": "address",
          "name": "account",
          "type": "address"
        }
      ],
      "name": "revokeRole",
      "outputs": [],
      "stateMutability": "nonpayable",
      "type": "function"
    },
    {
      "inputs": [
        {
          "internalType": "address",
          "name": "from",
          "type": "address"
        },
        {
          "internalType": "address",
          "name": "to",
          "type": "address"
        },
        {
          "internalType": "uint256[]",
          "name": "ids",
          "type": "uint256[]"
        },
        {
          "internalType": "uint256[]",
          "name": "amounts",
          "type": "uint256[]"
        },
        {
          "internalType": "bytes",
          "name": "data",
          "type": "bytes"
        }
      ],
      "name": "safeBatchTransferFrom",
      "outputs": [],
      "stateMutability": "nonpayable",
      "type": "function"
    },
    {
      "inputs": [
        {
          "internalType": "address",
          "name": "from",
          "type": "address"
        },
        {
          "internalType": "address",
          "name": "to",
          "type": "address"
        },
        {
          "internalType": "uint256",
          "name": "id",
          "type": "uint256"
        },
        {
          "internalType": "uint256",
          "name": "amount",
          "type": "uint256"
        },
        {
          "internalType": "bytes",
          "name": "data",
          "type": "bytes"
        }
      ],
      "name": "safeTransferFrom",
      "outputs": [],
      "stateMutability": "nonpayable",
      "type": "function"
    },
    {
      "inputs": [
        {
          "internalType": "address",
          "name": "operator",
          "type": "address"
        },
        {
          "internalType": "bool",
          "name": "approved",
          "type": "bool"
        }
      ],
      "name": "setApprovalForAll",
      "outputs": [],
      "stateMutability": "nonpayable",
      "type": "function"
    },
    {
      "inputs": [
        {
          "internalType": "uint16",
          "name": "_fee",
          "type": "uint16"
        }
      ],
      "name": "setCOUPON_FEE",
      "outputs": [],
      "stateMutability": "nonpayable",
      "type": "function"
    },
    {
      "inputs": [
        {
          "internalType": "address",
          "name": "_contract",
          "type": "address"
        },
        {
          "internalType": "bool",
          "name": "_state",
          "type": "bool"
        }
      ],
      "name": "setEcosistemAddress",
      "outputs": [],
      "stateMutability": "nonpayable",
      "type": "function"
    },
    {
      "inputs": [],
      "name": "setInPause",
      "outputs": [],
      "stateMutability": "nonpayable",
      "type": "function"
    },
    {
      "inputs": [
        {
          "internalType": "uint8",
          "name": "_MAX_COUPONS",
          "type": "uint8"
        }
      ],
      "name": "setMAX_COUPONS",
      "outputs": [],
      "stateMutability": "nonpayable",
      "type": "function"
    },
    {
      "inputs": [
        {
          "internalType": "uint256",
          "name": "_fee",
          "type": "uint256"
        }
      ],
      "name": "setTransfertFee",
      "outputs": [],
      "stateMutability": "nonpayable",
      "type": "function"
    },
    {
      "inputs": [
        {
          "internalType": "address",
          "name": "_address",
          "type": "address"
        }
      ],
      "name": "setTreasuryAddress",
      "outputs": [],
      "stateMutability": "nonpayable",
      "type": "function"
    },
    {
      "inputs": [],
      "name": "setUnPause",
      "outputs": [],
      "stateMutability": "nonpayable",
      "type": "function"
    },
    {
      "inputs": [
        {
          "internalType": "address",
          "name": "_address",
          "type": "address"
        }
      ],
      "name": "setWETHaddress",
      "outputs": [],
      "stateMutability": "nonpayable",
      "type": "function"
    },
    {
      "inputs": [
        {
          "internalType": "address",
          "name": "_address",
          "type": "address"
        }
      ],
      "name": "setlauncherContract",
      "outputs": [],
      "stateMutability": "nonpayable",
      "type": "function"
    },
    {
      "inputs": [],
      "name": "showCouponFee",
      "outputs": [
        {
          "internalType": "uint256",
          "name": "",
          "type": "uint256"
        }
      ],
      "stateMutability": "view",
      "type": "function"
    },
    {
      "inputs": [
        {
          "internalType": "uint256",
          "name": "_id",
          "type": "uint256"
        }
      ],
      "name": "showDeatailPactForId",
      "outputs": [
        {
          "components": [
            {
              "internalType": "uint256",
              "name": "id",
              "type": "uint256"
            },
            {
              "internalType": "address",
              "name": "debtor",
              "type": "address"
            },
            {
              "internalType": "address",
              "name": "tokenLoan",
              "type": "address"
            },
            {
              "internalType": "uint256",
              "name": "sizeLoan",
              "type": "uint256"
            },
            {
              "internalType": "uint256",
              "name": "interest",
              "type": "uint256"
            },
            {
              "internalType": "uint64[]",
              "name": "rewardMaturity",
              "type": "uint64[]"
            },
            {
              "internalType": "uint64",
              "name": "expiredPact",
              "type": "uint64"
            },
            {
              "internalType": "address",
              "name": "tokenCollateral",
              "type": "address"
            },
            {
              "internalType": "uint256",
              "name": "collateral",
              "type": "uint256"
            },
            {
              "internalType": "uint256",
              "name": "balancLoanRepay",
              "type": "uint256"
            },
            {
              "internalType": "string",
              "name": "describes",
              "type": "string"
            },
            {
              "internalType": "uint256",
              "name": "amount",
              "type": "uint256"
            }
          ],
          "internalType": "struct PactStorage.Pact",
          "name": "",
          "type": "tuple"
        }
      ],
      "stateMutability": "view",
      "type": "function"
    },
    {
      "inputs": [
        {
          "internalType": "address",
          "name": "_contract",
          "type": "address"
        }
      ],
      "name": "showEcosistemAddressState",
      "outputs": [
        {
          "internalType": "bool",
          "name": "",
          "type": "bool"
        }
      ],
      "stateMutability": "view",
      "type": "function"
    },
    {
      "inputs": [],
      "name": "showLauncherContract",
      "outputs": [
        {
          "internalType": "address",
          "name": "",
          "type": "address"
        }
      ],
      "stateMutability": "view",
      "type": "function"
    },
    {
      "inputs": [],
      "name": "showLiquidationFees",
      "outputs": [
        {
          "internalType": "uint16[4]",
          "name": "",
          "type": "uint16[4]"
        }
      ],
      "stateMutability": "view",
      "type": "function"
    },
    {
      "inputs": [],
      "name": "showTransfertFee",
      "outputs": [
        {
          "internalType": "uint256",
          "name": "",
          "type": "uint256"
        }
      ],
      "stateMutability": "view",
      "type": "function"
    },
    {
      "inputs": [],
      "name": "showWETHaddress",
      "outputs": [
        {
          "internalType": "address",
          "name": "",
          "type": "address"
        }
      ],
      "stateMutability": "view",
      "type": "function"
    },
    {
      "inputs": [
        {
          "internalType": "bytes4",
          "name": "interfaceId",
          "type": "bytes4"
        }
      ],
      "name": "supportsInterface",
      "outputs": [
        {
          "internalType": "bool",
          "name": "",
          "type": "bool"
        }
      ],
      "stateMutability": "view",
      "type": "function"
    },
    {
      "inputs": [
        {
          "internalType": "uint256",
          "name": "id",
          "type": "uint256"
        }
      ],
      "name": "totalSupply",
      "outputs": [
        {
          "internalType": "uint256",
          "name": "",
          "type": "uint256"
        }
      ],
      "stateMutability": "view",
      "type": "function"
    },
    {
      "inputs": [
        {
          "internalType": "uint256",
          "name": "_index",
          "type": "uint256"
        },
        {
          "internalType": "uint16",
          "name": "_value",
          "type": "uint16"
        }
      ],
      "name": "updateLiquidationFee",
      "outputs": [],
      "stateMutability": "nonpayable",
      "type": "function"
    },
    {
      "inputs": [
        {
          "internalType": "uint16[4]",
          "name": "_newFees",
          "type": "uint16[4]"
        }
      ],
      "name": "updateLiquidationFees",
      "outputs": [],
      "stateMutability": "nonpayable",
      "type": "function"
    },
    {
      "inputs": [
        {
          "internalType": "uint256",
          "name": "category",
          "type": "uint256"
        },
        {
          "internalType": "uint16[3]",
          "name": "newPenalties",
          "type": "uint16[3]"
        }
      ],
      "name": "updatePenalties",
      "outputs": [],
      "stateMutability": "nonpayable",
      "type": "function"
    },
    {
      "inputs": [
        {
          "internalType": "uint256",
          "name": "",
          "type": "uint256"
        }
      ],
      "name": "uri",
      "outputs": [
        {
          "internalType": "string",
          "name": "",
          "type": "string"
        }
      ],
      "stateMutability": "view",
      "type": "function"
    },
    {
      "inputs": [],
      "name": "viewPactID",
      "outputs": [
        {
          "internalType": "uint256",
          "name": "",
          "type": "uint256"
        }
      ],
      "stateMutability": "view",
      "type": "function"
    },
    {
      "inputs": [
        {
          "internalType": "uint256",
          "name": "category",
          "type": "uint256"
        }
      ],
      "name": "viewPenalties",
      "outputs": [
        {
          "internalType": "uint16[3]",
          "name": "",
          "type": "uint16[3]"
        }
      ],
      "stateMutability": "view",
      "type": "function"
    },
    {
      "inputs": [
        {
          "internalType": "uint256",
          "name": "_id",
          "type": "uint256"
        }
      ],
      "name": "withdrawCollateral",
      "outputs": [],
      "stateMutability": "nonpayable",
      "type": "function"
    },
    {
      "inputs": [
        {
          "internalType": "address",
          "name": "_tokenAddress",
          "type": "address"
        }
      ],
      "name": "withdrawContractBalance",
      "outputs": [],
      "stateMutability": "nonpayable",
      "type": "function"
    }
  ],
  "bytecode": "0x6005805461ffff19168117815561012060405260a0908152600f60c052601e60e05260326101005262000037906006906004620002aa565b50604080516060810182526064815260c86020820152610190918101919091526200006790600790600362000346565b5060408051606081018252603281526064602082015260c8918101919091526200009690600890600362000346565b506040805160608101825260c88152610190602082015261025891810191909152620000c790600990600362000346565b506040805160608101825261011881526101c260208201526102d091810191909152620000f990600a90600362000346565b503480156200010757600080fd5b5060405162005dfb38038062005dfb8339810160408190526200012a91620003d3565b6040805160208101909152600081526200014481620001e5565b50601d805460ff191690556001601e556002805460ff60a01b1916600360a11b1790556001600160a01b03811660805262000181600084620001f7565b50620001ae7f369da55721ba2b3acddd63aac7d6512c3e5762a78fa01c44f423f97868330c3483620001f7565b50620001db7fb19546dff01e856fb3f010c267a7b1c60363cf8a4664e21cc89c26224620214e84620001f7565b5050505062000590565b601c620001f38282620004c4565b5050565b6000828152601f602090815260408083206001600160a01b038516845290915281205460ff16620002a0576000838152601f602090815260408083206001600160a01b03861684529091529020805460ff19166001179055620002573390565b6001600160a01b0316826001600160a01b0316847f2f8788117e7eff1d82e926ec794901d17c78024a50270940304540a733656f0d60405160405180910390a4506001620002a4565b5060005b92915050565b600183019183908215620003345791602002820160005b838211156200030257835183826101000a81548161ffff021916908360ff1602179055509260200192600201602081600101049283019260010302620002c1565b8015620003325782816101000a81549061ffff021916905560020160208160010104928301926001030262000302565b505b50620003429291506200039f565b5090565b600183019183908215620003345791602002820160005b838211156200030257835183826101000a81548161ffff021916908361ffff16021790555092602001926002016020816001010492830192600103026200035d565b5b80821115620003425760008155600101620003a0565b80516001600160a01b0381168114620003ce57600080fd5b919050565b600080600060608486031215620003e957600080fd5b620003f484620003b6565b92506200040460208501620003b6565b91506200041460408501620003b6565b90509250925092565b634e487b7160e01b600052604160045260246000fd5b600181811c908216806200044857607f821691505b6020821081036200046957634e487b7160e01b600052602260045260246000fd5b50919050565b601f821115620004bf576000816000526020600020601f850160051c810160208610156200049a5750805b601f850160051c820191505b81811015620004bb57828155600101620004a6565b5050505b505050565b81516001600160401b03811115620004e057620004e06200041d565b620004f881620004f1845462000433565b846200046f565b602080601f831160018114620005305760008415620005175750858301515b600019600386901b1c1916600185901b178555620004bb565b600085815260208120601f198616915b82811015620005615788860151825594840194600190910190840162000540565b5085821015620005805787850151600019600388901b60f8161c191681555b5050505050600190811b01905550565b60805161584f620005ac60003960006115d3015261584f6000f3fe608060405234801561001057600080fd5b50600436106102d55760003560e01c80638527347511610182578063bf811942116100e9578063dd67469b116100a2578063e58378bb1161007c578063e58378bb146106e1578063e985e9c5146106f6578063f242432a14610709578063f78af7531461071c57600080fd5b8063dd67469b14610682578063e011cdfc14610695578063e23aec73146106c157600080fd5b8063bf81194214610628578063c0c2876f14610630578063c537a1b114610643578063d547741f1461064b578063da1ee3421461065e578063dbb416e41461067157600080fd5b8063a2c5dcab1161013b578063a2c5dcab14610593578063a9ea109f146105a6578063ab1efbab146105b9578063aebe80e1146105e0578063b3c5606614610600578063bd85b0391461060857600080fd5b8063852734751461051a5780638847f2791461053f57806391d1485414610552578063a0e5f6d214610565578063a217fddf14610578578063a22cb4651461058057600080fd5b80632eb2c2d61161024157806340ede5aa116101fa5780635c975abb116101d45780635c975abb146104d65780636112fe2e146104e157806364c0c475146104f45780636605bfda1461050757600080fd5b806340ede5aa146104905780634e1273f4146104a357806357fbb9df146104c357600080fd5b80632eb2c2d6146104255780632f2ff15d14610438578063301650671461044b5780633044df1e1461045757806331b2cd481461046a57806336568abe1461047d57600080fd5b806313b9b07a1161029357806313b9b07a1461038b57806314c01f14146103b457806321544b7a146103bc578063248a9ca3146103dc5780632d566347146103ff5780632eafe1501461041257600080fd5b8062fdd58e146102da57806301ffc9a71461030057806309750d87146103235780630d9fa5b7146103385780630e89341c1461034b578063126d6bb11461036b575b600080fd5b6102ed6102e83660046149bf565b610731565b6040519081526020015b60405180910390f35b61031361030e3660046149ff565b61075b565b60405190151581526020016102f7565b610336610331366004614a1c565b610766565b005b610336610346366004614a35565b61084e565b61035e610359366004614a1c565b610869565b6040516102f79190614aa7565b61037e610379366004614aba565b6108fd565b6040516102f79190614ad5565b6102ed610399366004614aba565b6001600160a01b031660009081526016602052604090205490565b6004546102ed565b6102ed6103ca366004614a1c565b60009081526018602052604090205490565b6102ed6103ea366004614a1c565b6000908152601f602052604090206001015490565b61033661040d366004614b6e565b61098d565b610336610420366004614bff565b610ae4565b610336610433366004614d2c565b610bbf565b610336610446366004614dd5565b610ebd565b60055461ffff166102ed565b610336610465366004614aba565b610ee2565b610336610478366004614a35565b610f45565b61033661048b366004614dd5565b610f60565b61033661049e366004614e09565b610f98565b6104b66104b1366004614e24565b610fd1565b6040516102f79190614f1f565b6103366104d1366004614aba565b61109d565b601d5460ff16610313565b6103366104ef366004614a1c565b611132565b610336610502366004614f32565b6111b3565b610336610515366004614aba565b6111d8565b6002546001600160a01b03165b6040516001600160a01b0390911681526020016102f7565b61033661054d366004614fb6565b61124d565b610313610560366004614dd5565b6112c4565b610336610573366004614fd1565b6112ef565b6102ed600081565b61033661058e366004615002565b61130d565b6102ed6105a1366004614a1c565b611318565b6103366105b4366004614a1c565b611375565b6102ed7f369da55721ba2b3acddd63aac7d6512c3e5762a78fa01c44f423f97868330c3481565b6105f36105ee366004614a1c565b611393565b6040516102f79190615039565b6103366114b5565b6102ed610616366004614a1c565b6000908152600d602052604090205490565b6001546102ed565b61033661063e366004615002565b6114d5565b610336611519565b610336610659366004614dd5565b611539565b61033661066c366004614aba565b61155e565b6000546001600160a01b0316610527565b6103366106903660046150cd565b6115c1565b6103136106a3366004614aba565b6001600160a01b031660009081526014602052604090205460ff1690565b6106d46106cf366004614a1c565b6116ea565b6040516102f79190615234565b6102ed6000805160206157fa83398151915281565b610313610704366004615325565b611931565b61033661071736600461534f565b61195f565b610724611bc0565b6040516102f791906153b3565b6000818152601a602090815260408083206001600160a01b03861684529091529020545b92915050565b600061075582611c22565b6000818152600e602052604090206001015481906001600160a01b031633146107c45760405162461bcd60e51b815260206004820152600b60248201526a27b7363c902232b13a37b960a91b60448201526064015b60405180910390fd5b6107cc611c47565b6107d4611c6d565b6000828152600e60205260409020600601546001600160401b03428116911611156108365760405162461bcd60e51b8152602060048201526012602482015271141858dd081a5cdb89dd08115e1c1a5c995960721b60448201526064016107bb565b6108408233611c97565b61084a6001601e55565b5050565b610856611c47565b61085e611c6d565b6108408233836120d3565b6060601c8054610878906153df565b80601f01602080910402602001604051908101604052809291908181526020018280546108a4906153df565b80156108f15780601f106108c6576101008083540402835291602001916108f1565b820191906000526020600020905b8154815290600101906020018083116108d457829003601f168201915b50505050509050919050565b6109056147fb565b6001600160a01b0382166000908152600b602052604090206040805160a081018083529092918391908201908390600390826000855b82829054906101000a900461ffff1661ffff168152602001906002019060208260010104928301926001038202915080841161093b579050505050505081526020016001820154815250509050919050565b6000805160206157fa8339815191526109a581612288565b82600181101580156109b8575060048111155b6109f75760405162461bcd60e51b815260206004820152601060248201526f496e76616c69642063617465676f727960801b60448201526064016107bb565b6020830151835161ffff9182169116108015610a2257506040830151602084015161ffff9182169116105b610a825760405162461bcd60e51b815260206004820152602b60248201527f56616c756573206d75737420626520696e207374726963746c7920696e63726560448201526a30b9b4b7339037b93232b960a91b60648201526084016107bb565b83600103610a9d57610a97600784600361481b565b50610ade565b83600203610ab257610a97600884600361481b565b83600303610ac757610a97600984600361481b565b83600403610ade57610adc600a84600361481b565b505b50505050565b6000805160206157fa833981519152610afc81612288565b60048310610b3c5760405162461bcd60e51b815260206004820152600d60248201526c092dcecc2d8d2c840d2dcc8caf609b1b60448201526064016107bb565b60008261ffff1611610b815760405162461bcd60e51b815260206004820152600e60248201526d056616c7565206d757374203e20360941b60448201526064016107bb565b8160068460048110610b9557610b95615419565b601091828204019190066002026101000a81548161ffff021916908361ffff160217905550505050565b610bc7611c47565b610bcf611c6d565b836001600160a01b038116610bf65760405162461bcd60e51b81526004016107bb9061542f565b8251845114610c585760405162461bcd60e51b815260206004820152602860248201527f455243313135353a2069647320616e6420616d6f756e7473206c656e677468206044820152670dad2e6dac2e8c6d60c31b60648201526084016107bb565b6001600160a01b03861660009081526014602052604090205460ff16158015610c9a57506001600160a01b03851660009081526014602052604090205460ff16155b15610d06576002548451600154610cc7926001600160a01b03169189913091610cc29161546e565b612292565b8351600154610cd6919061546e565b6002546001600160a01b031660009081526016602052604081208054909190610d00908490615485565b90915550505b60005b8451811015610e57576000858281518110610d2657610d26615419565b602002602001015190506000858381518110610d4457610d44615419565b6020908102919091018101516000848152601590925260409091205490915060ff1615610dc4576000546001600160a01b03898116911614610dc45760405162461bcd60e51b815260206004820152601960248201527818b9ba103a3c1036bab9ba1039b2b732102630bab731b432b960391b60448201526064016107bb565b6000546001600160a01b038a81169116148015610dfd57506000828152600e60205260409020600101546001600160a01b038981169116145b15610e20576000828152601560205260409020805460ff19166001179055610e37565b6000828152601560205260409020805460ff191690555b610e42828a836122f9565b610e4d828983612434565b5050600101610d09565b50610e658686868686612511565b846001600160a01b0316866001600160a01b03167fad8d187eacdcbe02a9dcb4936046c0f04ba8e42b543d0db96e05de0d926017a58686604051610eaa929190615498565b60405180910390a350610adc6001601e55565b6000828152601f6020526040902060010154610ed881612288565b610ade8383612578565b6000805160206157fa833981519152610efa81612288565b816001600160a01b038116610f215760405162461bcd60e51b81526004016107bb9061542f565b5050600080546001600160a01b0319166001600160a01b0392909216919091179055565b610f4d611c47565b610f55611c6d565b61084082338361260c565b6001600160a01b0381163314610f895760405163334bd91960e11b815260040160405180910390fd5b610f93828261283f565b505050565b6000805160206157fa833981519152610fb081612288565b506002805460ff909216600160a01b0260ff60a01b19909216919091179055565b606081518351146110025781518351604051635b05999160e01b8152600481019290925260248201526044016107bb565b600083516001600160401b0381111561101d5761101d614b16565b604051908082528060200260200182016040528015611046578160200160208202803683370190505b50905060005b84518110156110955760208082028601015161107090602080840287010151610731565b82828151811061108257611082615419565b602090810291909101015260010161104c565b509392505050565b7f369da55721ba2b3acddd63aac7d6512c3e5762a78fa01c44f423f97868330c346110c781612288565b6001600160a01b038083166000908152601660205260408120805491905560035490916110f791859116836128ac565b60405181906001600160a01b038516907faf80142caf9fe163be33cc158cc1c709d87be440df7dabfb094cc8b532c3eed290600090a3505050565b61113a611c47565b611142611c6d565b6000818152600e602052604090206001015481906001600160a01b0316331461119b5760405162461bcd60e51b815260206004820152600b60248201526a27b7363c902232b13a37b960a91b60448201526064016107bb565b6111a582336128dd565b506111b06001601e55565b50565b6000805160206157fa8339815191526111cb81612288565b610f93600683600461481b565b7f369da55721ba2b3acddd63aac7d6512c3e5762a78fa01c44f423f97868330c3461120281612288565b816001600160a01b0381166112295760405162461bcd60e51b81526004016107bb9061542f565b5050600380546001600160a01b0319166001600160a01b0392909216919091179055565b6000805160206157fa83398151915261126581612288565b60008261ffff16116112ab5760405162461bcd60e51b815260206004820152600f60248201526e53657420612076616c69642066656560881b60448201526064016107bb565b506005805461ffff191661ffff92909216919091179055565b6000918252601f602090815260408084206001600160a01b0393909316845291905290205460ff1690565b6112f7611c47565b6112ff611c6d565b61084082338360ff16612ac0565b61084a338383612d74565b6000818152600d6020908152604080832054600e909252822060058101546004909101548392916113489161546e565b6000858152600e60205260409020600301546113649190615485565b61136e919061546e565b9392505050565b6000805160206157fa83398151915261138d81612288565b50600155565b61139b6148b1565b816001036113fe5760408051606081019182905290600790600390826000855b82829054906101000a900461ffff1661ffff16815260200190600201906020826001010492830192600103820291508084116113bb575094979650505050505050565b8160020361143c576040805160608101918290526008805461ffff1682529091600390826002602086018084116113bb575094979650505050505050565b8160030361147a576040805160608101918290526009805461ffff1682529091600390826002602086018084116113bb575094979650505050505050565b604080516060810191829052600a805461ffff1682529091600390826002602086018084116113bb575094979650505050505050565b919050565b6000805160206157fa8339815191526114cd81612288565b6111b0612e0a565b6000805160206157fa8339815191526114ed81612288565b506001600160a01b03919091166000908152601460205260409020805460ff1916911515919091179055565b6000805160206157fa83398151915261153181612288565b6111b0612e64565b6000828152601f602052604090206001015461155481612288565b610ade838361283f565b6000805160206157fa83398151915261157681612288565b816001600160a01b03811661159d5760405162461bcd60e51b81526004016107bb9061542f565b5050600280546001600160a01b0319166001600160a01b0392909216919091179055565b6115c9611c47565b6115d1611c6d565b7f00000000000000000000000000000000000000000000000000000000000000006001600160a01b031663db2a972f600260149054906101000a900460ff1689898e8a8f8f8c8c6040518a63ffffffff1660e01b815260040161163c999897969594939291906154c6565b60006040518083038186803b15801561165457600080fd5b505afa158015611668573d6000803e3d6000fd5b5050505061167533612e9d565b60006116823387876130f1565b905061168f338787613199565b60045461169a6131e8565b6116bb81338e8e8e8e8e8e8a8f6116b1919061552c565b60008f8f8f613202565b6116c78133878e61344c565b6116d2813387612434565b50506116de6001601e55565b50505050505050505050565b6117726040518061018001604052806000815260200160006001600160a01b0316815260200160006001600160a01b0316815260200160008152602001600081526020016060815260200160006001600160401b0316815260200160006001600160a01b03168152602001600081526020016000815260200160608152602001600081525090565b6000828152600e60209081526040918290208251610180810184528154815260018201546001600160a01b03908116828501526002830154168185015260038201546060820152600482015460808201526005820180548551818602810186019096528086529194929360a0860193929083018282801561184457602002820191906000526020600020906000905b82829054906101000a90046001600160401b03166001600160401b0316815260200190600801906020826007010492830192600103820291508084116118015790505b505050918352505060068201546001600160401b0381166020830152600160401b90046001600160a01b03166040820152600782015460608201526008820154608082015260098201805460a09092019161189e906153df565b80601f01602080910402602001604051908101604052809291908181526020018280546118ca906153df565b80156119175780601f106118ec57610100808354040283529160200191611917565b820191906000526020600020905b8154815290600101906020018083116118fa57829003601f168201915b50505050508152602001600a820154815250509050919050565b6001600160a01b039182166000908152601b6020908152604080832093909416825291909152205460ff1690565b611967611c47565b61196f611c6d565b836001600160a01b0381166119965760405162461bcd60e51b81526004016107bb9061542f565b60008481526015602052604090205460ff1615611a06576000546001600160a01b03868116911614611a065760405162461bcd60e51b815260206004820152601960248201527818b9ba103a3c1036bab9ba1039b2b732102630bab731b432b960391b60448201526064016107bb565b6000546001600160a01b038781169116148015611a3f57506000848152600e60205260409020600101546001600160a01b038681169116145b15611a62576000848152601560205260409020805460ff19166001179055611a79565b6000848152601560205260409020805460ff191690555b6001600160a01b03861660009081526014602052604090205460ff16158015611abb57506001600160a01b03851660009081526014602052604090205460ff16155b8015611ad557506000546001600160a01b03868116911614155b8015611aef57506000546001600160a01b03878116911614155b15611b4457600254600154611b11916001600160a01b03169088903090612292565b6001546002546001600160a01b031660009081526016602052604081208054909190611b3e908490615485565b90915550505b611b4f8487856122f9565b611b5a848685612434565b611b67868686868661352b565b83856001600160a01b0316876001600160a01b03167f19a55f7d4620e5ba4aa0d791ac68d8b0c222ae30c92e1bc5df6ff5be2a8661e786604051611bad91815260200190565b60405180910390a450610adc6001601e55565b611bc86148cf565b60408051608081019182905290600690600490826000855b82829054906101000a900461ffff1661ffff1681526020019060020190602082600101049283019260010382029150808411611be05790505050505050905090565b60006001600160e01b03198216637965db0b60e01b148061075557506107558261358a565b601d5460ff1615611c6b5760405163d93c066560e01b815260040160405180910390fd5b565b6002601e5403611c9057604051633ee5aeb560e01b815260040160405180910390fd5b6002601e55565b60008281526011602090815260408083206001600160a01b0385168452909152902054611d065760405162461bcd60e51b815260206004820152601760248201527f4e6f20706f696e7473206c65667420746f20636c61696d00000000000000000060448201526064016107bb565b60008281526012602090815260408083206001600160a01b03851680855290835281842054868552601184528285209185529252822054611d479190615485565b6000848152600e60205260409020600a90810154919250611d679161553f565b6000848152600d602052604090205411611e5e5760008381526011602090815260408083206001600160a01b038616808552908352818420548785526012845282852091855292528220805491928392611dc2908490615485565b909155505060008481526011602090815260408083206001600160a01b03871684528252808320839055600b90915281206001018054839290611e06908490615485565b909155505060008481526013602090815260408083206001600160a01b03871680855290835292819020805460ff19166064179055518381526000805160206157da833981519152910160405180910390a250505050565b6000838152600e60205260409020600a0154611e7c9060049061553f565b6000848152600d602052604090205411801590611ec0575060008381526013602090815260408083206001600160a01b0386168452909152902054604b60ff909116105b1561203b5760008381526013602090815260408083206001600160a01b0386168452909152812054611ef69060ff16604b615561565b905060006064611f0960ff84168561546e565b611f13919061553f565b60008681526012602090815260408083206001600160a01b0389168452909152812080549293508392909190611f4a908490615485565b909155505060008581526011602090815260408083206001600160a01b038816845290915281208054839290611f8190849061552c565b90915550506001600160a01b0384166000908152600b602052604081206001018054839290611fb1908490615485565b909155505060008581526013602090815260408083206001600160a01b038816845290915281208054849290611feb90849060ff1661557a565b92506101000a81548160ff021916908360ff160217905550836001600160a01b03166000805160206157da8339815191528260405161202c91815260200190565b60405180910390a25050505050565b6000838152600e60205260409020600a01546120599060029061553f565b6000848152600d60205260409020541180159061209d575060008381526013602090815260408083206001600160a01b0386168452909152902054603260ff909116105b15610f935760008381526013602090815260408083206001600160a01b0386168452909152812054611ef69060ff166032615561565b6000838152600e60209081526040808320600c90925290912054600460ff9091161161214e576006810154426001600160401b03909116111561214e5760405162461bcd60e51b81526020600482015260136024820152722830b1ba103737ba1031329032bc3834b932b960691b60448201526064016107bb565b6000848152600d60205260409020548211156121ac5760405162461bcd60e51b815260206004820152601b60248201527f416d6f756e74206578636565647320746f74616c20737570706c79000000000060448201526064016107bb565b6000848152600d6020526040812080548492906121ca90849061552c565b9091555050600881015460038201546121e490849061546e565b116121f9576121f48484846135da565b610ade565b80600801548160030154116122635760008160030154826008015461221e919061553f565b60018301549091506122449086906001600160a01b031661223f848761552c565b6136af565b61224f8585836135da565b610a97858561225e848761552c565b61380c565b600181015461227d9085906001600160a01b0316846136af565b610ade84848461380c565b6111b08133613998565b6040516001600160a01b038481166024830152838116604483015260648201839052610ade9186918216906323b872dd906084015b604051602081830303815290604052915060e01b6020820180516001600160e01b0383818316178352505050506139d1565b4260005b6000858152600e6020526040902060050154811015610adc576000858152600e6020526040902060050180548290811061233957612339615419565b90600052602060002090600491828204019190066008029054906101000a90046001600160401b03166001600160401b0316826001600160401b0316101561242c576000858152600f602090815260408083206001600160a01b038816845282528083208484529091529020548311156123ec5760405162461bcd60e51b8152602060048201526014602482015273496e73756666696369656e74207265776172647360601b60448201526064016107bb565b6000858152600f602090815260408083206001600160a01b038816845282528083208484529091528120805485929061242690849061552c565b90915550505b6001016122fd565b4260005b6000858152600e602052604090206005015460ff82161015610adc576000858152600e60205260409020600501805460ff831690811061247a5761247a615419565b90600052602060002090600491828204019190066008029054906101000a90046001600160401b03166001600160401b0316826001600160401b031610156124ff576000858152600f602090815260408083206001600160a01b0388168452825280832060ff85168452909152812080548592906124f9908490615485565b90915550505b8061250981615593565b915050612438565b336001600160a01b038616811480159061253257506125308682611931565b155b156125635760405163711bec9160e11b81526001600160a01b038083166004830152871660248201526044016107bb565b6125708686868686613a34565b505050505050565b600061258483836112c4565b612604576000838152601f602090815260408083206001600160a01b03861684529091529020805460ff191660011790556125bc3390565b6001600160a01b0316826001600160a01b0316847f2f8788117e7eff1d82e926ec794901d17c78024a50270940304540a733656f0d60405160405180910390a4506001610755565b506000610755565b806000811161264f5760405162461bcd60e51b815260206004820152600f60248201526e0616d6f756e74206d757374203e203608c1b60448201526064016107bb565b60008481526019602052604090205460ff16156126a15760405162461bcd60e51b815260206004820152601060248201526f4465706f73697420697320436c6f736560801b60448201526064016107bb565b6000848152600e60209081526040808320601890925282205490910361271557600581015460048201546000916126d79161546e565b6000878152600d60205260409020546003840154919250906126fa908390615485565b612704919061546e565b600087815260186020526040902055505b6000858152601860205260409020548311156127735760405162461bcd60e51b815260206004820181905260248201527f43616e6e6f74206465706f736974206d6f7265207468616e20616c6c6f77656460448201526064016107bb565b60008581526018602052604081205490036127a2576000858152601960205260409020805460ff191660011790555b60028101546127bc906001600160a01b0316853086612292565b828160080160008282546127d09190615485565b909155505060405183815285906001600160a01b038616907f2fbfa0f2b92fb46c28fddba9509dfffc3c2b94fe3195329797fd5d5d60ebd4089060200160405180910390a36000858152601860205260408120805485929061283390849061552c565b90915550505050505050565b600061284b83836112c4565b15612604576000838152601f602090815260408083206001600160a01b0386168085529252808320805460ff1916905551339286917ff6391f5c32d9c69d2a47ea670b442974b53935d1edc7fd64eb21e047a839171b9190a4506001610755565b6040516001600160a01b03838116602483015260448201839052610f9391859182169063a9059cbb906064016122c7565b6000828152600e6020908152604080832060109092529091205460ff16156129bd576006810154429061291c906001600160401b03166276a7006155b2565b6001600160401b031611156129b85760405162461bcd60e51b815260206004820152605660248201527f74686520636f6c6c61746572616c206c6f636b2d757020706572696f6420686160448201527f73206e6f742079657420657870697265642c20657874656e64656420746f203960648201527518103230bcb9903337b9103634b8bab4b230ba34b7b760511b608482015260a4016107bb565b612a4b565b600681015442906129da906001600160401b03166213c6806155b2565b6001600160401b03161115612a4b5760405162461bcd60e51b815260206004820152603160248201527f74686520636f6c6c61746572616c206c6f636b2d757020706572696f642068616044820152701cc81b9bdd081e595d08195e1c1a5c9959607a1b60648201526084016107bb565b60078101805460009091556006820154612a7690600160401b90046001600160a01b031684836128ac565b83836001600160a01b03167fdaed309a628faec6cab72194019e2a1a34e890ca9bf9be99788992dd5469281983604051612ab291815260200190565b60405180910390a350505050565b6000838152600e602052604090206005810180546001600160401b034216919084908110612af057612af0615419565b6000918252602090912060048204015460039091166008026101000a90046001600160401b03161115612b655760405162461bcd60e51b815260206004820152601c60248201527f5363686564756c656420526577617264206e6f7420457870697265640000000060448201526064016107bb565b6000848152600f602090815260408083206001600160a01b0387168452825280832085845290915290205480612be85760405162461bcd60e51b815260206004820152602260248201527f486176656e2774205363686564756c65642052657761726420666f7220636c61604482015261696d60f01b60648201526084016107bb565b6000858152600f602090815260408083206001600160a01b038816845282528083208684528252808320839055878352600e909152812060040154612c2d908361546e565b905082600801548111612cc85780836008016000828254612c4e919061552c565b90915550506002830154612c7f906001600160a01b031686612c708285613a94565b612c7a908561552c565b6128ac565b85856001600160a01b03167ff01da32686223933d8a18a391060918c7f11a3648639edd87ae013e2e273174383604051612cbb91815260200190565b60405180910390a3612570565b826008015481118015612ce2575082600801548360040154115b15612d49576001830154612d019087906001600160a01b0316846136af565b612d0c868684613aab565b85856001600160a01b03167ff01da32686223933d8a18a391060918c7f11a3648639edd87ae013e2e27317436000604051612cbb91815260200190565b826008015481118015612d6457508260080154836004015411155b1561257057612570868684613b7a565b6001600160a01b038216612d9d5760405162ced3e160e81b8152600060048201526024016107bb565b6001600160a01b038381166000818152601b6020908152604080832094871680845294825291829020805460ff191686151590811790915591519182527f17307eab39ab6107e8899845ad3d59bd9653f200f220920489ca2b5937696c31910160405180910390a3505050565b612e12611c47565b601d805460ff191660011790557f62e78cea01bee320cd4e420270b5ea74000d11b0c9f74754ebdbfc544b05a258612e473390565b6040516001600160a01b03909116815260200160405180910390a1565b612e6c613c61565b601d805460ff191690557f5db9ee0a495bf2e6ff9c91a7834c1ba4fdd244a5e8aa4e537bd38aeae4b073aa33612e47565b6001600160a01b0381166000908152600b6020526040902060010154801580612ed75750620aae608110158015612ed75750620f42408111155b15612f7757604080516060810182526064815260c86020808301919091526101908284015282518084018452828152620aaec4818301526001600160a01b0386166000908152600b9092529290208251919291612f37908290600361481b565b50602091820151600190910155604051620aaec481526001600160a01b038516916000805160206157da83398151915291015b60405180910390a2505050565b620f4240811115612ff2576040805160608101825260328152606460208083019190915260c8828401526001600160a01b0385166000908152600b90915291909120612fc59082600361481b565b50826001600160a01b03166000805160206157da833981519152620186a0604051612f6a91815260200190565b6207a12081101580156130075750620aae6081105b1561307e576040805160608101825260c88152610190602080830191909152610258828401526001600160a01b0385166000908152600b909152919091206130519082600361481b565b50826001600160a01b03166000805160206157da8339815191526207a120604051612f6a91815260200190565b6040805160608101825261011881526101c26020808301919091526102d0828401526001600160a01b0385166000908152600b909152919091206130c49082600361481b565b50826001600160a01b03166000805160206157da8339815191526207a11f604051612f6a91815260200190565b6001600160a01b0383166000908152600b6020526040812060010154620f424081111561312c5761312484846005613c84565b91505061136e565b620aae60811180156131415750620f42408111155b15613152576131248484600f613c84565b6207a120811180156131675750620aae608111155b15613178576131248484601e613c84565b6207a120811161318e5761312484846032613c84565b506000949350505050565b80600081116131dc5760405162461bcd60e51b815260206004820152600f60248201526e0616d6f756e74206d757374203e203608c1b60448201526064016107bb565b610ade83853085612292565b6001600460008282546131fb9190615485565b9091555050565b6040518061018001604052808e81526020018d6001600160a01b031681526020018c6001600160a01b031681526020018b81526020018a8152602001898152602001886001600160401b03168152602001876001600160a01b0316815260200186815260200185815260200183838080601f016020809104026020016040519081016040528093929190818152602001838380828437600092018290525093855250505060209182018690528f8152600e825260409081902083518155838301516001820180546001600160a01b03199081166001600160a01b039384161790915592850151600283018054909416911617909155606083015160038201556080830151600482015560a083015180519192613326926005850192909101906148ed565b5060c082015160068201805460e08501516001600160a01b0316600160401b026001600160e01b03199091166001600160401b03909316929092179190911790556101008201516007820155610120820151600882015561014082015160098201906133929082615621565b506101609190910151600a9091015560008d8152600d6020526040812080548592906133bf908490615485565b909155505060008d8152601560209081526040808320805460ff19166001179055805191820190529081526133f9908d908f908690613d16565b8b6001600160a01b03168d7fcb692f4e6162e7802d264093fa73eef89ae3d1b85164d59849ccf0139d7a77f88560405161343591815260200190565b60405180910390a350505050505050505050505050565b600069152d02c7e14af680000082106134715761346a83604661546e565b90506134fe565b69021e19e0c9bab2400000821061348d5761346a83603261546e565b69010f0cf064dd5920000082106134a95761346a83601e61546e565b683635c9adc5dea0000082106134c45761346a83601461546e565b68056bc75e2d6310000082106134df5761346a83600a61546e565b6802b5e3af16b188000082106134fa5761346a83600561546e565b5060005b60009485526011602090815260408087206001600160a01b03909616875294905292909320919091555050565b336001600160a01b038616811480159061354c575061354a8682611931565b155b1561357d5760405163711bec9160e11b81526001600160a01b038083166004830152871660248201526044016107bb565b6125708686868686613d73565b60006001600160e01b03198216636cdb3d1360e11b14806135bb57506001600160e01b031982166303a24d0760e21b145b8061075557506301ffc9a760e01b6001600160e01b0319831614610755565b6000838152600e6020526040812060038101549091906135fb90849061546e565b905082826003015461360d919061546e565b826008016000828254613620919061552c565b9091555061363190508585856122f9565b61363c848685613e01565b60028201546001830154613664916001600160a01b03908116918791612c7091168386613e69565b84846001600160a01b03167f5a44e54e6176ee37f7560c3927abc3a9ff36b91a4e176e99e4349d314f0b812b856040516136a091815260200190565b60405180910390a35050505050565b6000838152600e6020526040902060038101546802b5e3af16b1880000118015906136e6575068056bc75e2d631000008160030154105b156136f8576136f88484846002613ef9565b68056bc75e2d631000008160030154101580156137215750681b1ae4d6e2ef5000008160030154105b15613733576137338484846005613ef9565b683635c9adc5dea0000081600301541015801561375d575069010f0cf064dd592000008160030154105b1561376f5761376f848484600a613ef9565b69010f0cf064dd5920000081600301541015801561379a575069021e19e0c9bab24000008160030154105b156137ac576137ac848484600f613ef9565b69021e19e0c9bab24000008160030154101580156137d7575069152d02c7e14af68000008160030154105b156137e9576137e98484846019613ef9565b69152d02c7e14af680000081600301541015610ade57610ade8484846023613ef9565b6000838152600e602090815260408083206010909252822054909160ff909116900361389057600084815260106020526040812080546001929061385490849060ff1661557a565b92506101000a81548160ff021916908360ff16021790555080600a01548160070154613880919061553f565b6000858152601760205260409020555b6001810154600282015460008681526017602052604081205490926138ce926001600160a01b03918216929116906138c990879061546e565b613e69565b6000868152601760205260409020549091506138eb90849061546e565b8260070160008282546138fe919061552c565b9091555061390f90508585856122f9565b61391a848685613e01565b600682015460008681526017602052604090205461395c91600160401b90046001600160a01b0316908690849061395290889061546e565b612c7a919061552c565b84846001600160a01b03167f20202634973144df6cb0036af474e26eef3d180d4cd285c5123236823bbab8ee856040516136a091815260200190565b6139a282826112c4565b61084a5760405163e2517d3f60e01b81526001600160a01b0382166004820152602481018390526044016107bb565b60006139e66001600160a01b03841683613f9b565b90508051600014158015613a0b575080806020019051810190613a0991906156e0565b155b15610f9357604051635274afe760e01b81526001600160a01b03841660048201526024016107bb565b6001600160a01b038416613a5e57604051632bfa23e760e11b8152600060048201526024016107bb565b6001600160a01b038516613a8757604051626a0d4560e21b8152600060048201526024016107bb565b610adc8585858585613fa9565b60055460009061136e908490849061ffff16613ffc565b6000838152600c602052604090205460ff166004811115613b215760405162461bcd60e51b815260206004820152602a60248201527f5468697320706163742069732065787069726564206f7220746f74616c6c79206044820152691b1a5c5d5a59185d195960b21b60648201526084016107bb565b80613b2b81615593565b6000868152600c60205260409020805460ff191660ff8316908117909155909250600411159050613b6f576121f484613b65600184615561565b60ff168486614062565b610ade8483856141b5565b6000838152600e6020526040812060048101546008820154919291613b9f919061553f565b90506000826004015482613bb3919061546e565b905080836008016000828254613bc9919061552c565b90915550506002830154613beb906001600160a01b031686612c708285613a94565b85856001600160a01b03167ff01da32686223933d8a18a391060918c7f11a3648639edd87ae013e2e273174386604051613c2791815260200190565b60405180910390a36001830154613c4d9087906001600160a01b031661223f858861552c565b6125708686613c5c858861552c565b613aab565b601d5460ff16611c6b57604051638dfc202b60e01b815260040160405180910390fd5b6000806103e8613c9861ffff85168661546e565b613ca2919061553f565b6001600160a01b038616600090815260166020526040812080549293508392909190613ccf908490615485565b909155505060405161ffff8416906001600160a01b038716907f6de39dba19e7dfec50c30e95064ad0fe0b5c14f483d5c0823031ebe0508b9add90600090a3949350505050565b6001600160a01b038416613d4057604051632bfa23e760e11b8152600060048201526024016107bb565b60408051600180825260208201869052818301908152606082018590526080820190925290612570600087848487613fa9565b6001600160a01b038416613d9d57604051632bfa23e760e11b8152600060048201526024016107bb565b6001600160a01b038516613dc657604051626a0d4560e21b8152600060048201526024016107bb565b60408051600180825260208201869052818301908152606082018590526080820190925290613df88787848487613fa9565b50505050505050565b6001600160a01b038316613e2a57604051626a0d4560e21b8152600060048201526024016107bb565b604080516001808252602082018590528183019081526060820184905260a08201909252600060808201818152919291610adc91879185908590613fa9565b6001600160a01b0383166000908152600b6020526040812060010154620f4240811115613eb9576131248484600660005b601091828204019190066002029054906101000a900461ffff16613c84565b620aae60811115613ed257613124848460066001613e9a565b6207a120811115613eeb57613124848460066002613e9a565b613124848460066003613e9a565b613f03818361546e565b60008581526011602090815260408083206001600160a01b038816845290915290205410613f7257613f35818361546e565b60008581526011602090815260408083206001600160a01b038816845290915281208054909190613f6790849061552c565b90915550610ade9050565b60008481526011602090815260408083206001600160a01b038716845290915281205550505050565b606061136e838360006142b2565b613fb58585858561434f565b6001600160a01b03841615610adc5782513390600103613fee5760208481015190840151613fe7838989858589614569565b5050612570565b61257081878787878761468d565b60006103e861400b838561546e565b614015919061553f565b6001600160a01b0385166000908152601660205260408120805490919061403d908490615485565b909155506103e89050614050838561546e565b61405a919061553f565b949350505050565b6000848152600e6020908152604080832060018101546001600160a01b03168452600b90925282209091906127109086600381106140a2576140a2615419565b601091828204019190066002029054906101000a900461ffff1661ffff1683600701546140cf919061546e565b6140d9919061553f565b9050600082600a0154826140ed919061553f565b6001840154600685015491925060009161411f916001600160a01b0390811691600160401b9004166138c9898661546e565b90508061412c878461546e565b614136919061552c565b846007016000828254614149919061552c565b9091555050600684015461417390600160401b90046001600160a01b031686836139528a8761546e565b8588866001600160a01b03167f432831a7716932af73aecc928eebd402ee2bb889ac36d461abc96348599c76f660405160405180910390a45050505050505050565b6000838152600e602090815260408083206001810154601184528285206001600160a01b0390911685529092528220919091556000848152600c6020526040812080546001929061420a90849060ff1661557a565b92506101000a81548160ff021916908360ff160217905550600081600a01548260070154614238919061553f565b9050614244848261546e565b826007016000828254614257919061552c565b9091555050600682015461428090600160401b90046001600160a01b031684612c7a878561546e565b847ffb9e9103054daa75ed3b3db9394e84ec8cc4d4dae3a676a88a44b731a6d5b3e88560405161202c91815260200190565b6060814710156142d75760405163cd78605960e01b81523060048201526024016107bb565b600080856001600160a01b031684866040516142f391906156fd565b60006040518083038185875af1925050503d8060008114614330576040519150601f19603f3d011682016040523d82523d6000602084013e614335565b606091505b5091509150614345868383614776565b9695505050505050565b805182511461437e5781518151604051635b05999160e01b8152600481019290925260248201526044016107bb565b3360005b835181101561448a576020818102858101820151908501909101516001600160a01b03881615614439576000828152601a602090815260408083206001600160a01b038c16845290915290205481811015614410576040516303dee4c560e01b81526001600160a01b038a1660048201526024810182905260448101839052606481018490526084016107bb565b6000838152601a602090815260408083206001600160a01b038d16845290915290209082900390555b6001600160a01b03871615614480576000828152601a602090815260408083206001600160a01b038b1684529091528120805483929061447a908490615485565b90915550505b5050600101614382565b50825160010361450b5760208301516000906020840151909150856001600160a01b0316876001600160a01b0316846001600160a01b03167fc3d58168c5ae7397731d063d5bbf3d657854427343f4c083240f7aacaa2d0f6285856040516144fc929190918252602082015260400190565b60405180910390a45050610adc565b836001600160a01b0316856001600160a01b0316826001600160a01b03167f4a39dc06d4c0dbc64b70af90fd698a233a518aa5d07e595d983b8c0526c8f7fb868660405161455a929190615498565b60405180910390a45050505050565b6001600160a01b0384163b156125705760405163f23a6e6160e01b81526001600160a01b0385169063f23a6e61906145ad9089908990889088908890600401615719565b6020604051808303816000875af19250505080156145e8575060408051601f3d908101601f191682019092526145e59181019061575e565b60015b614651573d808015614616576040519150601f19603f3d011682016040523d82523d6000602084013e61461b565b606091505b50805160000361464957604051632bfa23e760e11b81526001600160a01b03861660048201526024016107bb565b805181602001fd5b6001600160e01b0319811663f23a6e6160e01b14613df857604051632bfa23e760e11b81526001600160a01b03861660048201526024016107bb565b6001600160a01b0384163b156125705760405163bc197c8160e01b81526001600160a01b0385169063bc197c81906146d1908990899088908890889060040161577b565b6020604051808303816000875af192505050801561470c575060408051601f3d908101601f191682019092526147099181019061575e565b60015b61473a573d808015614616576040519150601f19603f3d011682016040523d82523d6000602084013e61461b565b6001600160e01b0319811663bc197c8160e01b14613df857604051632bfa23e760e11b81526001600160a01b03861660048201526024016107bb565b60608261478b57614786826147d2565b61136e565b81511580156147a257506001600160a01b0384163b155b156147cb57604051639996b31560e01b81526001600160a01b03851660048201526024016107bb565b508061136e565b8051156147e25780518082602001fd5b604051630a12f52160e11b815260040160405180910390fd5b604051806040016040528061480e6148b1565b8152602001600081525090565b6001830191839082156148a15791602002820160005b8382111561487157835183826101000a81548161ffff021916908361ffff1602179055509260200192600201602081600101049283019260010302614831565b801561489f5782816101000a81549061ffff0219169055600201602081600101049283019260010302614871565b505b506148ad929150614993565b5090565b60405180606001604052806003906020820280368337509192915050565b60405180608001604052806004906020820280368337509192915050565b828054828255906000526020600020906003016004900481019282156148a15791602002820160005b8382111561496057835183826101000a8154816001600160401b0302191690836001600160401b031602179055509260200192600801602081600701049283019260010302614916565b801561489f5782816101000a8154906001600160401b030219169055600801602081600701049283019260010302614960565b5b808211156148ad5760008155600101614994565b80356001600160a01b03811681146114b057600080fd5b600080604083850312156149d257600080fd5b6149db836149a8565b946020939093013593505050565b6001600160e01b0319811681146111b057600080fd5b600060208284031215614a1157600080fd5b813561136e816149e9565b600060208284031215614a2e57600080fd5b5035919050565b60008060408385031215614a4857600080fd5b50508035926020909101359150565b60005b83811015614a72578181015183820152602001614a5a565b50506000910152565b60008151808452614a93816020860160208601614a57565b601f01601f19169290920160200192915050565b60208152600061136e6020830184614a7b565b600060208284031215614acc57600080fd5b61136e826149a8565b815160808201908260005b6003811015614b0357825161ffff16825260209283019290910190600101614ae0565b5050506020830151606083015292915050565b634e487b7160e01b600052604160045260246000fd5b604051601f8201601f191681016001600160401b0381118282101715614b5457614b54614b16565b604052919050565b803561ffff811681146114b057600080fd5b60008060808385031215614b8157600080fd5b82359150602084603f850112614b9657600080fd5b604051606081018181106001600160401b0382111715614bb857614bb8614b16565b604052806080860187811115614bcd57600080fd5b602087015b81811015614bf057614be381614b5c565b8352918401918401614bd2565b50505080925050509250929050565b60008060408385031215614c1257600080fd5b82359150614c2260208401614b5c565b90509250929050565b60006001600160401b03821115614c4457614c44614b16565b5060051b60200190565b600082601f830112614c5f57600080fd5b81356020614c74614c6f83614c2b565b614b2c565b8083825260208201915060208460051b870101935086841115614c9657600080fd5b602086015b84811015614cb25780358352918301918301614c9b565b509695505050505050565b600082601f830112614cce57600080fd5b81356001600160401b03811115614ce757614ce7614b16565b614cfa601f8201601f1916602001614b2c565b818152846020838601011115614d0f57600080fd5b816020850160208301376000918101602001919091529392505050565b600080600080600060a08688031215614d4457600080fd5b614d4d866149a8565b9450614d5b602087016149a8565b935060408601356001600160401b0380821115614d7757600080fd5b614d8389838a01614c4e565b94506060880135915080821115614d9957600080fd5b614da589838a01614c4e565b93506080880135915080821115614dbb57600080fd5b50614dc888828901614cbd565b9150509295509295909350565b60008060408385031215614de857600080fd5b82359150614c22602084016149a8565b803560ff811681146114b057600080fd5b600060208284031215614e1b57600080fd5b61136e82614df8565b60008060408385031215614e3757600080fd5b82356001600160401b0380821115614e4e57600080fd5b818501915085601f830112614e6257600080fd5b81356020614e72614c6f83614c2b565b82815260059290921b84018101918181019089841115614e9157600080fd5b948201945b83861015614eb657614ea7866149a8565b82529482019490820190614e96565b96505086013592505080821115614ecc57600080fd5b50614ed985828601614c4e565b9150509250929050565b60008151808452602080850194506020840160005b83811015614f1457815187529582019590820190600101614ef8565b509495945050505050565b60208152600061136e6020830184614ee3565b600060808284031215614f4457600080fd5b82601f830112614f5357600080fd5b604051608081018181106001600160401b0382111715614f7557614f75614b16565b604052806080840185811115614f8a57600080fd5b845b81811015614fab57614f9d81614b5c565b835260209283019201614f8c565b509195945050505050565b600060208284031215614fc857600080fd5b61136e82614b5c565b60008060408385031215614fe457600080fd5b82359150614c2260208401614df8565b80151581146111b057600080fd5b6000806040838503121561501557600080fd5b61501e836149a8565b9150602083013561502e81614ff4565b809150509250929050565b60608101818360005b600381101561506557815161ffff16835260209283019290910190600101615042565b50505092915050565b80356001600160401b03811681146114b057600080fd5b60008083601f84011261509757600080fd5b5081356001600160401b038111156150ae57600080fd5b6020830191508360208285010111156150c657600080fd5b9250929050565b6000806000806000806000806000806101208b8d0312156150ed57600080fd5b6150f68b6149a8565b995060208b0135985060408b013597506001600160401b0360608c0135111561511e57600080fd5b60608b01358b018c601f82011261513457600080fd5b615141614c6f8235614c2b565b81358082526020808301929160051b8401018f81111561516057600080fd5b6020840193505b80841015615189576151788461506e565b835260209384019390920191615167565b50985061519b91505060808c0161506e565b95506151a960a08c016149a8565b945060c08b0135935060e08b013592506001600160401b036101008c013511156151d257600080fd5b6151e38c6101008d01358d01615085565b81935080925050509295989b9194979a5092959850565b60008151808452602080850194506020840160005b83811015614f145781516001600160401b03168752958201959082019060010161520f565b60208152815160208201526000602083015161525b60408401826001600160a01b03169052565b5060408301516001600160a01b03811660608401525060608301516080830152608083015160a083015260a08301516101808060c08501526152a16101a08501836151fa565b915060c08501516152bd60e08601826001600160401b03169052565b5060e08501516101006152da818701836001600160a01b03169052565b8601516101208681019190915286015161014080870191909152860151858403601f1901610160808801919091529091506153158483614a7b565b9601519190940152509192915050565b6000806040838503121561533857600080fd5b615341836149a8565b9150614c22602084016149a8565b600080600080600060a0868803121561536757600080fd5b615370866149a8565b945061537e602087016149a8565b9350604086013592506060860135915060808601356001600160401b038111156153a757600080fd5b614dc888828901614cbd565b60808101818360005b600481101561506557815161ffff168352602092830192909101906001016153bc565b600181811c908216806153f357607f821691505b60208210810361541357634e487b7160e01b600052602260045260246000fd5b50919050565b634e487b7160e01b600052603260045260246000fd5b6020808252600f908201526e496e76616c6964204164647265737360881b604082015260600190565b634e487b7160e01b600052601160045260246000fd5b808202811582820484141761075557610755615458565b8082018082111561075557610755615458565b6040815260006154ab6040830185614ee3565b82810360208401526154bd8185614ee3565b95945050505050565b600061012060ff8c1683528060208401526154e38184018c6151fa565b6001600160401b039a909a16604084015250506001600160a01b03968716606082015294909516608085015260a084019290925260c083015260e0820152610100015292915050565b8181038181111561075557610755615458565b60008261555c57634e487b7160e01b600052601260045260246000fd5b500490565b60ff828116828216039081111561075557610755615458565b60ff818116838216019081111561075557610755615458565b600060ff821660ff81036155a9576155a9615458565b60010192915050565b6001600160401b038181168382160190808211156155d2576155d2615458565b5092915050565b601f821115610f93576000816000526020600020601f850160051c810160208610156156025750805b601f850160051c820191505b818110156125705782815560010161560e565b81516001600160401b0381111561563a5761563a614b16565b61564e8161564884546153df565b846155d9565b602080601f831160018114615683576000841561566b5750858301515b600019600386901b1c1916600185901b178555612570565b600085815260208120601f198616915b828110156156b257888601518255948401946001909101908401615693565b50858210156156d05787850151600019600388901b60f8161c191681555b5050505050600190811b01905550565b6000602082840312156156f257600080fd5b815161136e81614ff4565b6000825161570f818460208701614a57565b9190910192915050565b6001600160a01b03868116825285166020820152604081018490526060810183905260a06080820181905260009061575390830184614a7b565b979650505050505050565b60006020828403121561577057600080fd5b815161136e816149e9565b6001600160a01b0386811682528516602082015260a0604082018190526000906157a790830186614ee3565b82810360608401526157b98186614ee3565b905082810360808401526157cd8185614a7b565b9897505050505050505056fe66ead48cfe0e1d1aa8bad492e906c348dfcfeecbf3b7b2cdf9b1f3cfa42a2945b19546dff01e856fb3f010c267a7b1c60363cf8a4664e21cc89c26224620214ea2646970667358221220bf95f05a925d02e109c0e276512f0c8985b8d8beeeebb48392c4140523b8acc764736f6c63430008180033",
  "linkReferences": {},
  "deployedLinkReferences": {}
}