{
  "_format": "hh-sol-artifact-1",
  "contractName": "UpwardAuction",
  "sourceName": "contracts/UpwardAuction.sol",
  "abi": [
    {
      "inputs": [
        {
          "internalType": "address",
          "name": "_pactContrac",
          "type": "address"
        },
        {
          "internalType": "address",
          "name": "_money",
          "type": "address"
        },
        {
          "internalType": "uint256",
          "name": "_fixedFee",
          "type": "uint256"
        },
        {
          "internalType": "uint256",
          "name": "_priceThreshold",
          "type": "uint256"
        },
        {
          "internalType": "uint256",
          "name": "_dinamicFee",
          "type": "uint256"
        },
        {
          "internalType": "address",
          "name": "_treasury",
          "type": "address"
        },
        {
          "internalType": "address",
          "name": "_accountant",
          "type": "address"
        },
        {
          "internalType": "address",
          "name": "_admin",
          "type": "address"
        }
      ],
      "stateMutability": "nonpayable",
      "type": "constructor"
    },
    {
      "inputs": [],
      "name": "AccessControlBadConfirmation",
      "type": "error"
    },
    {
      "inputs": [
        {
          "internalType": "address",
          "name": "account",
          "type": "address"
        },
        {
          "internalType": "bytes32",
          "name": "neededRole",
          "type": "bytes32"
        }
      ],
      "name": "AccessControlUnauthorizedAccount",
      "type": "error"
    },
    {
      "inputs": [
        {
          "internalType": "address",
          "name": "target",
          "type": "address"
        }
      ],
      "name": "AddressEmptyCode",
      "type": "error"
    },
    {
      "inputs": [
        {
          "internalType": "address",
          "name": "account",
          "type": "address"
        }
      ],
      "name": "AddressInsufficientBalance",
      "type": "error"
    },
    {
      "inputs": [],
      "name": "EnforcedPause",
      "type": "error"
    },
    {
      "inputs": [],
      "name": "ExpectedPause",
      "type": "error"
    },
    {
      "inputs": [],
      "name": "FailedInnerCall",
      "type": "error"
    },
    {
      "inputs": [],
      "name": "ReentrancyGuardReentrantCall",
      "type": "error"
    },
    {
      "inputs": [
        {
          "internalType": "address",
          "name": "token",
          "type": "address"
        }
      ],
      "name": "SafeERC20FailedOperation",
      "type": "error"
    },
    {
      "anonymous": false,
      "inputs": [
        {
          "indexed": false,
          "internalType": "uint256",
          "name": "_index",
          "type": "uint256"
        },
        {
          "indexed": false,
          "internalType": "uint256",
          "name": "_time",
          "type": "uint256"
        }
      ],
      "name": "CloseAuction",
      "type": "event"
    },
    {
      "anonymous": false,
      "inputs": [
        {
          "indexed": true,
          "internalType": "address",
          "name": "owner",
          "type": "address"
        },
        {
          "indexed": false,
          "internalType": "uint256",
          "name": "amount",
          "type": "uint256"
        },
        {
          "indexed": false,
          "internalType": "uint256",
          "name": "timestamp",
          "type": "uint256"
        }
      ],
      "name": "FeesWithdrawn",
      "type": "event"
    },
    {
      "anonymous": false,
      "inputs": [
        {
          "indexed": true,
          "internalType": "address",
          "name": "_owner",
          "type": "address"
        },
        {
          "indexed": true,
          "internalType": "uint256",
          "name": "_id",
          "type": "uint256"
        },
        {
          "indexed": false,
          "internalType": "uint256",
          "name": "_amount",
          "type": "uint256"
        }
      ],
      "name": "NewAuction",
      "type": "event"
    },
    {
      "anonymous": false,
      "inputs": [
        {
          "indexed": true,
          "internalType": "address",
          "name": "previousAddress",
          "type": "address"
        },
        {
          "indexed": true,
          "internalType": "address",
          "name": "newAddress",
          "type": "address"
        }
      ],
      "name": "PactAddressUpdated",
      "type": "event"
    },
    {
      "anonymous": false,
      "inputs": [
        {
          "indexed": false,
          "internalType": "uint256",
          "name": "_amount",
          "type": "uint256"
        }
      ],
      "name": "PaidFee",
      "type": "event"
    },
    {
      "anonymous": false,
      "inputs": [
        {
          "indexed": false,
          "internalType": "address",
          "name": "account",
          "type": "address"
        }
      ],
      "name": "Paused",
      "type": "event"
    },
    {
      "anonymous": false,
      "inputs": [
        {
          "indexed": true,
          "internalType": "bytes32",
          "name": "role",
          "type": "bytes32"
        },
        {
          "indexed": true,
          "internalType": "bytes32",
          "name": "previousAdminRole",
          "type": "bytes32"
        },
        {
          "indexed": true,
          "internalType": "bytes32",
          "name": "newAdminRole",
          "type": "bytes32"
        }
      ],
      "name": "RoleAdminChanged",
      "type": "event"
    },
    {
      "anonymous": false,
      "inputs": [
        {
          "indexed": true,
          "internalType": "bytes32",
          "name": "role",
          "type": "bytes32"
        },
        {
          "indexed": true,
          "internalType": "address",
          "name": "account",
          "type": "address"
        },
        {
          "indexed": true,
          "internalType": "address",
          "name": "sender",
          "type": "address"
        }
      ],
      "name": "RoleGranted",
      "type": "event"
    },
    {
      "anonymous": false,
      "inputs": [
        {
          "indexed": true,
          "internalType": "bytes32",
          "name": "role",
          "type": "bytes32"
        },
        {
          "indexed": true,
          "internalType": "address",
          "name": "account",
          "type": "address"
        },
        {
          "indexed": true,
          "internalType": "address",
          "name": "sender",
          "type": "address"
        }
      ],
      "name": "RoleRevoked",
      "type": "event"
    },
    {
      "anonymous": false,
      "inputs": [
        {
          "indexed": false,
          "internalType": "address",
          "name": "account",
          "type": "address"
        }
      ],
      "name": "Unpaused",
      "type": "event"
    },
    {
      "anonymous": false,
      "inputs": [
        {
          "indexed": true,
          "internalType": "address",
          "name": "_user",
          "type": "address"
        },
        {
          "indexed": true,
          "internalType": "uint256",
          "name": "amount",
          "type": "uint256"
        }
      ],
      "name": "WithDrawMoney",
      "type": "event"
    },
    {
      "anonymous": false,
      "inputs": [
        {
          "indexed": true,
          "internalType": "address",
          "name": "_user",
          "type": "address"
        },
        {
          "indexed": true,
          "internalType": "uint256",
          "name": "_index",
          "type": "uint256"
        },
        {
          "indexed": true,
          "internalType": "uint256",
          "name": "amount",
          "type": "uint256"
        }
      ],
      "name": "WithDrawPact",
      "type": "event"
    },
    {
      "anonymous": false,
      "inputs": [
        {
          "indexed": true,
          "internalType": "address",
          "name": "_player",
          "type": "address"
        },
        {
          "indexed": true,
          "internalType": "uint256",
          "name": "_index",
          "type": "uint256"
        },
        {
          "indexed": false,
          "internalType": "uint256",
          "name": "_amountPot",
          "type": "uint256"
        }
      ],
      "name": "newInstalmentPot",
      "type": "event"
    },
    {
      "inputs": [],
      "name": "ACCOUNTANT_ROLE",
      "outputs": [
        {
          "internalType": "bytes32",
          "name": "",
          "type": "bytes32"
        }
      ],
      "stateMutability": "view",
      "type": "function"
    },
    {
      "inputs": [],
      "name": "DEFAULT_ADMIN_ROLE",
      "outputs": [
        {
          "internalType": "bytes32",
          "name": "",
          "type": "bytes32"
        }
      ],
      "stateMutability": "view",
      "type": "function"
    },
    {
      "inputs": [],
      "name": "OWNER_ROLE",
      "outputs": [
        {
          "internalType": "bytes32",
          "name": "",
          "type": "bytes32"
        }
      ],
      "stateMutability": "view",
      "type": "function"
    },
    {
      "inputs": [
        {
          "internalType": "uint256",
          "name": "_index",
          "type": "uint256"
        }
      ],
      "name": "closeAuction",
      "outputs": [],
      "stateMutability": "nonpayable",
      "type": "function"
    },
    {
      "inputs": [
        {
          "internalType": "bytes32",
          "name": "role",
          "type": "bytes32"
        }
      ],
      "name": "getRoleAdmin",
      "outputs": [
        {
          "internalType": "bytes32",
          "name": "",
          "type": "bytes32"
        }
      ],
      "stateMutability": "view",
      "type": "function"
    },
    {
      "inputs": [
        {
          "internalType": "bytes32",
          "name": "role",
          "type": "bytes32"
        },
        {
          "internalType": "address",
          "name": "account",
          "type": "address"
        }
      ],
      "name": "grantRole",
      "outputs": [],
      "stateMutability": "nonpayable",
      "type": "function"
    },
    {
      "inputs": [
        {
          "internalType": "bytes32",
          "name": "role",
          "type": "bytes32"
        },
        {
          "internalType": "address",
          "name": "account",
          "type": "address"
        }
      ],
      "name": "hasRole",
      "outputs": [
        {
          "internalType": "bool",
          "name": "",
          "type": "bool"
        }
      ],
      "stateMutability": "view",
      "type": "function"
    },
    {
      "inputs": [
        {
          "internalType": "uint256",
          "name": "_index",
          "type": "uint256"
        },
        {
          "internalType": "uint256",
          "name": "_amount",
          "type": "uint256"
        }
      ],
      "name": "instalmentPot",
      "outputs": [],
      "stateMutability": "nonpayable",
      "type": "function"
    },
    {
      "inputs": [
        {
          "internalType": "uint256",
          "name": "_id",
          "type": "uint256"
        },
        {
          "internalType": "uint256",
          "name": "_amount",
          "type": "uint256"
        },
        {
          "internalType": "uint256",
          "name": "_startPrice",
          "type": "uint256"
        },
        {
          "internalType": "uint256",
          "name": "_expired",
          "type": "uint256"
        }
      ],
      "name": "newAcutionPact",
      "outputs": [],
      "stateMutability": "nonpayable",
      "type": "function"
    },
    {
      "inputs": [
        {
          "internalType": "address",
          "name": "operator",
          "type": "address"
        },
        {
          "internalType": "address",
          "name": "from",
          "type": "address"
        },
        {
          "internalType": "uint256[]",
          "name": "ids",
          "type": "uint256[]"
        },
        {
          "internalType": "uint256[]",
          "name": "values",
          "type": "uint256[]"
        },
        {
          "internalType": "bytes",
          "name": "data",
          "type": "bytes"
        }
      ],
      "name": "onERC1155BatchReceived",
      "outputs": [
        {
          "internalType": "bytes4",
          "name": "",
          "type": "bytes4"
        }
      ],
      "stateMutability": "pure",
      "type": "function"
    },
    {
      "inputs": [
        {
          "internalType": "address",
          "name": "operator",
          "type": "address"
        },
        {
          "internalType": "address",
          "name": "from",
          "type": "address"
        },
        {
          "internalType": "uint256",
          "name": "id",
          "type": "uint256"
        },
        {
          "internalType": "uint256",
          "name": "value",
          "type": "uint256"
        },
        {
          "internalType": "bytes",
          "name": "data",
          "type": "bytes"
        }
      ],
      "name": "onERC1155Received",
      "outputs": [
        {
          "internalType": "bytes4",
          "name": "",
          "type": "bytes4"
        }
      ],
      "stateMutability": "pure",
      "type": "function"
    },
    {
      "inputs": [],
      "name": "paused",
      "outputs": [
        {
          "internalType": "bool",
          "name": "",
          "type": "bool"
        }
      ],
      "stateMutability": "view",
      "type": "function"
    },
    {
      "inputs": [
        {
          "internalType": "bytes32",
          "name": "role",
          "type": "bytes32"
        },
        {
          "internalType": "address",
          "name": "callerConfirmation",
          "type": "address"
        }
      ],
      "name": "renounceRole",
      "outputs": [],
      "stateMutability": "nonpayable",
      "type": "function"
    },
    {
      "inputs": [
        {
          "internalType": "bytes32",
          "name": "role",
          "type": "bytes32"
        },
        {
          "internalType": "address",
          "name": "account",
          "type": "address"
        }
      ],
      "name": "revokeRole",
      "outputs": [],
      "stateMutability": "nonpayable",
      "type": "function"
    },
    {
      "inputs": [
        {
          "internalType": "uint256",
          "name": "_coolDown",
          "type": "uint256"
        }
      ],
      "name": "setCoolDown",
      "outputs": [],
      "stateMutability": "nonpayable",
      "type": "function"
    },
    {
      "inputs": [
        {
          "internalType": "uint256[]",
          "name": "_echelons",
          "type": "uint256[]"
        },
        {
          "internalType": "uint256[]",
          "name": "_fees",
          "type": "uint256[]"
        }
      ],
      "name": "setFeeSeller",
      "outputs": [],
      "stateMutability": "nonpayable",
      "type": "function"
    },
    {
      "inputs": [
        {
          "internalType": "uint256",
          "name": "_fixedFee",
          "type": "uint256"
        },
        {
          "internalType": "uint256",
          "name": "_priceThreshold",
          "type": "uint256"
        },
        {
          "internalType": "uint256",
          "name": "_dinamicFee",
          "type": "uint256"
        }
      ],
      "name": "setFeeSystem",
      "outputs": [],
      "stateMutability": "nonpayable",
      "type": "function"
    },
    {
      "inputs": [
        {
          "internalType": "address",
          "name": "_money",
          "type": "address"
        }
      ],
      "name": "setNewMoneyToken",
      "outputs": [],
      "stateMutability": "nonpayable",
      "type": "function"
    },
    {
      "inputs": [
        {
          "internalType": "address",
          "name": "_pactContrac",
          "type": "address"
        }
      ],
      "name": "setNewPactAddress",
      "outputs": [],
      "stateMutability": "nonpayable",
      "type": "function"
    },
    {
      "inputs": [
        {
          "internalType": "address",
          "name": "_treasury",
          "type": "address"
        }
      ],
      "name": "setTreasury",
      "outputs": [],
      "stateMutability": "nonpayable",
      "type": "function"
    },
    {
      "inputs": [
        {
          "internalType": "uint256",
          "name": "_index",
          "type": "uint256"
        }
      ],
      "name": "showAuction",
      "outputs": [
        {
          "components": [
            {
              "internalType": "address",
              "name": "owner",
              "type": "address"
            },
            {
              "internalType": "uint256",
              "name": "id",
              "type": "uint256"
            },
            {
              "internalType": "uint256",
              "name": "amount",
              "type": "uint256"
            },
            {
              "internalType": "uint256",
              "name": "startPrice",
              "type": "uint256"
            },
            {
              "internalType": "uint256",
              "name": "expired",
              "type": "uint256"
            },
            {
              "internalType": "uint256",
              "name": "pot",
              "type": "uint256"
            },
            {
              "internalType": "address",
              "name": "player",
              "type": "address"
            },
            {
              "internalType": "bool",
              "name": "open",
              "type": "bool"
            }
          ],
          "internalType": "struct UpwardAuctionStorage.Auction",
          "name": "",
          "type": "tuple"
        }
      ],
      "stateMutability": "view",
      "type": "function"
    },
    {
      "inputs": [],
      "name": "showAuctionsList",
      "outputs": [
        {
          "components": [
            {
              "internalType": "address",
              "name": "owner",
              "type": "address"
            },
            {
              "internalType": "uint256",
              "name": "id",
              "type": "uint256"
            },
            {
              "internalType": "uint256",
              "name": "amount",
              "type": "uint256"
            },
            {
              "internalType": "uint256",
              "name": "startPrice",
              "type": "uint256"
            },
            {
              "internalType": "uint256",
              "name": "expired",
              "type": "uint256"
            },
            {
              "internalType": "uint256",
              "name": "pot",
              "type": "uint256"
            },
            {
              "internalType": "address",
              "name": "player",
              "type": "address"
            },
            {
              "internalType": "bool",
              "name": "open",
              "type": "bool"
            }
          ],
          "internalType": "struct UpwardAuctionStorage.Auction[]",
          "name": "",
          "type": "tuple[]"
        }
      ],
      "stateMutability": "view",
      "type": "function"
    },
    {
      "inputs": [],
      "name": "showBalanceFee",
      "outputs": [
        {
          "internalType": "uint256",
          "name": "",
          "type": "uint256"
        }
      ],
      "stateMutability": "view",
      "type": "function"
    },
    {
      "inputs": [],
      "name": "showFeesSeller",
      "outputs": [
        {
          "components": [
            {
              "internalType": "uint256[]",
              "name": "echelons",
              "type": "uint256[]"
            },
            {
              "internalType": "uint256[]",
              "name": "fees",
              "type": "uint256[]"
            }
          ],
          "internalType": "struct UpwardAuctionStorage.FeeSeller",
          "name": "",
          "type": "tuple"
        }
      ],
      "stateMutability": "view",
      "type": "function"
    },
    {
      "inputs": [],
      "name": "showFeesSystem",
      "outputs": [
        {
          "components": [
            {
              "internalType": "uint256",
              "name": "fixedFee",
              "type": "uint256"
            },
            {
              "internalType": "uint256",
              "name": "priceThreshold",
              "type": "uint256"
            },
            {
              "internalType": "uint256",
              "name": "dinamicFee",
              "type": "uint256"
            }
          ],
          "internalType": "struct UpwardAuctionStorage.FeeSystem",
          "name": "",
          "type": "tuple"
        }
      ],
      "stateMutability": "view",
      "type": "function"
    },
    {
      "inputs": [],
      "name": "showPactContractAddress",
      "outputs": [
        {
          "internalType": "address",
          "name": "",
          "type": "address"
        }
      ],
      "stateMutability": "view",
      "type": "function"
    },
    {
      "inputs": [
        {
          "internalType": "address",
          "name": "_user",
          "type": "address"
        }
      ],
      "name": "showUserBalanceFree",
      "outputs": [
        {
          "internalType": "uint256",
          "name": "",
          "type": "uint256"
        }
      ],
      "stateMutability": "view",
      "type": "function"
    },
    {
      "inputs": [
        {
          "internalType": "address",
          "name": "_user",
          "type": "address"
        }
      ],
      "name": "showUserBalanceLock",
      "outputs": [
        {
          "internalType": "uint256",
          "name": "",
          "type": "uint256"
        }
      ],
      "stateMutability": "view",
      "type": "function"
    },
    {
      "inputs": [
        {
          "internalType": "bytes4",
          "name": "interfaceId",
          "type": "bytes4"
        }
      ],
      "name": "supportsInterface",
      "outputs": [
        {
          "internalType": "bool",
          "name": "",
          "type": "bool"
        }
      ],
      "stateMutability": "view",
      "type": "function"
    },
    {
      "inputs": [
        {
          "internalType": "uint256",
          "name": "_index",
          "type": "uint256"
        }
      ],
      "name": "withDrawPact",
      "outputs": [],
      "stateMutability": "nonpayable",
      "type": "function"
    },
    {
      "inputs": [],
      "name": "withdrawFees",
      "outputs": [],
      "stateMutability": "nonpayable",
      "type": "function"
    },
    {
      "inputs": [
        {
          "internalType": "uint256",
          "name": "_amount",
          "type": "uint256"
        }
      ],
      "name": "withdrawMoney",
      "outputs": [],
      "stateMutability": "nonpayable",
      "type": "function"
    }
  ],
  "bytecode": "0x60a060405260966080523480156200001657600080fd5b5060405162003249380380620032498339810160408190526200003991620001d8565b600d80546001600e819055600080546001600160a01b03199081166001600160a01b038e811691909117835583549091168c82161790925560068a9055600789905560088890556001600160a81b0319909216908616179091556200009f908262000108565b50620000cc7f369da55721ba2b3acddd63aac7d6512c3e5762a78fa01c44f423f97868330c348362000108565b50620000f97fb19546dff01e856fb3f010c267a7b1c60363cf8a4664e21cc89c26224620214e3362000108565b50505050505050505062000265565b6000828152600f602090815260408083206001600160a01b038516845290915281205460ff16620001b1576000838152600f602090815260408083206001600160a01b03861684529091529020805460ff19166001179055620001683390565b6001600160a01b0316826001600160a01b0316847f2f8788117e7eff1d82e926ec794901d17c78024a50270940304540a733656f0d60405160405180910390a4506001620001b5565b5060005b92915050565b80516001600160a01b0381168114620001d357600080fd5b919050565b600080600080600080600080610100898b031215620001f657600080fd5b6200020189620001bb565b97506200021160208a01620001bb565b96506040890151955060608901519450608089015193506200023660a08a01620001bb565b92506200024660c08a01620001bb565b91506200025660e08a01620001bb565b90509295985092959890939650565b608051612fc8620002816000396000611de50152612fc86000f3fe608060405234801561001057600080fd5b50600436106101f05760003560e01c80637c56687a1161010f578063cde7451c116100a2578063f0aa872b11610071578063f0aa872b146104a2578063f0f44260146104b7578063f23a6e61146104ca578063f86670ad146104ea57600080fd5b8063cde7451c14610452578063d547741f14610465578063e58378bb14610478578063e6af68391461048d57600080fd5b8063a217fddf116100de578063a217fddf146103e7578063ab1efbab146103ef578063abbf5de114610404578063bc197c811461041757600080fd5b80637c56687a146103a65780638aee7ee3146103b957806391d14854146103cc578063933e2668146103df57600080fd5b806336568abe116101875780635487692111610156578063548769211461035b5780635c975abb1461036e5780637586191614610380578063791e01c31461039357600080fd5b806336568abe1461030457806339c1670c14610317578063476343ee146103405780634ec156cd1461034857600080fd5b8063236ed8f3116101c3578063236ed8f31461028f578063248a9ca3146102a4578063270088cd146102c75780632f2ff15d146102f157600080fd5b806301ffc9a7146101f5578063106011411461021d5780631e4ef18c1461025457806320cb6a8014610274575b600080fd5b6102086102033660046128d4565b6104fd565b60405190151581526020015b60405180910390f35b61024661022b366004612915565b6001600160a01b03166000908152600b602052604090205490565b604051908152602001610214565b610267610262366004612930565b610534565b60405161021491906129a5565b6000546040516001600160a01b039091168152602001610214565b6102a261029d366004612930565b610658565b005b6102466102b2366004612930565b6000908152600f602052604090206001015490565b6102cf6106db565b6040805182518152602080840151908201529181015190820152606001610214565b6102a26102ff3660046129b4565b610724565b6102a26103123660046129b4565b61074f565b610246610325366004612915565b6001600160a01b03166000908152600a602052604090205490565b6102a2610787565b6102a2610356366004612915565b61085c565b6102a2610369366004612930565b610995565b600d54600160a01b900460ff16610208565b6102a261038e3660046129e0565b6109e6565b6102a26103a1366004612a0c565b610a71565b6102a26103b4366004612930565b610b93565b6102a26103c7366004612915565b610bb1565b6102086103da3660046129b4565b610c41565b600254610246565b610246600081565b610246600080516020612f3383398151915281565b6102a2610412366004612930565b610c6c565b610439610425366004612acc565b63bc197c8160e01b98975050505050505050565b6040516001600160e01b03199091168152602001610214565b6102a2610460366004612b87565b610cb4565b6102a26104733660046129b4565b610d34565b610246600080516020612f5383398151915281565b610495610d59565b6040516102149190612be5565b6104aa610e26565b6040516102149190612c27565b6102a26104c5366004612915565b610ee7565b6104396104d8366004612c76565b63f23a6e6160e01b9695505050505050565b6102a26104f8366004612da2565b610f78565b60006001600160e01b03198216637965db0b60e01b148061052e57506301ffc9a760e01b6001600160e01b03198316145b92915050565b61059060405180610100016040528060006001600160a01b03168152602001600081526020016000815260200160008152602001600081526020016000815260200160006001600160a01b031681526020016000151581525090565b600954829081106105bc5760405162461bcd60e51b81526004016105b390612e06565b60405180910390fd5b600983815481106105cf576105cf612e3d565b6000918252602091829020604080516101008101825260079390930290910180546001600160a01b0390811684526001820154948401949094526002810154918301919091526003810154606083015260048101546080830152600581015460a08301526006015491821660c0820152600160a01b90910460ff16151560e08201529392505050565b6106606110d1565b6106686110fb565b6009548190811061068b5760405162461bcd60e51b81526004016105b390612e06565b6106953383611128565b604080518381524260208201527fd4c37cf7a2dd87bf216584303aca56ea151859875ce77d12a2d35f240b39d748910160405180910390a1506106d86001600e55565b50565b6106ff60405180606001604052806000815260200160008152602001600081525090565b5060408051606081018252600654815260075460208201526008549181019190915290565b6000828152600f602052604090206001015461073f816114b2565b61074983836114bc565b50505050565b6001600160a01b03811633146107785760405163334bd91960e11b815260040160405180910390fd5b6107828282611550565b505050565b600080516020612f3383398151915261079f816114b2565b600254806107ef5760405162461bcd60e51b815260206004820152601d60248201527f4e6f206665657320617661696c61626c6520746f20776974686472617700000060448201526064016105b3565b6000600255600154600d54610811916001600160a01b039081169116836115bd565b600d54604080518381524260208201526001600160a01b03909216917fdeb5099d7943aa2b4c1142e5d53d2f7636aa8f7bd130ec79816f151572bcdf45910160405180910390a25050565b600080516020612f53833981519152610874816114b2565b61087c6110d1565b6001600160a01b0382166108d25760405162461bcd60e51b815260206004820152601860248201527f496e76616c696420636f6e74726163742061646472657373000000000000000060448201526064016105b3565b6000546001600160a01b039081169083160361093a5760405162461bcd60e51b815260206004820152602160248201527f4164647265737320616c72656164792073657420746f20746869732076616c756044820152606560f81b60648201526084016105b3565b600080546001600160a01b038481166001600160a01b0319831681178455604051919092169283917f36e10a7a28f608315f66ee60df67d1e504b589a45f3024d439d253b6744193c69190a3506109916001600e55565b5050565b61099d6110d1565b6109a56110fb565b6109af338261161c565b604051819033907ff9b0350773858ea9ce560771e315626666a06cfe814575dcb767430e3a21e62390600090a36106d86001600e55565b600080516020612f538339815191526109fe816114b2565b610a066110d1565b612710821115610a585760405162461bcd60e51b815260206004820152601e60248201527f44796e616d6963206665652063616e6e6f74206578636565642031303025000060448201526064016105b3565b6006849055600783905560088290556107496001600e55565b610a796110d1565b610a816110fb565b60008311610ad15760405162461bcd60e51b815260206004820152601960248201527f53657420636f72726563742070616374277320616d6f756e740000000000000060448201526064016105b3565b60008211610b215760405162461bcd60e51b815260206004820152601760248201527f53657420636f727265637420737461727420707269636500000000000000000060448201526064016105b3565b610b2e62093a8042612e69565b8111610b7c5760405162461bcd60e51b815260206004820152601a60248201527f53657420636f7272656374206578706972656420706572696f6400000000000060448201526064016105b3565b610b89338585858561175f565b6107496001600e55565b600080516020612f53833981519152610bab816114b2565b50600355565b600080516020612f33833981519152610bc9816114b2565b610bd16110d1565b6001600160a01b038216610c1f5760405162461bcd60e51b8152602060048201526015602482015274496e76616c696420746f6b656e206164647265737360581b60448201526064016105b3565b600180546001600160a01b0319166001600160a01b038416178155600e555050565b6000918252600f602090815260408084206001600160a01b0393909316845291905290205460ff1690565b610c746110d1565b610c7c6110fb565b60095481908110610c9f5760405162461bcd60e51b81526004016105b390612e06565b610ca9338361177f565b506106d86001600e55565b610cbc6110d1565b610cc46110fb565b60095482908110610ce75760405162461bcd60e51b81526004016105b390612e06565b610cf2338484611b35565b604051828152839033907fe91d7154f5d05e7742771a51aa79a5bcf7adf81e1260cebe96b1f95ac9dea8459060200160405180910390a3506109916001600e55565b6000828152600f6020526040902060010154610d4f816114b2565b6107498383611550565b6040805180820190915260608082526020820152604080516004805460606020820284018101855293830181815292939192849290918491840182828015610dc057602002820191906000526020600020905b815481526020019060010190808311610dac575b5050505050815260200160018201805480602002602001604051908101604052809291908181526020018280548015610e1857602002820191906000526020600020905b815481526020019060010190808311610e04575b505050505081525050905090565b60606009805480602002602001604051908101604052809291908181526020016000905b82821015610ede57600084815260209081902060408051610100810182526007860290920180546001600160a01b039081168452600180830154858701526002830154938501939093526003820154606085015260048201546080850152600582015460a085015260069091015490811660c0840152600160a01b900460ff16151560e08301529083529092019101610e4a565b50505050905090565b600080516020612f33833981519152610eff816114b2565b6001600160a01b038216610f555760405162461bcd60e51b815260206004820152601f60248201527f547265617375727920616464726573732063616e6e6f74206265207a65726f0060448201526064016105b3565b50600d80546001600160a01b0319166001600160a01b0392909216919091179055565b600080516020612f53833981519152610f90816114b2565b610f986110d1565b8151835114610ff35760405162461bcd60e51b815260206004820152602160248201527f456368656c6f6e7320616e642066656573206c656e677468206d69736d6174636044820152600d60fb1b60648201526084016105b3565b60015b835181101561109e578361100b600183612e7c565b8151811061101b5761101b612e3d565b602002602001015184828151811061103557611035612e3d565b6020026020010151116110965760405162461bcd60e51b815260206004820152602360248201527f456368656c6f6e73206d75737420626520696e20617363656e64696e67206f726044820152623232b960e91b60648201526084016105b3565b600101610ff6565b5082516110b2906004906020860190612874565b5081516110c6906005906020850190612874565b506107826001600e55565b6002600e54036110f457604051633ee5aeb560e01b815260040160405180910390fd5b6002600e55565b600d54600160a01b900460ff16156111265760405163d93c066560e01b815260040160405180910390fd5b565b426009828154811061113c5761113c612e3d565b9060005260206000209060070201600401541061119b5760405162461bcd60e51b815260206004820152601b60248201527f546869732061756374696f6e206973206e6f742065787069726564000000000060448201526064016105b3565b600981815481106111ae576111ae612e3d565b60009182526020909120600790910201546001600160a01b03838116911614806112095750600981815481106111e6576111e6612e3d565b60009182526020909120600660079092020101546001600160a01b038381169116145b806112275750611227600080516020612f5383398151915283610c41565b61125f5760405162461bcd60e51b81526020600482015260096024820152682737ba1027bbb732b960b91b60448201526064016105b3565b6009818154811061127257611272612e3d565b906000526020600020906007020160060160149054906101000a900460ff16151560011515146112e45760405162461bcd60e51b815260206004820152601a60248201527f546869732061756374696f6e20616c726561647920636c6f736500000000000060448201526064016105b3565b6000600982815481106112f9576112f9612e3d565b906000526020600020906007020160060160146101000a81548160ff02191690831515021790555060006009828154811061133657611336612e3d565b60009182526020822060066007909202010154600980546001600160a01b039092169350908490811061136b5761136b612e3d565b60009182526020822060079091020154600980546001600160a01b039092169350908590811061139d5761139d612e3d565b906000526020600020906007020160050154905060006113e0600986815481106113c9576113c9612e3d565b906000526020600020906007020160050154611fd8565b90506000600986815481106113f7576113f7612e3d565b906000526020600020906007020160050181905550836009868154811061142057611420612e3d565b6000918252602080832060079290920290910180546001600160a01b0319166001600160a01b039485161790559186168152600a90915260408120805484929061146b908490612e7c565b9091555061147d905084836000612103565b6001600160a01b0383166000908152600a6020526040812080548392906114a5908490612e69565b9091555050505050505050565b6106d88133612262565b60006114c88383610c41565b611548576000838152600f602090815260408083206001600160a01b03861684529091529020805460ff191660011790556115003390565b6001600160a01b0316826001600160a01b0316847f2f8788117e7eff1d82e926ec794901d17c78024a50270940304540a733656f0d60405160405180910390a450600161052e565b50600061052e565b600061155c8383610c41565b15611548576000838152600f602090815260408083206001600160a01b0386168085529252808320805460ff1916905551339286917ff6391f5c32d9c69d2a47ea670b442974b53935d1edc7fd64eb21e047a839171b9190a450600161052e565b6040516001600160a01b0383811660248301526044820183905261078291859182169063a9059cbb906064015b604051602081830303815290604052915060e01b6020820180516001600160e01b03838183161783525050505061229b565b6001600160a01b0382166000908152600b6020908152604080832054600a9092529091205461164b9190612e7c565b81111561169a5760405162461bcd60e51b815260206004820152601960248201527f496e73756666696369656e7420667265652062616c616e63650000000000000060448201526064016105b3565b6001600160a01b0382166000908152600a60205260409020546116be908290612e7c565b6001600160a01b0383166000908152600b6020526040902054111561171b5760405162461bcd60e51b815260206004820152601360248201527224b731b7b93932b1ba1027b832b930ba34b7b760691b60448201526064016105b3565b6001600160a01b0382166000908152600a602052604081208054839290611743908490612e7c565b9091555050600154610991906001600160a01b031683836115bd565b61176b853086866122fe565b6117788585858585612388565b5050505050565b6009818154811061179257611792612e3d565b60009182526020909120600790910201546001600160a01b038381169116146117e95760405162461bcd60e51b81526020600482015260096024820152682737ba1027bbb732b960b91b60448201526064016105b3565b42600982815481106117fd576117fd612e3d565b9060005260206000209060070201600401541061185c5760405162461bcd60e51b815260206004820152601b60248201527f546869732061756374696f6e206973206e6f742065787069726564000000000060448201526064016105b3565b6009818154811061186f5761186f612e3d565b6000918252602090912060079091020160060154600160a01b900460ff16156118d15760405162461bcd60e51b81526020600482015260146024820152732a3434b99030bab1ba34b7b71034b99027b832b760611b60448201526064016105b3565b60008054600980546001600160a01b039092169162fdd58e913091869081106118fc576118fc612e3d565b60009182526020909120600160079092020101546040516001600160e01b031960e085901b1681526001600160a01b0390921660048301526024820152604401602060405180830381865afa158015611959573d6000803e3d6000fd5b505050506040513d601f19601f8201168201806040525081019061197d9190612e8f565b90506009828154811061199257611992612e3d565b906000526020600020906007020160020154811015611a015760405162461bcd60e51b815260206004820152602560248201527f496e73756666696369656e7420706163742062616c616e636520696e20636f6e6044820152641d1c9858dd60da1b60648201526084016105b3565b600060098381548110611a1657611a16612e3d565b9060005260206000209060070201600201549050600060098481548110611a3f57611a3f612e3d565b906000526020600020906007020160020181905550611ab43060098581548110611a6b57611a6b612e3d565b6000918252602090912060079091020154600980546001600160a01b039092169187908110611a9c57611a9c612e3d565b906000526020600020906007020160010154846122fe565b8060098481548110611ac857611ac8612e3d565b90600052602060002090600702016001015460098581548110611aed57611aed612e3d565b600091825260208220600790910201546040516001600160a01b03909116917ffd3e8f554fb2b45439fb3a096a5e1d395c4d0917185719b66c0d2124b181fd5491a450505050565b4260098381548110611b4957611b49612e3d565b90600052602060002090600702016004015411611ba85760405162461bcd60e51b815260206004820152601760248201527f546869732061756374696f6e206973206578706972656400000000000000000060448201526064016105b3565b60098281548110611bbb57611bbb612e3d565b906000526020600020906007020160060160149054906101000a900460ff1615156001151514611c255760405162461bcd60e51b8152602060048201526015602482015274546869732061756374696f6e20697320636c6f736560581b60448201526064016105b3565b611c2e81612569565b60098381548110611c4157611c41612e3d565b90600052602060002090600702016005015410611ca05760405162461bcd60e51b815260206004820181905260248201527f5468697320706f74206973206c6f77207468656e20616c726561647920706f7460448201526064016105b3565b826001600160a01b031660098381548110611cbd57611cbd612e3d565b60009182526020909120600790910201546001600160a01b031603611d165760405162461bcd60e51b815260206004820152600f60248201526e13dddb995c8818d85b89dd081c1bdd608a1b60448201526064016105b3565b611d1f81612569565b60098381548110611d3257611d32612e3d565b90600052602060002090600702016003015410611d915760405162461bcd60e51b815260206004820181905260248201527f5468697320706f74206973206c6f77207468656e20737461727420507269636560448201526064016105b3565b60098281548110611da457611da4612e3d565b90600052602060002090600702016005015460098381548110611dc957611dc9612e3d565b9060005260206000209060070201600501541115611e9a5760647f000000000000000000000000000000000000000000000000000000000000000060098481548110611e1757611e17612e3d565b906000526020600020906007020160050154611e339190612ea8565b611e3d9190612ebf565b811115611e9a5760405162461bcd60e51b815260206004820152602560248201527f506f742065786365656473206d6178696d756d20616c6c6f77656420696e6372604482015264195b595b9d60da1b60648201526084016105b3565b611ea483836125a1565b611eaf83308361263d565b6000611eba82612655565b6001600160a01b0385166000908152600a6020526040812080549293508392909190611ee7908490612e69565b90915550611ef9905084826001612103565b611f6060098481548110611f0f57611f0f612e3d565b906000526020600020906007020160060160009054906101000a90046001600160a01b031660098581548110611f4757611f47612e3d565b9060005260206000209060070201600501546000612103565b8360098481548110611f7457611f74612e3d565b906000526020600020906007020160060160006101000a8154816001600160a01b0302191690836001600160a01b031602179055508060098481548110611fbd57611fbd612e3d565b90600052602060002090600702016005018190555050505050565b6000805b60045481101561208c576004805482908110611ffa57611ffa612e3d565b9060005260206000200154831015612084576000612038846004600101848154811061202857612028612e3d565b90600052602060002001546126f2565b9050806002600082825461204c9190612e69565b9091555050604051818152600080516020612f738339815191529060200160405180910390a161207c8185612e7c565b949350505050565b600101611fdc565b50600580546000916120b7918591906120a790600190612e7c565b8154811061202857612028612e3d565b905080600260008282546120cb9190612e69565b9091555050604051818152600080516020612f73833981519152906020015b60405180910390a16120fc8184612e7c565b9392505050565b80156121c8576001600160a01b0383166000908152600a6020908152604080832054600b90925290912054612139908490612e69565b11156121955760405162461bcd60e51b815260206004820152602560248201527f496e73756666696369656e7420667265652062616c616e636520666f72206c6f604482015264636b696e6760d81b60648201526084016105b3565b6001600160a01b0383166000908152600b6020526040812080548492906121bd908490612e69565b909155506107829050565b6001600160a01b0383166000908152600b60205260409020548211156122305760405162461bcd60e51b815260206004820152601b60248201527f496e73756666696369656e74206c6f636b65642062616c616e6365000000000060448201526064016105b3565b6001600160a01b0383166000908152600b602052604081208054849290612258908490612e7c565b9091555050505050565b61226c8282610c41565b6109915760405163e2517d3f60e01b81526001600160a01b0382166004820152602481018390526044016105b3565b60006122b06001600160a01b0384168361270b565b905080516000141580156122d55750808060200190518101906122d39190612ee1565b155b1561078257604051635274afe760e01b81526001600160a01b03841660048201526024016105b3565b60008054604051637921219560e11b81526001600160a01b0387811660048301528681166024830152604482018690526064820185905260a0608483015260a482019390935291169063f242432a9060c401600060405180830381600087803b15801561236a57600080fd5b505af115801561237e573d6000803e3d6000fd5b5050505050505050565b60408051610100810182526001600160a01b0387811680835260208084018981528486018981526060860189815260808701898152600060a0890181815260c08a01888152600160e08c018181526009805492830181559094528b517f6e1540171b6c0c960b71a7020d9f60077f6af931a8bbf590da0223dacf75c7af600790920291820180546001600160a01b031916918d1691909117905596517f6e1540171b6c0c960b71a7020d9f60077f6af931a8bbf590da0223dacf75c7b088015594517f6e1540171b6c0c960b71a7020d9f60077f6af931a8bbf590da0223dacf75c7b187015592517f6e1540171b6c0c960b71a7020d9f60077f6af931a8bbf590da0223dacf75c7b286015590517f6e1540171b6c0c960b71a7020d9f60077f6af931a8bbf590da0223dacf75c7b385015590517f6e1540171b6c0c960b71a7020d9f60077f6af931a8bbf590da0223dacf75c7b484015590517f6e1540171b6c0c960b71a7020d9f60077f6af931a8bbf590da0223dacf75c7b590920180549151929095166001600160a81b031990911617600160a01b911515919091021790925592518681529192879290917fc078426956212265671526c1abdaea1311badbf1505fe0711db77bca2fa9afae910160405180910390a3505050505050565b6007546000908210156125835760065461052e9083612e7c565b612592826006600201546126f2565b61052e9083612e7c565b919050565b6003546001600160a01b0383166000908152600c6020908152604080832085845290915290205442916125d391612e69565b106126155760405162461bcd60e51b81526020600482015260126024820152712bb0b4ba103337b9103837ba1030b3b0b4b760711b60448201526064016105b3565b6001600160a01b039091166000908152600c6020908152604080832093835292905220429055565b600154610782906001600160a01b0316848484612719565b6007546000908210156126aa5760065460028054600090612677908490612e69565b9091555050604051828152600080516020612f738339815191529060200160405180910390a160065461052e9083612e7c565b60006126bb836006600201546126f2565b905080600260008282546126cf9190612e69565b9091555050604051838152600080516020612f73833981519152906020016120ea565b60006127106127018385612ea8565b6120fc9190612ebf565b60606120fc83836000612752565b6040516001600160a01b0384811660248301528381166044830152606482018390526107499186918216906323b872dd906084016115ea565b6060814710156127775760405163cd78605960e01b81523060048201526024016105b3565b600080856001600160a01b031684866040516127939190612f03565b60006040518083038185875af1925050503d80600081146127d0576040519150601f19603f3d011682016040523d82523d6000602084013e6127d5565b606091505b50915091506127e58683836127ef565b9695505050505050565b606082612804576127ff8261284b565b6120fc565b815115801561281b57506001600160a01b0384163b155b1561284457604051639996b31560e01b81526001600160a01b03851660048201526024016105b3565b50806120fc565b80511561285b5780518082602001fd5b604051630a12f52160e11b815260040160405180910390fd5b8280548282559060005260206000209081019282156128af579160200282015b828111156128af578251825591602001919060010190612894565b506128bb9291506128bf565b5090565b5b808211156128bb57600081556001016128c0565b6000602082840312156128e657600080fd5b81356001600160e01b0319811681146120fc57600080fd5b80356001600160a01b038116811461259c57600080fd5b60006020828403121561292757600080fd5b6120fc826128fe565b60006020828403121561294257600080fd5b5035919050565b60018060a01b038082511683526020820151602084015260408201516040840152606082015160608401526080820151608084015260a082015160a08401528060c08301511660c08401525060e0810151151560e08301525050565b610100810161052e8284612949565b600080604083850312156129c757600080fd5b823591506129d7602084016128fe565b90509250929050565b6000806000606084860312156129f557600080fd5b505081359360208301359350604090920135919050565b60008060008060808587031215612a2257600080fd5b5050823594602084013594506040840135936060013592509050565b60008083601f840112612a5057600080fd5b50813567ffffffffffffffff811115612a6857600080fd5b6020830191508360208260051b8501011115612a8357600080fd5b9250929050565b60008083601f840112612a9c57600080fd5b50813567ffffffffffffffff811115612ab457600080fd5b602083019150836020828501011115612a8357600080fd5b60008060008060008060008060a0898b031215612ae857600080fd5b612af1896128fe565b9750612aff60208a016128fe565b9650604089013567ffffffffffffffff80821115612b1c57600080fd5b612b288c838d01612a3e565b909850965060608b0135915080821115612b4157600080fd5b612b4d8c838d01612a3e565b909650945060808b0135915080821115612b6657600080fd5b50612b738b828c01612a8a565b999c989b5096995094979396929594505050565b60008060408385031215612b9a57600080fd5b50508035926020909101359150565b60008151808452602080850194506020840160005b83811015612bda57815187529582019590820190600101612bbe565b509495945050505050565b602081526000825160406020840152612c016060840182612ba9565b90506020840151601f19848303016040850152612c1e8282612ba9565b95945050505050565b6020808252825182820181905260009190848201906040850190845b81811015612c6a57612c56838551612949565b928401926101009290920191600101612c43565b50909695505050505050565b60008060008060008060a08789031215612c8f57600080fd5b612c98876128fe565b9550612ca6602088016128fe565b94506040870135935060608701359250608087013567ffffffffffffffff811115612cd057600080fd5b612cdc89828a01612a8a565b979a9699509497509295939492505050565b634e487b7160e01b600052604160045260246000fd5b600082601f830112612d1557600080fd5b8135602067ffffffffffffffff80831115612d3257612d32612cee565b8260051b604051601f19603f83011681018181108482111715612d5757612d57612cee565b6040529384526020818701810194908101925087851115612d7757600080fd5b6020870191505b84821015612d9757813583529183019190830190612d7e565b979650505050505050565b60008060408385031215612db557600080fd5b823567ffffffffffffffff80821115612dcd57600080fd5b612dd986838701612d04565b93506020850135915080821115612def57600080fd5b50612dfc85828601612d04565b9150509250929050565b6020808252601d908201527f646967697420636f727265637420696e64657820666f72206172726179000000604082015260600190565b634e487b7160e01b600052603260045260246000fd5b634e487b7160e01b600052601160045260246000fd5b8082018082111561052e5761052e612e53565b8181038181111561052e5761052e612e53565b600060208284031215612ea157600080fd5b5051919050565b808202811582820484141761052e5761052e612e53565b600082612edc57634e487b7160e01b600052601260045260246000fd5b500490565b600060208284031215612ef357600080fd5b815180151581146120fc57600080fd5b6000825160005b81811015612f245760208186018101518583015201612f0a565b50600092019182525091905056fe369da55721ba2b3acddd63aac7d6512c3e5762a78fa01c44f423f97868330c34b19546dff01e856fb3f010c267a7b1c60363cf8a4664e21cc89c26224620214e4c70c6c677a8dbcdfad24e3c679dfb228865fe729eb77efa5856d788c39a8c99a2646970667358221220874f4443a7dcff81fddd6ca220f0b374fb5dd18dacdcb430ac6925c18456059a64736f6c63430008180033",
  "linkReferences": {},
  "deployedLinkReferences": {}
}